{"contracts/PedersenCommitment.sol":{"PedersenCommitment":{"abi":[{"inputs":[],"name":"H","outputs":[{"internalType":"uint256","name":"","type":"uint256"}],"stateMutability":"view","type":"function"},{"inputs":[{"internalType":"uint256","name":"_r1","type":"uint256"},{"internalType":"uint256","name":"_x1","type":"uint256"},{"internalType":"uint256","name":"_y1","type":"uint256"},{"internalType":"uint256","name":"_r2","type":"uint256"},{"internalType":"uint256","name":"_x2","type":"uint256"},{"internalType":"uint256","name":"_y2","type":"uint256"}],"name":"addCommitment","outputs":[{"internalType":"uint256","name":"_r3","type":"uint256"},{"internalType":"uint256","name":"_x3","type":"uint256"},{"internalType":"uint256","name":"_y3","type":"uint256"}],"stateMutability":"view","type":"function"},{"inputs":[{"internalType":"uint256","name":"_r","type":"uint256"},{"internalType":"uint256","name":"_v","type":"uint256"}],"name":"commit","outputs":[{"internalType":"uint256","name":"_x3","type":"uint256"},{"internalType":"uint256","name":"_y3","type":"uint256"}],"stateMutability":"view","type":"function"},{"inputs":[{"internalType":"uint256","name":"_x1","type":"uint256"},{"internalType":"uint256","name":"_y1","type":"uint256"},{"internalType":"uint256","name":"_x2","type":"uint256"},{"internalType":"uint256","name":"_y2","type":"uint256"}],"name":"eAdd","outputs":[{"internalType":"uint256","name":"_x3","type":"uint256"},{"internalType":"uint256","name":"_y3","type":"uint256"}],"stateMutability":"view","type":"function"},{"inputs":[{"internalType":"uint256","name":"_z","type":"uint256"},{"internalType":"uint256","name":"_x1","type":"uint256"},{"internalType":"uint256","name":"_y1","type":"uint256"}],"name":"eMul","outputs":[{"internalType":"uint256","name":"_x2","type":"uint256"},{"internalType":"uint256","name":"_y2","type":"uint256"}],"stateMutability":"view","type":"function"},{"inputs":[{"internalType":"uint256","name":"_x1","type":"uint256"},{"internalType":"uint256","name":"_y1","type":"uint256"},{"internalType":"uint256","name":"_x2","type":"uint256"},{"internalType":"uint256","name":"_y2","type":"uint256"}],"name":"eSub","outputs":[{"internalType":"uint256","name":"_x3","type":"uint256"},{"internalType":"uint256","name":"_y3","type":"uint256"}],"stateMutability":"view","type":"function"},{"inputs":[],"name":"gx","outputs":[{"internalType":"uint256","name":"","type":"uint256"}],"stateMutability":"view","type":"function"},{"inputs":[],"name":"gy","outputs":[{"internalType":"uint256","name":"","type":"uint256"}],"stateMutability":"view","type":"function"},{"inputs":[],"name":"nn","outputs":[{"internalType":"uint256","name":"","type":"uint256"}],"stateMutability":"view","type":"function"},{"inputs":[],"name":"pp","outputs":[{"internalType":"uint256","name":"","type":"uint256"}],"stateMutability":"view","type":"function"},{"inputs":[{"internalType":"uint256","name":"_r1","type":"uint256"},{"internalType":"uint256","name":"_x1","type":"uint256"},{"internalType":"uint256","name":"_y1","type":"uint256"},{"internalType":"uint256","name":"_r2","type":"uint256"},{"internalType":"uint256","name":"_x2","type":"uint256"},{"internalType":"uint256","name":"_y2","type":"uint256"}],"name":"subCommitment","outputs":[{"internalType":"uint256","name":"_r3","type":"uint256"},{"internalType":"uint256","name":"_x3","type":"uint256"},{"internalType":"uint256","name":"_y3","type":"uint256"}],"stateMutability":"view","type":"function"},{"inputs":[{"internalType":"uint256","name":"_r","type":"uint256"},{"internalType":"uint256","name":"_v","type":"uint256"},{"internalType":"uint256","name":"_x1","type":"uint256"},{"internalType":"uint256","name":"_y1","type":"uint256"}],"name":"verify","outputs":[{"internalType":"bool","name":"result","type":"bool"}],"stateMutability":"view","type":"function"}],"evm":{"bytecode":{"linkReferences":{},"object":"60806040527ffffffffffffffffffffffffffffffffffffffffffffffffffffffffefffffc2f6000557ffffffffffffffffffffffffffffffffebaaedce6af48a03bbfd25e8cd03641416001557f79be667ef9dcbbac55a06295ce870b07029bfcdb2dce28d959f2815b16f817986002557f483ada7726a3c4655da4fbfc0e1108a8fd17b448a68554199c47d08ffb10d4b86003553480156100a057600080fd5b506114fd806100b06000396000f3fe608060405234801561001057600080fd5b50600436106100b45760003560e01c806370a5d8611161007157806370a5d861146101ba57806372a4c30f146101d85780638e833f0d146101f657806391327ec614610227578063a9c5afbc14610245578063dafbb22514610277576100b4565b806306c91ce3146100b95780632d58c9a2146100d757806330f32349146100f5578063422ae5bb146101265780635bf56bc41461015857806366da27af14610189575b600080fd5b6100c16102a7565b6040516100ce9190611010565b60405180910390f35b6100df6102ad565b6040516100ec9190611010565b60405180910390f35b61010f600480360381019061010a919061105c565b6102b3565b60405161011d9291906110c3565b60405180910390f35b610140600480360381019061013b91906110ec565b6102d7565b60405161014f93929190611179565b60405180910390f35b610172600480360381019061016d91906111b0565b610308565b6040516101809291906110c3565b60405180910390f35b6101a3600480360381019061019e91906111f0565b61036c565b6040516101b19291906110c3565b60405180910390f35b6101c261038e565b6040516101cf9190611010565b60405180910390f35b6101e0610394565b6040516101ed9190611010565b60405180910390f35b610210600480360381019061020b919061105c565b61039a565b60405161021e9291906110c3565b60405180910390f35b61022f6103be565b60405161023c9190611010565b60405180910390f35b61025f600480360381019061025a91906110ec565b6103c4565b60405161026e93929190611179565b60405180910390f35b610291600480360381019061028c919061105c565b6103f5565b60405161029e919061125e565b60405180910390f35b60025481565b60035481565b6000806102c6868686866000805461042a565b809250819350505094509492505050565b60008060006102e6898761045e565b92506102f4888887876102b3565b809250819350505096509650969350505050565b60008060008061031f60045460025460035461036c565b915091506000806103358860025460035461036c565b9150915060008061034789878761036c565b915091506103578484848461039a565b80985081995050505050505050509250929050565b60008061037e8585856000805461048d565b8092508193505050935093915050565b60045481565b60015481565b6000806103ad86868686600080546104c7565b809250819350505094509492505050565b60005481565b60008060006103d3898761055a565b92506103e18888878761039a565b809250819350505096509650969350505050565b60008060006104048787610308565b91509150818514801561041657508084145b1561042057600192505b5050949350505050565b60008060008061043b88888761056f565b9150915061044d8a8a84848a8a6104c7565b935093505050965096945050505050565b60008060005490508284101561047657838303810391505b8284111561048657808385030691505b5092915050565b60008060008060006104a48a8a8a60018b8b610596565b9250925092506104b683838389610635565b945094505050509550959350505050565b6000806000806000888b0361051d57600086806104e7576104e6611279565b5b898c08036104fe576000809450945050505061054f565b61050c8b8b60018a8a6106ac565b80935081945082955050505061053b565b61052e8b8b60018c8c60018c61086a565b8093508194508295505050505b61054783838389610635565b945094505050505b965096945050505050565b60008060005490508083850891505092915050565b6000808483858561058091906112d7565b61058a919061130b565b91509150935093915050565b60008060008089036105b057878787925092509250610629565b60008990506000806000600190505b6000841461061b57600060018516146105ee576105e18383838f8f8f8e61086a565b8093508194508295505050505b6002846105fb919061133c565b935061060a8c8c8c8c8c6106ac565b809c50819d50829e505050506105bf565b828282965096509650505050505b96509650969350505050565b60008060006106448585610ee9565b90506000848061065757610656611279565b5b82830990506000858061066d5761066c611279565b5b828a0990506000868061068357610682611279565b5b878061069257610691611279565b5b8486098a0990508181955095505050505094509492505050565b60008060008086036106c65787878792509250925061085f565b600084806106d7576106d6611279565b5b898a099050600085806106ed576106ec611279565b5b898a0990506000868061070357610702611279565b5b898a0990506000878061071957610718611279565b5b888061072857610727611279565b5b848e0960040990506000888061074157610740611279565b5b89806107505761074f611279565b5b8a8061075f5761075e611279565b5b8586098c098a8061077357610772611279565b5b87600309089050888061078957610788611279565b5b898061079857610797611279565b5b8384088a6107a691906112d7565b8a806107b5576107b4611279565b5b83840908945088806107ca576107c9611279565b5b89806107d9576107d8611279565b5b8a806107e8576107e7611279565b5b8687096008098a6107f991906112d7565b8a8061080857610807611279565b5b8b8061081757610816611279565b5b888d61082391906112d7565b86088409089350888061083957610838611279565b5b898061084857610847611279565b5b8c8e09600209925084848497509750975050505050505b955095509592505050565b6000806000808a14801561087e5750600089145b1561089157868686925092509250610edc565b6000871480156108a15750600086145b156108b457898989925092509250610edc565b6108bc610fd5565b84806108cb576108ca611279565b5b898a09816000600481106108e2576108e161136d565b5b60200201818152505084806108fa576108f9611279565b5b8160006004811061090e5761090d61136d565b5b60200201518a09816001600481106109295761092861136d565b5b602002018181525050848061094157610940611279565b5b868709816002600481106109585761095761136d565b5b60200201818152505084806109705761096f611279565b5b816002600481106109845761098361136d565b5b602002015187098160036004811061099f5761099e61136d565b5b602002018181525050604051806080016040528086806109c2576109c1611279565b5b836002600481106109d6576109d561136d565b5b60200201518e09815260200186806109f1576109f0611279565b5b83600360048110610a0557610a0461136d565b5b60200201518d0981526020018680610a2057610a1f611279565b5b83600060048110610a3457610a3361136d565b5b60200201518b0981526020018680610a4f57610a4e611279565b5b83600160048110610a6357610a6261136d565b5b60200201518a09815250905080600260048110610a8357610a8261136d565b5b602002015181600060048110610a9c57610a9b61136d565b5b6020020151141580610ade575080600360048110610abd57610abc61136d565b5b602002015181600160048110610ad657610ad561136d565b5b602002015114155b610b1d576040517f08c379a0000000000000000000000000000000000000000000000000000000008152600401610b14906113f9565b60405180910390fd5b610b25610fd5565b8580610b3457610b33611279565b5b82600060048110610b4857610b4761136d565b5b602002015187610b5891906112d7565b83600260048110610b6c57610b6b61136d565b5b60200201510881600060048110610b8657610b8561136d565b5b6020020181815250508580610b9e57610b9d611279565b5b82600160048110610bb257610bb161136d565b5b602002015187610bc291906112d7565b83600360048110610bd657610bd561136d565b5b60200201510881600160048110610bf057610bef61136d565b5b6020020181815250508580610c0857610c07611279565b5b81600060048110610c1c57610c1b61136d565b5b602002015182600060048110610c3557610c3461136d565b5b60200201510981600260048110610c4f57610c4e61136d565b5b6020020181815250508580610c6757610c66611279565b5b81600060048110610c7b57610c7a61136d565b5b602002015182600260048110610c9457610c9361136d565b5b60200201510981600360048110610cae57610cad61136d565b5b60200201818152505060008680610cc857610cc7611279565b5b82600360048110610cdc57610cdb61136d565b5b602002015188610cec91906112d7565b8880610cfb57610cfa611279565b5b84600160048110610d0f57610d0e61136d565b5b602002015185600160048110610d2857610d2761136d565b5b6020020151090890508680610d4057610d3f611279565b5b8780610d4f57610d4e611279565b5b8880610d5e57610d5d611279565b5b84600260048110610d7257610d7161136d565b5b602002015186600060048110610d8b57610d8a61136d565b5b60200201510960020988610d9f91906112d7565b8208905060008780610db457610db3611279565b5b8880610dc357610dc2611279565b5b838a610dcf91906112d7565b8a80610dde57610ddd611279565b5b86600260048110610df257610df161136d565b5b602002015188600060048110610e0b57610e0a61136d565b5b6020020151090884600160048110610e2657610e2561136d565b5b60200201510990508780610e3d57610e3c611279565b5b8880610e4c57610e4b611279565b5b84600360048110610e6057610e5f61136d565b5b602002015186600160048110610e7957610e7861136d565b5b60200201510989610e8a91906112d7565b8208905060008880610e9f57610e9e611279565b5b8980610eae57610ead611279565b5b8b8f0985600060048110610ec557610ec461136d565b5b602002015109905082828297509750975050505050505b9750975097945050505050565b6000808314158015610efb5750818314155b8015610f08575060008214155b610f47576040517f08c379a0000000000000000000000000000000000000000000000000000000008152600401610f3e90611465565b60405180910390fd5b60008060019050600084905060005b60008714610fc8578682610f6a919061133c565b9050828680610f7c57610f7b611279565b5b8780610f8b57610f8a611279565b5b85840988610f9991906112d7565b86088094508195505050868782610fb09190611485565b83610fbb91906112d7565b8098508193505050610f56565b8394505050505092915050565b6040518060800160405280600490602082028036833780820191505090505090565b6000819050919050565b61100a81610ff7565b82525050565b60006020820190506110256000830184611001565b92915050565b600080fd5b61103981610ff7565b811461104457600080fd5b50565b60008135905061105681611030565b92915050565b600080600080608085870312156110765761107561102b565b5b600061108487828801611047565b945050602061109587828801611047565b93505060406110a687828801611047565b92505060606110b787828801611047565b91505092959194509250565b60006040820190506110d86000830185611001565b6110e56020830184611001565b9392505050565b60008060008060008060c087890312156111095761110861102b565b5b600061111789828a01611047565b965050602061112889828a01611047565b955050604061113989828a01611047565b945050606061114a89828a01611047565b935050608061115b89828a01611047565b92505060a061116c89828a01611047565b9150509295509295509295565b600060608201905061118e6000830186611001565b61119b6020830185611001565b6111a86040830184611001565b949350505050565b600080604083850312156111c7576111c661102b565b5b60006111d585828601611047565b92505060206111e685828601611047565b9150509250929050565b6000806000606084860312156112095761120861102b565b5b600061121786828701611047565b935050602061122886828701611047565b925050604061123986828701611047565b9150509250925092565b60008115159050919050565b61125881611243565b82525050565b6000602082019050611273600083018461124f565b92915050565b7f4e487b7100000000000000000000000000000000000000000000000000000000600052601260045260246000fd5b7f4e487b7100000000000000000000000000000000000000000000000000000000600052601160045260246000fd5b60006112e282610ff7565b91506112ed83610ff7565b9250828203905081811115611305576113046112a8565b5b92915050565b600061131682610ff7565b915061132183610ff7565b92508261133157611330611279565b5b828206905092915050565b600061134782610ff7565b915061135283610ff7565b92508261136257611361611279565b5b828204905092915050565b7f4e487b7100000000000000000000000000000000000000000000000000000000600052603260045260246000fd5b600082825260208201905092915050565b7f557365206a6163446f75626c652066756e6374696f6e20696e73746561640000600082015250565b60006113e3601e8361139c565b91506113ee826113ad565b602082019050919050565b60006020820190508181036000830152611412816113d6565b9050919050565b7f496e76616c6964206e756d626572000000000000000000000000000000000000600082015250565b600061144f600e8361139c565b915061145a82611419565b602082019050919050565b6000602082019050818103600083015261147e81611442565b9050919050565b600061149082610ff7565b915061149b83610ff7565b92508282026114a981610ff7565b915082820484148315176114c0576114bf6112a8565b5b509291505056fea2646970667358221220da7f21e261d59adaa27ca2d075cbc08cfdbe267622ce73385cd221e08ab5ab2264736f6c63430008140033","opcodes":"PUSH1 0x80 PUSH1 0x40 MSTORE PUSH32 0xFFFFFFFFFFFFFFFFFFFFFFFFFFFFFFFFFFFFFFFFFFFFFFFFFFFFFFFEFFFFFC2F PUSH1 0x0 SSTORE PUSH32 0xFFFFFFFFFFFFFFFFFFFFFFFFFFFFFFFEBAAEDCE6AF48A03BBFD25E8CD0364141 PUSH1 0x1 SSTORE PUSH32 0x79BE667EF9DCBBAC55A06295CE870B07029BFCDB2DCE28D959F2815B16F81798 PUSH1 0x2 SSTORE PUSH32 0x483ADA7726A3C4655DA4FBFC0E1108A8FD17B448A68554199C47D08FFB10D4B8 PUSH1 0x3 SSTORE CALLVALUE DUP1 ISZERO PUSH2 0xA0 JUMPI PUSH1 0x0 DUP1 REVERT JUMPDEST POP PUSH2 0x14FD DUP1 PUSH2 0xB0 PUSH1 0x0 CODECOPY PUSH1 0x0 RETURN INVALID PUSH1 0x80 PUSH1 0x40 MSTORE CALLVALUE DUP1 ISZERO PUSH2 0x10 JUMPI PUSH1 0x0 DUP1 REVERT JUMPDEST POP PUSH1 0x4 CALLDATASIZE LT PUSH2 0xB4 JUMPI PUSH1 0x0 CALLDATALOAD PUSH1 0xE0 SHR DUP1 PUSH4 0x70A5D861 GT PUSH2 0x71 JUMPI DUP1 PUSH4 0x70A5D861 EQ PUSH2 0x1BA JUMPI DUP1 PUSH4 0x72A4C30F EQ PUSH2 0x1D8 JUMPI DUP1 PUSH4 0x8E833F0D EQ PUSH2 0x1F6 JUMPI DUP1 PUSH4 0x91327EC6 EQ PUSH2 0x227 JUMPI DUP1 PUSH4 0xA9C5AFBC EQ PUSH2 0x245 JUMPI DUP1 PUSH4 0xDAFBB225 EQ PUSH2 0x277 JUMPI PUSH2 0xB4 JUMP JUMPDEST DUP1 PUSH4 0x6C91CE3 EQ PUSH2 0xB9 JUMPI DUP1 PUSH4 0x2D58C9A2 EQ PUSH2 0xD7 JUMPI DUP1 PUSH4 0x30F32349 EQ PUSH2 0xF5 JUMPI DUP1 PUSH4 0x422AE5BB EQ PUSH2 0x126 JUMPI DUP1 PUSH4 0x5BF56BC4 EQ PUSH2 0x158 JUMPI DUP1 PUSH4 0x66DA27AF EQ PUSH2 0x189 JUMPI JUMPDEST PUSH1 0x0 DUP1 REVERT JUMPDEST PUSH2 0xC1 PUSH2 0x2A7 JUMP JUMPDEST PUSH1 0x40 MLOAD PUSH2 0xCE SWAP2 SWAP1 PUSH2 0x1010 JUMP JUMPDEST PUSH1 0x40 MLOAD DUP1 SWAP2 SUB SWAP1 RETURN JUMPDEST PUSH2 0xDF PUSH2 0x2AD JUMP JUMPDEST PUSH1 0x40 MLOAD PUSH2 0xEC SWAP2 SWAP1 PUSH2 0x1010 JUMP JUMPDEST PUSH1 0x40 MLOAD DUP1 SWAP2 SUB SWAP1 RETURN JUMPDEST PUSH2 0x10F PUSH1 0x4 DUP1 CALLDATASIZE SUB DUP2 ADD SWAP1 PUSH2 0x10A SWAP2 SWAP1 PUSH2 0x105C JUMP JUMPDEST PUSH2 0x2B3 JUMP JUMPDEST PUSH1 0x40 MLOAD PUSH2 0x11D SWAP3 SWAP2 SWAP1 PUSH2 0x10C3 JUMP JUMPDEST PUSH1 0x40 MLOAD DUP1 SWAP2 SUB SWAP1 RETURN JUMPDEST PUSH2 0x140 PUSH1 0x4 DUP1 CALLDATASIZE SUB DUP2 ADD SWAP1 PUSH2 0x13B SWAP2 SWAP1 PUSH2 0x10EC JUMP JUMPDEST PUSH2 0x2D7 JUMP JUMPDEST PUSH1 0x40 MLOAD PUSH2 0x14F SWAP4 SWAP3 SWAP2 SWAP1 PUSH2 0x1179 JUMP JUMPDEST PUSH1 0x40 MLOAD DUP1 SWAP2 SUB SWAP1 RETURN JUMPDEST PUSH2 0x172 PUSH1 0x4 DUP1 CALLDATASIZE SUB DUP2 ADD SWAP1 PUSH2 0x16D SWAP2 SWAP1 PUSH2 0x11B0 JUMP JUMPDEST PUSH2 0x308 JUMP JUMPDEST PUSH1 0x40 MLOAD PUSH2 0x180 SWAP3 SWAP2 SWAP1 PUSH2 0x10C3 JUMP JUMPDEST PUSH1 0x40 MLOAD DUP1 SWAP2 SUB SWAP1 RETURN JUMPDEST PUSH2 0x1A3 PUSH1 0x4 DUP1 CALLDATASIZE SUB DUP2 ADD SWAP1 PUSH2 0x19E SWAP2 SWAP1 PUSH2 0x11F0 JUMP JUMPDEST PUSH2 0x36C JUMP JUMPDEST PUSH1 0x40 MLOAD PUSH2 0x1B1 SWAP3 SWAP2 SWAP1 PUSH2 0x10C3 JUMP JUMPDEST PUSH1 0x40 MLOAD DUP1 SWAP2 SUB SWAP1 RETURN JUMPDEST PUSH2 0x1C2 PUSH2 0x38E JUMP JUMPDEST PUSH1 0x40 MLOAD PUSH2 0x1CF SWAP2 SWAP1 PUSH2 0x1010 JUMP JUMPDEST PUSH1 0x40 MLOAD DUP1 SWAP2 SUB SWAP1 RETURN JUMPDEST PUSH2 0x1E0 PUSH2 0x394 JUMP JUMPDEST PUSH1 0x40 MLOAD PUSH2 0x1ED SWAP2 SWAP1 PUSH2 0x1010 JUMP JUMPDEST PUSH1 0x40 MLOAD DUP1 SWAP2 SUB SWAP1 RETURN JUMPDEST PUSH2 0x210 PUSH1 0x4 DUP1 CALLDATASIZE SUB DUP2 ADD SWAP1 PUSH2 0x20B SWAP2 SWAP1 PUSH2 0x105C JUMP JUMPDEST PUSH2 0x39A JUMP JUMPDEST PUSH1 0x40 MLOAD PUSH2 0x21E SWAP3 SWAP2 SWAP1 PUSH2 0x10C3 JUMP JUMPDEST PUSH1 0x40 MLOAD DUP1 SWAP2 SUB SWAP1 RETURN JUMPDEST PUSH2 0x22F PUSH2 0x3BE JUMP JUMPDEST PUSH1 0x40 MLOAD PUSH2 0x23C SWAP2 SWAP1 PUSH2 0x1010 JUMP JUMPDEST PUSH1 0x40 MLOAD DUP1 SWAP2 SUB SWAP1 RETURN JUMPDEST PUSH2 0x25F PUSH1 0x4 DUP1 CALLDATASIZE SUB DUP2 ADD SWAP1 PUSH2 0x25A SWAP2 SWAP1 PUSH2 0x10EC JUMP JUMPDEST PUSH2 0x3C4 JUMP JUMPDEST PUSH1 0x40 MLOAD PUSH2 0x26E SWAP4 SWAP3 SWAP2 SWAP1 PUSH2 0x1179 JUMP JUMPDEST PUSH1 0x40 MLOAD DUP1 SWAP2 SUB SWAP1 RETURN JUMPDEST PUSH2 0x291 PUSH1 0x4 DUP1 CALLDATASIZE SUB DUP2 ADD SWAP1 PUSH2 0x28C SWAP2 SWAP1 PUSH2 0x105C JUMP JUMPDEST PUSH2 0x3F5 JUMP JUMPDEST PUSH1 0x40 MLOAD PUSH2 0x29E SWAP2 SWAP1 PUSH2 0x125E JUMP JUMPDEST PUSH1 0x40 MLOAD DUP1 SWAP2 SUB SWAP1 RETURN JUMPDEST PUSH1 0x2 SLOAD DUP2 JUMP JUMPDEST PUSH1 0x3 SLOAD DUP2 JUMP JUMPDEST PUSH1 0x0 DUP1 PUSH2 0x2C6 DUP7 DUP7 DUP7 DUP7 PUSH1 0x0 DUP1 SLOAD PUSH2 0x42A JUMP JUMPDEST DUP1 SWAP3 POP DUP2 SWAP4 POP POP POP SWAP5 POP SWAP5 SWAP3 POP POP POP JUMP JUMPDEST PUSH1 0x0 DUP1 PUSH1 0x0 PUSH2 0x2E6 DUP10 DUP8 PUSH2 0x45E JUMP JUMPDEST SWAP3 POP PUSH2 0x2F4 DUP9 DUP9 DUP8 DUP8 PUSH2 0x2B3 JUMP JUMPDEST DUP1 SWAP3 POP DUP2 SWAP4 POP POP POP SWAP7 POP SWAP7 POP SWAP7 SWAP4 POP POP POP POP JUMP JUMPDEST PUSH1 0x0 DUP1 PUSH1 0x0 DUP1 PUSH2 0x31F PUSH1 0x4 SLOAD PUSH1 0x2 SLOAD PUSH1 0x3 SLOAD PUSH2 0x36C JUMP JUMPDEST SWAP2 POP SWAP2 POP PUSH1 0x0 DUP1 PUSH2 0x335 DUP9 PUSH1 0x2 SLOAD PUSH1 0x3 SLOAD PUSH2 0x36C JUMP JUMPDEST SWAP2 POP SWAP2 POP PUSH1 0x0 DUP1 PUSH2 0x347 DUP10 DUP8 DUP8 PUSH2 0x36C JUMP JUMPDEST SWAP2 POP SWAP2 POP PUSH2 0x357 DUP5 DUP5 DUP5 DUP5 PUSH2 0x39A JUMP JUMPDEST DUP1 SWAP9 POP DUP2 SWAP10 POP POP POP POP POP POP POP POP POP SWAP3 POP SWAP3 SWAP1 POP JUMP JUMPDEST PUSH1 0x0 DUP1 PUSH2 0x37E DUP6 DUP6 DUP6 PUSH1 0x0 DUP1 SLOAD PUSH2 0x48D JUMP JUMPDEST DUP1 SWAP3 POP DUP2 SWAP4 POP POP POP SWAP4 POP SWAP4 SWAP2 POP POP JUMP JUMPDEST PUSH1 0x4 SLOAD DUP2 JUMP JUMPDEST PUSH1 0x1 SLOAD DUP2 JUMP JUMPDEST PUSH1 0x0 DUP1 PUSH2 0x3AD DUP7 DUP7 DUP7 DUP7 PUSH1 0x0 DUP1 SLOAD PUSH2 0x4C7 JUMP JUMPDEST DUP1 SWAP3 POP DUP2 SWAP4 POP POP POP SWAP5 POP SWAP5 SWAP3 POP POP POP JUMP JUMPDEST PUSH1 0x0 SLOAD DUP2 JUMP JUMPDEST PUSH1 0x0 DUP1 PUSH1 0x0 PUSH2 0x3D3 DUP10 DUP8 PUSH2 0x55A JUMP JUMPDEST SWAP3 POP PUSH2 0x3E1 DUP9 DUP9 DUP8 DUP8 PUSH2 0x39A JUMP JUMPDEST DUP1 SWAP3 POP DUP2 SWAP4 POP POP POP SWAP7 POP SWAP7 POP SWAP7 SWAP4 POP POP POP POP JUMP JUMPDEST PUSH1 0x0 DUP1 PUSH1 0x0 PUSH2 0x404 DUP8 DUP8 PUSH2 0x308 JUMP JUMPDEST SWAP2 POP SWAP2 POP DUP2 DUP6 EQ DUP1 ISZERO PUSH2 0x416 JUMPI POP DUP1 DUP5 EQ JUMPDEST ISZERO PUSH2 0x420 JUMPI PUSH1 0x1 SWAP3 POP JUMPDEST POP POP SWAP5 SWAP4 POP POP POP POP JUMP JUMPDEST PUSH1 0x0 DUP1 PUSH1 0x0 DUP1 PUSH2 0x43B DUP9 DUP9 DUP8 PUSH2 0x56F JUMP JUMPDEST SWAP2 POP SWAP2 POP PUSH2 0x44D DUP11 DUP11 DUP5 DUP5 DUP11 DUP11 PUSH2 0x4C7 JUMP JUMPDEST SWAP4 POP SWAP4 POP POP POP SWAP7 POP SWAP7 SWAP5 POP POP POP POP POP JUMP JUMPDEST PUSH1 0x0 DUP1 PUSH1 0x0 SLOAD SWAP1 POP DUP3 DUP5 LT ISZERO PUSH2 0x476 JUMPI DUP4 DUP4 SUB DUP2 SUB SWAP2 POP JUMPDEST DUP3 DUP5 GT ISZERO PUSH2 0x486 JUMPI DUP1 DUP4 DUP6 SUB MOD SWAP2 POP JUMPDEST POP SWAP3 SWAP2 POP POP JUMP JUMPDEST PUSH1 0x0 DUP1 PUSH1 0x0 DUP1 PUSH1 0x0 PUSH2 0x4A4 DUP11 DUP11 DUP11 PUSH1 0x1 DUP12 DUP12 PUSH2 0x596 JUMP JUMPDEST SWAP3 POP SWAP3 POP SWAP3 POP PUSH2 0x4B6 DUP4 DUP4 DUP4 DUP10 PUSH2 0x635 JUMP JUMPDEST SWAP5 POP SWAP5 POP POP POP POP SWAP6 POP SWAP6 SWAP4 POP POP POP POP JUMP JUMPDEST PUSH1 0x0 DUP1 PUSH1 0x0 DUP1 PUSH1 0x0 DUP9 DUP12 SUB PUSH2 0x51D JUMPI PUSH1 0x0 DUP7 DUP1 PUSH2 0x4E7 JUMPI PUSH2 0x4E6 PUSH2 0x1279 JUMP JUMPDEST JUMPDEST DUP10 DUP13 ADDMOD SUB PUSH2 0x4FE JUMPI PUSH1 0x0 DUP1 SWAP5 POP SWAP5 POP POP POP POP PUSH2 0x54F JUMP JUMPDEST PUSH2 0x50C DUP12 DUP12 PUSH1 0x1 DUP11 DUP11 PUSH2 0x6AC JUMP JUMPDEST DUP1 SWAP4 POP DUP2 SWAP5 POP DUP3 SWAP6 POP POP POP POP PUSH2 0x53B JUMP JUMPDEST PUSH2 0x52E DUP12 DUP12 PUSH1 0x1 DUP13 DUP13 PUSH1 0x1 DUP13 PUSH2 0x86A JUMP JUMPDEST DUP1 SWAP4 POP DUP2 SWAP5 POP DUP3 SWAP6 POP POP POP POP JUMPDEST PUSH2 0x547 DUP4 DUP4 DUP4 DUP10 PUSH2 0x635 JUMP JUMPDEST SWAP5 POP SWAP5 POP POP POP POP JUMPDEST SWAP7 POP SWAP7 SWAP5 POP POP POP POP POP JUMP JUMPDEST PUSH1 0x0 DUP1 PUSH1 0x0 SLOAD SWAP1 POP DUP1 DUP4 DUP6 ADDMOD SWAP2 POP POP SWAP3 SWAP2 POP POP JUMP JUMPDEST PUSH1 0x0 DUP1 DUP5 DUP4 DUP6 DUP6 PUSH2 0x580 SWAP2 SWAP1 PUSH2 0x12D7 JUMP JUMPDEST PUSH2 0x58A SWAP2 SWAP1 PUSH2 0x130B JUMP JUMPDEST SWAP2 POP SWAP2 POP SWAP4 POP SWAP4 SWAP2 POP POP JUMP JUMPDEST PUSH1 0x0 DUP1 PUSH1 0x0 DUP1 DUP10 SUB PUSH2 0x5B0 JUMPI DUP8 DUP8 DUP8 SWAP3 POP SWAP3 POP SWAP3 POP PUSH2 0x629 JUMP JUMPDEST PUSH1 0x0 DUP10 SWAP1 POP PUSH1 0x0 DUP1 PUSH1 0x0 PUSH1 0x1 SWAP1 POP JUMPDEST PUSH1 0x0 DUP5 EQ PUSH2 0x61B JUMPI PUSH1 0x0 PUSH1 0x1 DUP6 AND EQ PUSH2 0x5EE JUMPI PUSH2 0x5E1 DUP4 DUP4 DUP4 DUP16 DUP16 DUP16 DUP15 PUSH2 0x86A JUMP JUMPDEST DUP1 SWAP4 POP DUP2 SWAP5 POP DUP3 SWAP6 POP POP POP POP JUMPDEST PUSH1 0x2 DUP5 PUSH2 0x5FB SWAP2 SWAP1 PUSH2 0x133C JUMP JUMPDEST SWAP4 POP PUSH2 0x60A DUP13 DUP13 DUP13 DUP13 DUP13 PUSH2 0x6AC JUMP JUMPDEST DUP1 SWAP13 POP DUP2 SWAP14 POP DUP3 SWAP15 POP POP POP POP PUSH2 0x5BF JUMP JUMPDEST DUP3 DUP3 DUP3 SWAP7 POP SWAP7 POP SWAP7 POP POP POP POP POP JUMPDEST SWAP7 POP SWAP7 POP SWAP7 SWAP4 POP POP POP POP JUMP JUMPDEST PUSH1 0x0 DUP1 PUSH1 0x0 PUSH2 0x644 DUP6 DUP6 PUSH2 0xEE9 JUMP JUMPDEST SWAP1 POP PUSH1 0x0 DUP5 DUP1 PUSH2 0x657 JUMPI PUSH2 0x656 PUSH2 0x1279 JUMP JUMPDEST JUMPDEST DUP3 DUP4 MULMOD SWAP1 POP PUSH1 0x0 DUP6 DUP1 PUSH2 0x66D JUMPI PUSH2 0x66C PUSH2 0x1279 JUMP JUMPDEST JUMPDEST DUP3 DUP11 MULMOD SWAP1 POP PUSH1 0x0 DUP7 DUP1 PUSH2 0x683 JUMPI PUSH2 0x682 PUSH2 0x1279 JUMP JUMPDEST JUMPDEST DUP8 DUP1 PUSH2 0x692 JUMPI PUSH2 0x691 PUSH2 0x1279 JUMP JUMPDEST JUMPDEST DUP5 DUP7 MULMOD DUP11 MULMOD SWAP1 POP DUP2 DUP2 SWAP6 POP SWAP6 POP POP POP POP POP SWAP5 POP SWAP5 SWAP3 POP POP POP JUMP JUMPDEST PUSH1 0x0 DUP1 PUSH1 0x0 DUP1 DUP7 SUB PUSH2 0x6C6 JUMPI DUP8 DUP8 DUP8 SWAP3 POP SWAP3 POP SWAP3 POP PUSH2 0x85F JUMP JUMPDEST PUSH1 0x0 DUP5 DUP1 PUSH2 0x6D7 JUMPI PUSH2 0x6D6 PUSH2 0x1279 JUMP JUMPDEST JUMPDEST DUP10 DUP11 MULMOD SWAP1 POP PUSH1 0x0 DUP6 DUP1 PUSH2 0x6ED JUMPI PUSH2 0x6EC PUSH2 0x1279 JUMP JUMPDEST JUMPDEST DUP10 DUP11 MULMOD SWAP1 POP PUSH1 0x0 DUP7 DUP1 PUSH2 0x703 JUMPI PUSH2 0x702 PUSH2 0x1279 JUMP JUMPDEST JUMPDEST DUP10 DUP11 MULMOD SWAP1 POP PUSH1 0x0 DUP8 DUP1 PUSH2 0x719 JUMPI PUSH2 0x718 PUSH2 0x1279 JUMP JUMPDEST JUMPDEST DUP9 DUP1 PUSH2 0x728 JUMPI PUSH2 0x727 PUSH2 0x1279 JUMP JUMPDEST JUMPDEST DUP5 DUP15 MULMOD PUSH1 0x4 MULMOD SWAP1 POP PUSH1 0x0 DUP9 DUP1 PUSH2 0x741 JUMPI PUSH2 0x740 PUSH2 0x1279 JUMP JUMPDEST JUMPDEST DUP10 DUP1 PUSH2 0x750 JUMPI PUSH2 0x74F PUSH2 0x1279 JUMP JUMPDEST JUMPDEST DUP11 DUP1 PUSH2 0x75F JUMPI PUSH2 0x75E PUSH2 0x1279 JUMP JUMPDEST JUMPDEST DUP6 DUP7 MULMOD DUP13 MULMOD DUP11 DUP1 PUSH2 0x773 JUMPI PUSH2 0x772 PUSH2 0x1279 JUMP JUMPDEST JUMPDEST DUP8 PUSH1 0x3 MULMOD ADDMOD SWAP1 POP DUP9 DUP1 PUSH2 0x789 JUMPI PUSH2 0x788 PUSH2 0x1279 JUMP JUMPDEST JUMPDEST DUP10 DUP1 PUSH2 0x798 JUMPI PUSH2 0x797 PUSH2 0x1279 JUMP JUMPDEST JUMPDEST DUP4 DUP5 ADDMOD DUP11 PUSH2 0x7A6 SWAP2 SWAP1 PUSH2 0x12D7 JUMP JUMPDEST DUP11 DUP1 PUSH2 0x7B5 JUMPI PUSH2 0x7B4 PUSH2 0x1279 JUMP JUMPDEST JUMPDEST DUP4 DUP5 MULMOD ADDMOD SWAP5 POP DUP9 DUP1 PUSH2 0x7CA JUMPI PUSH2 0x7C9 PUSH2 0x1279 JUMP JUMPDEST JUMPDEST DUP10 DUP1 PUSH2 0x7D9 JUMPI PUSH2 0x7D8 PUSH2 0x1279 JUMP JUMPDEST JUMPDEST DUP11 DUP1 PUSH2 0x7E8 JUMPI PUSH2 0x7E7 PUSH2 0x1279 JUMP JUMPDEST JUMPDEST DUP7 DUP8 MULMOD PUSH1 0x8 MULMOD DUP11 PUSH2 0x7F9 SWAP2 SWAP1 PUSH2 0x12D7 JUMP JUMPDEST DUP11 DUP1 PUSH2 0x808 JUMPI PUSH2 0x807 PUSH2 0x1279 JUMP JUMPDEST JUMPDEST DUP12 DUP1 PUSH2 0x817 JUMPI PUSH2 0x816 PUSH2 0x1279 JUMP JUMPDEST JUMPDEST DUP9 DUP14 PUSH2 0x823 SWAP2 SWAP1 PUSH2 0x12D7 JUMP JUMPDEST DUP7 ADDMOD DUP5 MULMOD ADDMOD SWAP4 POP DUP9 DUP1 PUSH2 0x839 JUMPI PUSH2 0x838 PUSH2 0x1279 JUMP JUMPDEST JUMPDEST DUP10 DUP1 PUSH2 0x848 JUMPI PUSH2 0x847 PUSH2 0x1279 JUMP JUMPDEST JUMPDEST DUP13 DUP15 MULMOD PUSH1 0x2 MULMOD SWAP3 POP DUP5 DUP5 DUP5 SWAP8 POP SWAP8 POP SWAP8 POP POP POP POP POP POP JUMPDEST SWAP6 POP SWAP6 POP SWAP6 SWAP3 POP POP POP JUMP JUMPDEST PUSH1 0x0 DUP1 PUSH1 0x0 DUP1 DUP11 EQ DUP1 ISZERO PUSH2 0x87E JUMPI POP PUSH1 0x0 DUP10 EQ JUMPDEST ISZERO PUSH2 0x891 JUMPI DUP7 DUP7 DUP7 SWAP3 POP SWAP3 POP SWAP3 POP PUSH2 0xEDC JUMP JUMPDEST PUSH1 0x0 DUP8 EQ DUP1 ISZERO PUSH2 0x8A1 JUMPI POP PUSH1 0x0 DUP7 EQ JUMPDEST ISZERO PUSH2 0x8B4 JUMPI DUP10 DUP10 DUP10 SWAP3 POP SWAP3 POP SWAP3 POP PUSH2 0xEDC JUMP JUMPDEST PUSH2 0x8BC PUSH2 0xFD5 JUMP JUMPDEST DUP5 DUP1 PUSH2 0x8CB JUMPI PUSH2 0x8CA PUSH2 0x1279 JUMP JUMPDEST JUMPDEST DUP10 DUP11 MULMOD DUP2 PUSH1 0x0 PUSH1 0x4 DUP2 LT PUSH2 0x8E2 JUMPI PUSH2 0x8E1 PUSH2 0x136D JUMP JUMPDEST JUMPDEST PUSH1 0x20 MUL ADD DUP2 DUP2 MSTORE POP POP DUP5 DUP1 PUSH2 0x8FA JUMPI PUSH2 0x8F9 PUSH2 0x1279 JUMP JUMPDEST JUMPDEST DUP2 PUSH1 0x0 PUSH1 0x4 DUP2 LT PUSH2 0x90E JUMPI PUSH2 0x90D PUSH2 0x136D JUMP JUMPDEST JUMPDEST PUSH1 0x20 MUL ADD MLOAD DUP11 MULMOD DUP2 PUSH1 0x1 PUSH1 0x4 DUP2 LT PUSH2 0x929 JUMPI PUSH2 0x928 PUSH2 0x136D JUMP JUMPDEST JUMPDEST PUSH1 0x20 MUL ADD DUP2 DUP2 MSTORE POP POP DUP5 DUP1 PUSH2 0x941 JUMPI PUSH2 0x940 PUSH2 0x1279 JUMP JUMPDEST JUMPDEST DUP7 DUP8 MULMOD DUP2 PUSH1 0x2 PUSH1 0x4 DUP2 LT PUSH2 0x958 JUMPI PUSH2 0x957 PUSH2 0x136D JUMP JUMPDEST JUMPDEST PUSH1 0x20 MUL ADD DUP2 DUP2 MSTORE POP POP DUP5 DUP1 PUSH2 0x970 JUMPI PUSH2 0x96F PUSH2 0x1279 JUMP JUMPDEST JUMPDEST DUP2 PUSH1 0x2 PUSH1 0x4 DUP2 LT PUSH2 0x984 JUMPI PUSH2 0x983 PUSH2 0x136D JUMP JUMPDEST JUMPDEST PUSH1 0x20 MUL ADD MLOAD DUP8 MULMOD DUP2 PUSH1 0x3 PUSH1 0x4 DUP2 LT PUSH2 0x99F JUMPI PUSH2 0x99E PUSH2 0x136D JUMP JUMPDEST JUMPDEST PUSH1 0x20 MUL ADD DUP2 DUP2 MSTORE POP POP PUSH1 0x40 MLOAD DUP1 PUSH1 0x80 ADD PUSH1 0x40 MSTORE DUP1 DUP7 DUP1 PUSH2 0x9C2 JUMPI PUSH2 0x9C1 PUSH2 0x1279 JUMP JUMPDEST JUMPDEST DUP4 PUSH1 0x2 PUSH1 0x4 DUP2 LT PUSH2 0x9D6 JUMPI PUSH2 0x9D5 PUSH2 0x136D JUMP JUMPDEST JUMPDEST PUSH1 0x20 MUL ADD MLOAD DUP15 MULMOD DUP2 MSTORE PUSH1 0x20 ADD DUP7 DUP1 PUSH2 0x9F1 JUMPI PUSH2 0x9F0 PUSH2 0x1279 JUMP JUMPDEST JUMPDEST DUP4 PUSH1 0x3 PUSH1 0x4 DUP2 LT PUSH2 0xA05 JUMPI PUSH2 0xA04 PUSH2 0x136D JUMP JUMPDEST JUMPDEST PUSH1 0x20 MUL ADD MLOAD DUP14 MULMOD DUP2 MSTORE PUSH1 0x20 ADD DUP7 DUP1 PUSH2 0xA20 JUMPI PUSH2 0xA1F PUSH2 0x1279 JUMP JUMPDEST JUMPDEST DUP4 PUSH1 0x0 PUSH1 0x4 DUP2 LT PUSH2 0xA34 JUMPI PUSH2 0xA33 PUSH2 0x136D JUMP JUMPDEST JUMPDEST PUSH1 0x20 MUL ADD MLOAD DUP12 MULMOD DUP2 MSTORE PUSH1 0x20 ADD DUP7 DUP1 PUSH2 0xA4F JUMPI PUSH2 0xA4E PUSH2 0x1279 JUMP JUMPDEST JUMPDEST DUP4 PUSH1 0x1 PUSH1 0x4 DUP2 LT PUSH2 0xA63 JUMPI PUSH2 0xA62 PUSH2 0x136D JUMP JUMPDEST JUMPDEST PUSH1 0x20 MUL ADD MLOAD DUP11 MULMOD DUP2 MSTORE POP SWAP1 POP DUP1 PUSH1 0x2 PUSH1 0x4 DUP2 LT PUSH2 0xA83 JUMPI PUSH2 0xA82 PUSH2 0x136D JUMP JUMPDEST JUMPDEST PUSH1 0x20 MUL ADD MLOAD DUP2 PUSH1 0x0 PUSH1 0x4 DUP2 LT PUSH2 0xA9C JUMPI PUSH2 0xA9B PUSH2 0x136D JUMP JUMPDEST JUMPDEST PUSH1 0x20 MUL ADD MLOAD EQ ISZERO DUP1 PUSH2 0xADE JUMPI POP DUP1 PUSH1 0x3 PUSH1 0x4 DUP2 LT PUSH2 0xABD JUMPI PUSH2 0xABC PUSH2 0x136D JUMP JUMPDEST JUMPDEST PUSH1 0x20 MUL ADD MLOAD DUP2 PUSH1 0x1 PUSH1 0x4 DUP2 LT PUSH2 0xAD6 JUMPI PUSH2 0xAD5 PUSH2 0x136D JUMP JUMPDEST JUMPDEST PUSH1 0x20 MUL ADD MLOAD EQ ISZERO JUMPDEST PUSH2 0xB1D JUMPI PUSH1 0x40 MLOAD PUSH32 0x8C379A000000000000000000000000000000000000000000000000000000000 DUP2 MSTORE PUSH1 0x4 ADD PUSH2 0xB14 SWAP1 PUSH2 0x13F9 JUMP JUMPDEST PUSH1 0x40 MLOAD DUP1 SWAP2 SUB SWAP1 REVERT JUMPDEST PUSH2 0xB25 PUSH2 0xFD5 JUMP JUMPDEST DUP6 DUP1 PUSH2 0xB34 JUMPI PUSH2 0xB33 PUSH2 0x1279 JUMP JUMPDEST JUMPDEST DUP3 PUSH1 0x0 PUSH1 0x4 DUP2 LT PUSH2 0xB48 JUMPI PUSH2 0xB47 PUSH2 0x136D JUMP JUMPDEST JUMPDEST PUSH1 0x20 MUL ADD MLOAD DUP8 PUSH2 0xB58 SWAP2 SWAP1 PUSH2 0x12D7 JUMP JUMPDEST DUP4 PUSH1 0x2 PUSH1 0x4 DUP2 LT PUSH2 0xB6C JUMPI PUSH2 0xB6B PUSH2 0x136D JUMP JUMPDEST JUMPDEST PUSH1 0x20 MUL ADD MLOAD ADDMOD DUP2 PUSH1 0x0 PUSH1 0x4 DUP2 LT PUSH2 0xB86 JUMPI PUSH2 0xB85 PUSH2 0x136D JUMP JUMPDEST JUMPDEST PUSH1 0x20 MUL ADD DUP2 DUP2 MSTORE POP POP DUP6 DUP1 PUSH2 0xB9E JUMPI PUSH2 0xB9D PUSH2 0x1279 JUMP JUMPDEST JUMPDEST DUP3 PUSH1 0x1 PUSH1 0x4 DUP2 LT PUSH2 0xBB2 JUMPI PUSH2 0xBB1 PUSH2 0x136D JUMP JUMPDEST JUMPDEST PUSH1 0x20 MUL ADD MLOAD DUP8 PUSH2 0xBC2 SWAP2 SWAP1 PUSH2 0x12D7 JUMP JUMPDEST DUP4 PUSH1 0x3 PUSH1 0x4 DUP2 LT PUSH2 0xBD6 JUMPI PUSH2 0xBD5 PUSH2 0x136D JUMP JUMPDEST JUMPDEST PUSH1 0x20 MUL ADD MLOAD ADDMOD DUP2 PUSH1 0x1 PUSH1 0x4 DUP2 LT PUSH2 0xBF0 JUMPI PUSH2 0xBEF PUSH2 0x136D JUMP JUMPDEST JUMPDEST PUSH1 0x20 MUL ADD DUP2 DUP2 MSTORE POP POP DUP6 DUP1 PUSH2 0xC08 JUMPI PUSH2 0xC07 PUSH2 0x1279 JUMP JUMPDEST JUMPDEST DUP2 PUSH1 0x0 PUSH1 0x4 DUP2 LT PUSH2 0xC1C JUMPI PUSH2 0xC1B PUSH2 0x136D JUMP JUMPDEST JUMPDEST PUSH1 0x20 MUL ADD MLOAD DUP3 PUSH1 0x0 PUSH1 0x4 DUP2 LT PUSH2 0xC35 JUMPI PUSH2 0xC34 PUSH2 0x136D JUMP JUMPDEST JUMPDEST PUSH1 0x20 MUL ADD MLOAD MULMOD DUP2 PUSH1 0x2 PUSH1 0x4 DUP2 LT PUSH2 0xC4F JUMPI PUSH2 0xC4E PUSH2 0x136D JUMP JUMPDEST JUMPDEST PUSH1 0x20 MUL ADD DUP2 DUP2 MSTORE POP POP DUP6 DUP1 PUSH2 0xC67 JUMPI PUSH2 0xC66 PUSH2 0x1279 JUMP JUMPDEST JUMPDEST DUP2 PUSH1 0x0 PUSH1 0x4 DUP2 LT PUSH2 0xC7B JUMPI PUSH2 0xC7A PUSH2 0x136D JUMP JUMPDEST JUMPDEST PUSH1 0x20 MUL ADD MLOAD DUP3 PUSH1 0x2 PUSH1 0x4 DUP2 LT PUSH2 0xC94 JUMPI PUSH2 0xC93 PUSH2 0x136D JUMP JUMPDEST JUMPDEST PUSH1 0x20 MUL ADD MLOAD MULMOD DUP2 PUSH1 0x3 PUSH1 0x4 DUP2 LT PUSH2 0xCAE JUMPI PUSH2 0xCAD PUSH2 0x136D JUMP JUMPDEST JUMPDEST PUSH1 0x20 MUL ADD DUP2 DUP2 MSTORE POP POP PUSH1 0x0 DUP7 DUP1 PUSH2 0xCC8 JUMPI PUSH2 0xCC7 PUSH2 0x1279 JUMP JUMPDEST JUMPDEST DUP3 PUSH1 0x3 PUSH1 0x4 DUP2 LT PUSH2 0xCDC JUMPI PUSH2 0xCDB PUSH2 0x136D JUMP JUMPDEST JUMPDEST PUSH1 0x20 MUL ADD MLOAD DUP9 PUSH2 0xCEC SWAP2 SWAP1 PUSH2 0x12D7 JUMP JUMPDEST DUP9 DUP1 PUSH2 0xCFB JUMPI PUSH2 0xCFA PUSH2 0x1279 JUMP JUMPDEST JUMPDEST DUP5 PUSH1 0x1 PUSH1 0x4 DUP2 LT PUSH2 0xD0F JUMPI PUSH2 0xD0E PUSH2 0x136D JUMP JUMPDEST JUMPDEST PUSH1 0x20 MUL ADD MLOAD DUP6 PUSH1 0x1 PUSH1 0x4 DUP2 LT PUSH2 0xD28 JUMPI PUSH2 0xD27 PUSH2 0x136D JUMP JUMPDEST JUMPDEST PUSH1 0x20 MUL ADD MLOAD MULMOD ADDMOD SWAP1 POP DUP7 DUP1 PUSH2 0xD40 JUMPI PUSH2 0xD3F PUSH2 0x1279 JUMP JUMPDEST JUMPDEST DUP8 DUP1 PUSH2 0xD4F JUMPI PUSH2 0xD4E PUSH2 0x1279 JUMP JUMPDEST JUMPDEST DUP9 DUP1 PUSH2 0xD5E JUMPI PUSH2 0xD5D PUSH2 0x1279 JUMP JUMPDEST JUMPDEST DUP5 PUSH1 0x2 PUSH1 0x4 DUP2 LT PUSH2 0xD72 JUMPI PUSH2 0xD71 PUSH2 0x136D JUMP JUMPDEST JUMPDEST PUSH1 0x20 MUL ADD MLOAD DUP7 PUSH1 0x0 PUSH1 0x4 DUP2 LT PUSH2 0xD8B JUMPI PUSH2 0xD8A PUSH2 0x136D JUMP JUMPDEST JUMPDEST PUSH1 0x20 MUL ADD MLOAD MULMOD PUSH1 0x2 MULMOD DUP9 PUSH2 0xD9F SWAP2 SWAP1 PUSH2 0x12D7 JUMP JUMPDEST DUP3 ADDMOD SWAP1 POP PUSH1 0x0 DUP8 DUP1 PUSH2 0xDB4 JUMPI PUSH2 0xDB3 PUSH2 0x1279 JUMP JUMPDEST JUMPDEST DUP9 DUP1 PUSH2 0xDC3 JUMPI PUSH2 0xDC2 PUSH2 0x1279 JUMP JUMPDEST JUMPDEST DUP4 DUP11 PUSH2 0xDCF SWAP2 SWAP1 PUSH2 0x12D7 JUMP JUMPDEST DUP11 DUP1 PUSH2 0xDDE JUMPI PUSH2 0xDDD PUSH2 0x1279 JUMP JUMPDEST JUMPDEST DUP7 PUSH1 0x2 PUSH1 0x4 DUP2 LT PUSH2 0xDF2 JUMPI PUSH2 0xDF1 PUSH2 0x136D JUMP JUMPDEST JUMPDEST PUSH1 0x20 MUL ADD MLOAD DUP9 PUSH1 0x0 PUSH1 0x4 DUP2 LT PUSH2 0xE0B JUMPI PUSH2 0xE0A PUSH2 0x136D JUMP JUMPDEST JUMPDEST PUSH1 0x20 MUL ADD MLOAD MULMOD ADDMOD DUP5 PUSH1 0x1 PUSH1 0x4 DUP2 LT PUSH2 0xE26 JUMPI PUSH2 0xE25 PUSH2 0x136D JUMP JUMPDEST JUMPDEST PUSH1 0x20 MUL ADD MLOAD MULMOD SWAP1 POP DUP8 DUP1 PUSH2 0xE3D JUMPI PUSH2 0xE3C PUSH2 0x1279 JUMP JUMPDEST JUMPDEST DUP9 DUP1 PUSH2 0xE4C JUMPI PUSH2 0xE4B PUSH2 0x1279 JUMP JUMPDEST JUMPDEST DUP5 PUSH1 0x3 PUSH1 0x4 DUP2 LT PUSH2 0xE60 JUMPI PUSH2 0xE5F PUSH2 0x136D JUMP JUMPDEST JUMPDEST PUSH1 0x20 MUL ADD MLOAD DUP7 PUSH1 0x1 PUSH1 0x4 DUP2 LT PUSH2 0xE79 JUMPI PUSH2 0xE78 PUSH2 0x136D JUMP JUMPDEST JUMPDEST PUSH1 0x20 MUL ADD MLOAD MULMOD DUP10 PUSH2 0xE8A SWAP2 SWAP1 PUSH2 0x12D7 JUMP JUMPDEST DUP3 ADDMOD SWAP1 POP PUSH1 0x0 DUP9 DUP1 PUSH2 0xE9F JUMPI PUSH2 0xE9E PUSH2 0x1279 JUMP JUMPDEST JUMPDEST DUP10 DUP1 PUSH2 0xEAE JUMPI PUSH2 0xEAD PUSH2 0x1279 JUMP JUMPDEST JUMPDEST DUP12 DUP16 MULMOD DUP6 PUSH1 0x0 PUSH1 0x4 DUP2 LT PUSH2 0xEC5 JUMPI PUSH2 0xEC4 PUSH2 0x136D JUMP JUMPDEST JUMPDEST PUSH1 0x20 MUL ADD MLOAD MULMOD SWAP1 POP DUP3 DUP3 DUP3 SWAP8 POP SWAP8 POP SWAP8 POP POP POP POP POP POP JUMPDEST SWAP8 POP SWAP8 POP SWAP8 SWAP5 POP POP POP POP POP JUMP JUMPDEST PUSH1 0x0 DUP1 DUP4 EQ ISZERO DUP1 ISZERO PUSH2 0xEFB JUMPI POP DUP2 DUP4 EQ ISZERO JUMPDEST DUP1 ISZERO PUSH2 0xF08 JUMPI POP PUSH1 0x0 DUP3 EQ ISZERO JUMPDEST PUSH2 0xF47 JUMPI PUSH1 0x40 MLOAD PUSH32 0x8C379A000000000000000000000000000000000000000000000000000000000 DUP2 MSTORE PUSH1 0x4 ADD PUSH2 0xF3E SWAP1 PUSH2 0x1465 JUMP JUMPDEST PUSH1 0x40 MLOAD DUP1 SWAP2 SUB SWAP1 REVERT JUMPDEST PUSH1 0x0 DUP1 PUSH1 0x1 SWAP1 POP PUSH1 0x0 DUP5 SWAP1 POP PUSH1 0x0 JUMPDEST PUSH1 0x0 DUP8 EQ PUSH2 0xFC8 JUMPI DUP7 DUP3 PUSH2 0xF6A SWAP2 SWAP1 PUSH2 0x133C JUMP JUMPDEST SWAP1 POP DUP3 DUP7 DUP1 PUSH2 0xF7C JUMPI PUSH2 0xF7B PUSH2 0x1279 JUMP JUMPDEST JUMPDEST DUP8 DUP1 PUSH2 0xF8B JUMPI PUSH2 0xF8A PUSH2 0x1279 JUMP JUMPDEST JUMPDEST DUP6 DUP5 MULMOD DUP9 PUSH2 0xF99 SWAP2 SWAP1 PUSH2 0x12D7 JUMP JUMPDEST DUP7 ADDMOD DUP1 SWAP5 POP DUP2 SWAP6 POP POP POP DUP7 DUP8 DUP3 PUSH2 0xFB0 SWAP2 SWAP1 PUSH2 0x1485 JUMP JUMPDEST DUP4 PUSH2 0xFBB SWAP2 SWAP1 PUSH2 0x12D7 JUMP JUMPDEST DUP1 SWAP9 POP DUP2 SWAP4 POP POP POP PUSH2 0xF56 JUMP JUMPDEST DUP4 SWAP5 POP POP POP POP POP SWAP3 SWAP2 POP POP JUMP JUMPDEST PUSH1 0x40 MLOAD DUP1 PUSH1 0x80 ADD PUSH1 0x40 MSTORE DUP1 PUSH1 0x4 SWAP1 PUSH1 0x20 DUP3 MUL DUP1 CALLDATASIZE DUP4 CALLDATACOPY DUP1 DUP3 ADD SWAP2 POP POP SWAP1 POP POP SWAP1 JUMP JUMPDEST PUSH1 0x0 DUP2 SWAP1 POP SWAP2 SWAP1 POP JUMP JUMPDEST PUSH2 0x100A DUP2 PUSH2 0xFF7 JUMP JUMPDEST DUP3 MSTORE POP POP JUMP JUMPDEST PUSH1 0x0 PUSH1 0x20 DUP3 ADD SWAP1 POP PUSH2 0x1025 PUSH1 0x0 DUP4 ADD DUP5 PUSH2 0x1001 JUMP JUMPDEST SWAP3 SWAP2 POP POP JUMP JUMPDEST PUSH1 0x0 DUP1 REVERT JUMPDEST PUSH2 0x1039 DUP2 PUSH2 0xFF7 JUMP JUMPDEST DUP2 EQ PUSH2 0x1044 JUMPI PUSH1 0x0 DUP1 REVERT JUMPDEST POP JUMP JUMPDEST PUSH1 0x0 DUP2 CALLDATALOAD SWAP1 POP PUSH2 0x1056 DUP2 PUSH2 0x1030 JUMP JUMPDEST SWAP3 SWAP2 POP POP JUMP JUMPDEST PUSH1 0x0 DUP1 PUSH1 0x0 DUP1 PUSH1 0x80 DUP6 DUP8 SUB SLT ISZERO PUSH2 0x1076 JUMPI PUSH2 0x1075 PUSH2 0x102B JUMP JUMPDEST JUMPDEST PUSH1 0x0 PUSH2 0x1084 DUP8 DUP3 DUP9 ADD PUSH2 0x1047 JUMP JUMPDEST SWAP5 POP POP PUSH1 0x20 PUSH2 0x1095 DUP8 DUP3 DUP9 ADD PUSH2 0x1047 JUMP JUMPDEST SWAP4 POP POP PUSH1 0x40 PUSH2 0x10A6 DUP8 DUP3 DUP9 ADD PUSH2 0x1047 JUMP JUMPDEST SWAP3 POP POP PUSH1 0x60 PUSH2 0x10B7 DUP8 DUP3 DUP9 ADD PUSH2 0x1047 JUMP JUMPDEST SWAP2 POP POP SWAP3 SWAP6 SWAP2 SWAP5 POP SWAP3 POP JUMP JUMPDEST PUSH1 0x0 PUSH1 0x40 DUP3 ADD SWAP1 POP PUSH2 0x10D8 PUSH1 0x0 DUP4 ADD DUP6 PUSH2 0x1001 JUMP JUMPDEST PUSH2 0x10E5 PUSH1 0x20 DUP4 ADD DUP5 PUSH2 0x1001 JUMP JUMPDEST SWAP4 SWAP3 POP POP POP JUMP JUMPDEST PUSH1 0x0 DUP1 PUSH1 0x0 DUP1 PUSH1 0x0 DUP1 PUSH1 0xC0 DUP8 DUP10 SUB SLT ISZERO PUSH2 0x1109 JUMPI PUSH2 0x1108 PUSH2 0x102B JUMP JUMPDEST JUMPDEST PUSH1 0x0 PUSH2 0x1117 DUP10 DUP3 DUP11 ADD PUSH2 0x1047 JUMP JUMPDEST SWAP7 POP POP PUSH1 0x20 PUSH2 0x1128 DUP10 DUP3 DUP11 ADD PUSH2 0x1047 JUMP JUMPDEST SWAP6 POP POP PUSH1 0x40 PUSH2 0x1139 DUP10 DUP3 DUP11 ADD PUSH2 0x1047 JUMP JUMPDEST SWAP5 POP POP PUSH1 0x60 PUSH2 0x114A DUP10 DUP3 DUP11 ADD PUSH2 0x1047 JUMP JUMPDEST SWAP4 POP POP PUSH1 0x80 PUSH2 0x115B DUP10 DUP3 DUP11 ADD PUSH2 0x1047 JUMP JUMPDEST SWAP3 POP POP PUSH1 0xA0 PUSH2 0x116C DUP10 DUP3 DUP11 ADD PUSH2 0x1047 JUMP JUMPDEST SWAP2 POP POP SWAP3 SWAP6 POP SWAP3 SWAP6 POP SWAP3 SWAP6 JUMP JUMPDEST PUSH1 0x0 PUSH1 0x60 DUP3 ADD SWAP1 POP PUSH2 0x118E PUSH1 0x0 DUP4 ADD DUP7 PUSH2 0x1001 JUMP JUMPDEST PUSH2 0x119B PUSH1 0x20 DUP4 ADD DUP6 PUSH2 0x1001 JUMP JUMPDEST PUSH2 0x11A8 PUSH1 0x40 DUP4 ADD DUP5 PUSH2 0x1001 JUMP JUMPDEST SWAP5 SWAP4 POP POP POP POP JUMP JUMPDEST PUSH1 0x0 DUP1 PUSH1 0x40 DUP4 DUP6 SUB SLT ISZERO PUSH2 0x11C7 JUMPI PUSH2 0x11C6 PUSH2 0x102B JUMP JUMPDEST JUMPDEST PUSH1 0x0 PUSH2 0x11D5 DUP6 DUP3 DUP7 ADD PUSH2 0x1047 JUMP JUMPDEST SWAP3 POP POP PUSH1 0x20 PUSH2 0x11E6 DUP6 DUP3 DUP7 ADD PUSH2 0x1047 JUMP JUMPDEST SWAP2 POP POP SWAP3 POP SWAP3 SWAP1 POP JUMP JUMPDEST PUSH1 0x0 DUP1 PUSH1 0x0 PUSH1 0x60 DUP5 DUP7 SUB SLT ISZERO PUSH2 0x1209 JUMPI PUSH2 0x1208 PUSH2 0x102B JUMP JUMPDEST JUMPDEST PUSH1 0x0 PUSH2 0x1217 DUP7 DUP3 DUP8 ADD PUSH2 0x1047 JUMP JUMPDEST SWAP4 POP POP PUSH1 0x20 PUSH2 0x1228 DUP7 DUP3 DUP8 ADD PUSH2 0x1047 JUMP JUMPDEST SWAP3 POP POP PUSH1 0x40 PUSH2 0x1239 DUP7 DUP3 DUP8 ADD PUSH2 0x1047 JUMP JUMPDEST SWAP2 POP POP SWAP3 POP SWAP3 POP SWAP3 JUMP JUMPDEST PUSH1 0x0 DUP2 ISZERO ISZERO SWAP1 POP SWAP2 SWAP1 POP JUMP JUMPDEST PUSH2 0x1258 DUP2 PUSH2 0x1243 JUMP JUMPDEST DUP3 MSTORE POP POP JUMP JUMPDEST PUSH1 0x0 PUSH1 0x20 DUP3 ADD SWAP1 POP PUSH2 0x1273 PUSH1 0x0 DUP4 ADD DUP5 PUSH2 0x124F JUMP JUMPDEST SWAP3 SWAP2 POP POP JUMP JUMPDEST PUSH32 0x4E487B7100000000000000000000000000000000000000000000000000000000 PUSH1 0x0 MSTORE PUSH1 0x12 PUSH1 0x4 MSTORE PUSH1 0x24 PUSH1 0x0 REVERT JUMPDEST PUSH32 0x4E487B7100000000000000000000000000000000000000000000000000000000 PUSH1 0x0 MSTORE PUSH1 0x11 PUSH1 0x4 MSTORE PUSH1 0x24 PUSH1 0x0 REVERT JUMPDEST PUSH1 0x0 PUSH2 0x12E2 DUP3 PUSH2 0xFF7 JUMP JUMPDEST SWAP2 POP PUSH2 0x12ED DUP4 PUSH2 0xFF7 JUMP JUMPDEST SWAP3 POP DUP3 DUP3 SUB SWAP1 POP DUP2 DUP2 GT ISZERO PUSH2 0x1305 JUMPI PUSH2 0x1304 PUSH2 0x12A8 JUMP JUMPDEST JUMPDEST SWAP3 SWAP2 POP POP JUMP JUMPDEST PUSH1 0x0 PUSH2 0x1316 DUP3 PUSH2 0xFF7 JUMP JUMPDEST SWAP2 POP PUSH2 0x1321 DUP4 PUSH2 0xFF7 JUMP JUMPDEST SWAP3 POP DUP3 PUSH2 0x1331 JUMPI PUSH2 0x1330 PUSH2 0x1279 JUMP JUMPDEST JUMPDEST DUP3 DUP3 MOD SWAP1 POP SWAP3 SWAP2 POP POP JUMP JUMPDEST PUSH1 0x0 PUSH2 0x1347 DUP3 PUSH2 0xFF7 JUMP JUMPDEST SWAP2 POP PUSH2 0x1352 DUP4 PUSH2 0xFF7 JUMP JUMPDEST SWAP3 POP DUP3 PUSH2 0x1362 JUMPI PUSH2 0x1361 PUSH2 0x1279 JUMP JUMPDEST JUMPDEST DUP3 DUP3 DIV SWAP1 POP SWAP3 SWAP2 POP POP JUMP JUMPDEST PUSH32 0x4E487B7100000000000000000000000000000000000000000000000000000000 PUSH1 0x0 MSTORE PUSH1 0x32 PUSH1 0x4 MSTORE PUSH1 0x24 PUSH1 0x0 REVERT JUMPDEST PUSH1 0x0 DUP3 DUP3 MSTORE PUSH1 0x20 DUP3 ADD SWAP1 POP SWAP3 SWAP2 POP POP JUMP JUMPDEST PUSH32 0x557365206A6163446F75626C652066756E6374696F6E20696E73746561640000 PUSH1 0x0 DUP3 ADD MSTORE POP JUMP JUMPDEST PUSH1 0x0 PUSH2 0x13E3 PUSH1 0x1E DUP4 PUSH2 0x139C JUMP JUMPDEST SWAP2 POP PUSH2 0x13EE DUP3 PUSH2 0x13AD JUMP JUMPDEST PUSH1 0x20 DUP3 ADD SWAP1 POP SWAP2 SWAP1 POP JUMP JUMPDEST PUSH1 0x0 PUSH1 0x20 DUP3 ADD SWAP1 POP DUP2 DUP2 SUB PUSH1 0x0 DUP4 ADD MSTORE PUSH2 0x1412 DUP2 PUSH2 0x13D6 JUMP JUMPDEST SWAP1 POP SWAP2 SWAP1 POP JUMP JUMPDEST PUSH32 0x496E76616C6964206E756D626572000000000000000000000000000000000000 PUSH1 0x0 DUP3 ADD MSTORE POP JUMP JUMPDEST PUSH1 0x0 PUSH2 0x144F PUSH1 0xE DUP4 PUSH2 0x139C JUMP JUMPDEST SWAP2 POP PUSH2 0x145A DUP3 PUSH2 0x1419 JUMP JUMPDEST PUSH1 0x20 DUP3 ADD SWAP1 POP SWAP2 SWAP1 POP JUMP JUMPDEST PUSH1 0x0 PUSH1 0x20 DUP3 ADD SWAP1 POP DUP2 DUP2 SUB PUSH1 0x0 DUP4 ADD MSTORE PUSH2 0x147E DUP2 PUSH2 0x1442 JUMP JUMPDEST SWAP1 POP SWAP2 SWAP1 POP JUMP JUMPDEST PUSH1 0x0 PUSH2 0x1490 DUP3 PUSH2 0xFF7 JUMP JUMPDEST SWAP2 POP PUSH2 0x149B DUP4 PUSH2 0xFF7 JUMP JUMPDEST SWAP3 POP DUP3 DUP3 MUL PUSH2 0x14A9 DUP2 PUSH2 0xFF7 JUMP JUMPDEST SWAP2 POP DUP3 DUP3 DIV DUP5 EQ DUP4 ISZERO OR PUSH2 0x14C0 JUMPI PUSH2 0x14BF PUSH2 0x12A8 JUMP JUMPDEST JUMPDEST POP SWAP3 SWAP2 POP POP JUMP INVALID LOG2 PUSH5 0x6970667358 0x22 SLT KECCAK256 0xDA PUSH32 0x21E261D59ADAA27CA2D075CBC08CFDBE267622CE73385CD221E08AB5AB226473 PUSH16 0x6C634300081400330000000000000000 "},"methodIdentifiers":{"H()":"70a5d861","addCommitment(uint256,uint256,uint256,uint256,uint256,uint256)":"a9c5afbc","commit(uint256,uint256)":"5bf56bc4","eAdd(uint256,uint256,uint256,uint256)":"8e833f0d","eMul(uint256,uint256,uint256)":"66da27af","eSub(uint256,uint256,uint256,uint256)":"30f32349","gx()":"06c91ce3","gy()":"2d58c9a2","nn()":"72a4c30f","pp()":"91327ec6","subCommitment(uint256,uint256,uint256,uint256,uint256,uint256)":"422ae5bb","verify(uint256,uint256,uint256,uint256)":"dafbb225"}}}}}