{"contracts/EllipticCurveParameters.sol":{"EllipticCurveParameters":{"abi":[{"inputs":[{"internalType":"uint256","name":"_x1","type":"uint256"},{"internalType":"uint256","name":"_y1","type":"uint256"},{"internalType":"uint256","name":"_x2","type":"uint256"},{"internalType":"uint256","name":"_y2","type":"uint256"}],"name":"eAdd","outputs":[{"internalType":"uint256","name":"_x3","type":"uint256"},{"internalType":"uint256","name":"_y3","type":"uint256"}],"stateMutability":"view","type":"function"},{"inputs":[{"internalType":"uint256","name":"_z","type":"uint256"},{"internalType":"uint256","name":"_x1","type":"uint256"},{"internalType":"uint256","name":"_y1","type":"uint256"}],"name":"eMul","outputs":[{"internalType":"uint256","name":"_x2","type":"uint256"},{"internalType":"uint256","name":"_y2","type":"uint256"}],"stateMutability":"view","type":"function"},{"inputs":[{"internalType":"uint256","name":"_x1","type":"uint256"},{"internalType":"uint256","name":"_y1","type":"uint256"},{"internalType":"uint256","name":"_x2","type":"uint256"},{"internalType":"uint256","name":"_y2","type":"uint256"}],"name":"eSub","outputs":[{"internalType":"uint256","name":"_x3","type":"uint256"},{"internalType":"uint256","name":"_y3","type":"uint256"}],"stateMutability":"view","type":"function"},{"inputs":[],"name":"gx","outputs":[{"internalType":"uint256","name":"","type":"uint256"}],"stateMutability":"view","type":"function"},{"inputs":[],"name":"gy","outputs":[{"internalType":"uint256","name":"","type":"uint256"}],"stateMutability":"view","type":"function"},{"inputs":[],"name":"nn","outputs":[{"internalType":"uint256","name":"","type":"uint256"}],"stateMutability":"view","type":"function"},{"inputs":[],"name":"pp","outputs":[{"internalType":"uint256","name":"","type":"uint256"}],"stateMutability":"view","type":"function"}],"evm":{"bytecode":{"linkReferences":{},"object":"60806040527ffffffffffffffffffffffffffffffffffffffffffffffffffffffffefffffc2f6000557ffffffffffffffffffffffffffffffffebaaedce6af48a03bbfd25e8cd03641416001557f79be667ef9dcbbac55a06295ce870b07029bfcdb2dce28d959f2815b16f817986002557f483ada7726a3c4655da4fbfc0e1108a8fd17b448a68554199c47d08ffb10d4b86003553480156100a057600080fd5b50611164806100b06000396000f3fe608060405234801561001057600080fd5b506004361061007d5760003560e01c806366da27af1161005b57806366da27af146100ef57806372a4c30f146101205780638e833f0d1461013e57806391327ec61461016f5761007d565b806306c91ce3146100825780632d58c9a2146100a057806330f32349146100be575b600080fd5b61008a61018d565b6040516100979190610db1565b60405180910390f35b6100a8610193565b6040516100b59190610db1565b60405180910390f35b6100d860048036038101906100d39190610dfd565b610199565b6040516100e6929190610e64565b60405180910390f35b61010960048036038101906101049190610e8d565b6101bd565b604051610117929190610e64565b60405180910390f35b6101286101df565b6040516101359190610db1565b60405180910390f35b61015860048036038101906101539190610dfd565b6101e5565b604051610166929190610e64565b60405180910390f35b610177610209565b6040516101849190610db1565b60405180910390f35b60025481565b60035481565b6000806101ac868686866000805461020f565b809250819350505094509492505050565b6000806101cf85858560008054610243565b8092508193505050935093915050565b60015481565b6000806101f8868686866000805461027d565b809250819350505094509492505050565b60005481565b600080600080610220888887610310565b915091506102328a8a84848a8a61027d565b935093505050965096945050505050565b600080600080600061025a8a8a8a60018b8b610337565b92509250925061026c838383896103d6565b945094505050509550959350505050565b6000806000806000888b036102d3576000868061029d5761029c610ee0565b5b898c08036102b45760008094509450505050610305565b6102c28b8b60018a8a61044d565b8093508194508295505050506102f1565b6102e48b8b60018c8c60018c61060b565b8093508194508295505050505b6102fd838383896103d6565b945094505050505b965096945050505050565b600080848385856103219190610f3e565b61032b9190610f72565b91509150935093915050565b6000806000808903610351578787879250925092506103ca565b60008990506000806000600190505b600084146103bc576000600185161461038f576103828383838f8f8f8e61060b565b8093508194508295505050505b60028461039c9190610fa3565b93506103ab8c8c8c8c8c61044d565b809c50819d50829e50505050610360565b828282965096509650505050505b96509650969350505050565b60008060006103e58585610c8a565b9050600084806103f8576103f7610ee0565b5b82830990506000858061040e5761040d610ee0565b5b828a0990506000868061042457610423610ee0565b5b878061043357610432610ee0565b5b8486098a0990508181955095505050505094509492505050565b600080600080860361046757878787925092509250610600565b6000848061047857610477610ee0565b5b898a0990506000858061048e5761048d610ee0565b5b898a099050600086806104a4576104a3610ee0565b5b898a099050600087806104ba576104b9610ee0565b5b88806104c9576104c8610ee0565b5b848e096004099050600088806104e2576104e1610ee0565b5b89806104f1576104f0610ee0565b5b8a80610500576104ff610ee0565b5b8586098c098a8061051457610513610ee0565b5b87600309089050888061052a57610529610ee0565b5b898061053957610538610ee0565b5b8384088a6105479190610f3e565b8a8061055657610555610ee0565b5b838409089450888061056b5761056a610ee0565b5b898061057a57610579610ee0565b5b8a8061058957610588610ee0565b5b8687096008098a61059a9190610f3e565b8a806105a9576105a8610ee0565b5b8b806105b8576105b7610ee0565b5b888d6105c49190610f3e565b8608840908935088806105da576105d9610ee0565b5b89806105e9576105e8610ee0565b5b8c8e09600209925084848497509750975050505050505b955095509592505050565b6000806000808a14801561061f5750600089145b1561063257868686925092509250610c7d565b6000871480156106425750600086145b1561065557898989925092509250610c7d565b61065d610d76565b848061066c5761066b610ee0565b5b898a098160006004811061068357610682610fd4565b5b602002018181525050848061069b5761069a610ee0565b5b816000600481106106af576106ae610fd4565b5b60200201518a09816001600481106106ca576106c9610fd4565b5b60200201818152505084806106e2576106e1610ee0565b5b868709816002600481106106f9576106f8610fd4565b5b602002018181525050848061071157610710610ee0565b5b8160026004811061072557610724610fd4565b5b60200201518709816003600481106107405761073f610fd4565b5b6020020181815250506040518060800160405280868061076357610762610ee0565b5b8360026004811061077757610776610fd4565b5b60200201518e098152602001868061079257610791610ee0565b5b836003600481106107a6576107a5610fd4565b5b60200201518d09815260200186806107c1576107c0610ee0565b5b836000600481106107d5576107d4610fd4565b5b60200201518b09815260200186806107f0576107ef610ee0565b5b8360016004811061080457610803610fd4565b5b60200201518a0981525090508060026004811061082457610823610fd4565b5b60200201518160006004811061083d5761083c610fd4565b5b602002015114158061087f57508060036004811061085e5761085d610fd4565b5b60200201518160016004811061087757610876610fd4565b5b602002015114155b6108be576040517f08c379a00000000000000000000000000000000000000000000000000000000081526004016108b590611060565b60405180910390fd5b6108c6610d76565b85806108d5576108d4610ee0565b5b826000600481106108e9576108e8610fd4565b5b6020020151876108f99190610f3e565b8360026004811061090d5761090c610fd4565b5b6020020151088160006004811061092757610926610fd4565b5b602002018181525050858061093f5761093e610ee0565b5b8260016004811061095357610952610fd4565b5b6020020151876109639190610f3e565b8360036004811061097757610976610fd4565b5b6020020151088160016004811061099157610990610fd4565b5b60200201818152505085806109a9576109a8610ee0565b5b816000600481106109bd576109bc610fd4565b5b6020020151826000600481106109d6576109d5610fd4565b5b602002015109816002600481106109f0576109ef610fd4565b5b6020020181815250508580610a0857610a07610ee0565b5b81600060048110610a1c57610a1b610fd4565b5b602002015182600260048110610a3557610a34610fd4565b5b60200201510981600360048110610a4f57610a4e610fd4565b5b60200201818152505060008680610a6957610a68610ee0565b5b82600360048110610a7d57610a7c610fd4565b5b602002015188610a8d9190610f3e565b8880610a9c57610a9b610ee0565b5b84600160048110610ab057610aaf610fd4565b5b602002015185600160048110610ac957610ac8610fd4565b5b6020020151090890508680610ae157610ae0610ee0565b5b8780610af057610aef610ee0565b5b8880610aff57610afe610ee0565b5b84600260048110610b1357610b12610fd4565b5b602002015186600060048110610b2c57610b2b610fd4565b5b60200201510960020988610b409190610f3e565b8208905060008780610b5557610b54610ee0565b5b8880610b6457610b63610ee0565b5b838a610b709190610f3e565b8a80610b7f57610b7e610ee0565b5b86600260048110610b9357610b92610fd4565b5b602002015188600060048110610bac57610bab610fd4565b5b6020020151090884600160048110610bc757610bc6610fd4565b5b60200201510990508780610bde57610bdd610ee0565b5b8880610bed57610bec610ee0565b5b84600360048110610c0157610c00610fd4565b5b602002015186600160048110610c1a57610c19610fd4565b5b60200201510989610c2b9190610f3e565b8208905060008880610c4057610c3f610ee0565b5b8980610c4f57610c4e610ee0565b5b8b8f0985600060048110610c6657610c65610fd4565b5b602002015109905082828297509750975050505050505b9750975097945050505050565b6000808314158015610c9c5750818314155b8015610ca9575060008214155b610ce8576040517f08c379a0000000000000000000000000000000000000000000000000000000008152600401610cdf906110cc565b60405180910390fd5b60008060019050600084905060005b60008714610d69578682610d0b9190610fa3565b9050828680610d1d57610d1c610ee0565b5b8780610d2c57610d2b610ee0565b5b85840988610d3a9190610f3e565b86088094508195505050868782610d5191906110ec565b83610d5c9190610f3e565b8098508193505050610cf7565b8394505050505092915050565b6040518060800160405280600490602082028036833780820191505090505090565b6000819050919050565b610dab81610d98565b82525050565b6000602082019050610dc66000830184610da2565b92915050565b600080fd5b610dda81610d98565b8114610de557600080fd5b50565b600081359050610df781610dd1565b92915050565b60008060008060808587031215610e1757610e16610dcc565b5b6000610e2587828801610de8565b9450506020610e3687828801610de8565b9350506040610e4787828801610de8565b9250506060610e5887828801610de8565b91505092959194509250565b6000604082019050610e796000830185610da2565b610e866020830184610da2565b9392505050565b600080600060608486031215610ea657610ea5610dcc565b5b6000610eb486828701610de8565b9350506020610ec586828701610de8565b9250506040610ed686828701610de8565b9150509250925092565b7f4e487b7100000000000000000000000000000000000000000000000000000000600052601260045260246000fd5b7f4e487b7100000000000000000000000000000000000000000000000000000000600052601160045260246000fd5b6000610f4982610d98565b9150610f5483610d98565b9250828203905081811115610f6c57610f6b610f0f565b5b92915050565b6000610f7d82610d98565b9150610f8883610d98565b925082610f9857610f97610ee0565b5b828206905092915050565b6000610fae82610d98565b9150610fb983610d98565b925082610fc957610fc8610ee0565b5b828204905092915050565b7f4e487b7100000000000000000000000000000000000000000000000000000000600052603260045260246000fd5b600082825260208201905092915050565b7f557365206a6163446f75626c652066756e6374696f6e20696e73746561640000600082015250565b600061104a601e83611003565b915061105582611014565b602082019050919050565b600060208201905081810360008301526110798161103d565b9050919050565b7f496e76616c6964206e756d626572000000000000000000000000000000000000600082015250565b60006110b6600e83611003565b91506110c182611080565b602082019050919050565b600060208201905081810360008301526110e5816110a9565b9050919050565b60006110f782610d98565b915061110283610d98565b925082820261111081610d98565b9150828204841483151761112757611126610f0f565b5b509291505056fea26469706673582212200b80a254ef3d536276b877365807ee0d0868924a59f13137226c59038f00bf1064736f6c63430008140033","opcodes":"PUSH1 0x80 PUSH1 0x40 MSTORE PUSH32 0xFFFFFFFFFFFFFFFFFFFFFFFFFFFFFFFFFFFFFFFFFFFFFFFFFFFFFFFEFFFFFC2F PUSH1 0x0 SSTORE PUSH32 0xFFFFFFFFFFFFFFFFFFFFFFFFFFFFFFFEBAAEDCE6AF48A03BBFD25E8CD0364141 PUSH1 0x1 SSTORE PUSH32 0x79BE667EF9DCBBAC55A06295CE870B07029BFCDB2DCE28D959F2815B16F81798 PUSH1 0x2 SSTORE PUSH32 0x483ADA7726A3C4655DA4FBFC0E1108A8FD17B448A68554199C47D08FFB10D4B8 PUSH1 0x3 SSTORE CALLVALUE DUP1 ISZERO PUSH2 0xA0 JUMPI PUSH1 0x0 DUP1 REVERT JUMPDEST POP PUSH2 0x1164 DUP1 PUSH2 0xB0 PUSH1 0x0 CODECOPY PUSH1 0x0 RETURN INVALID PUSH1 0x80 PUSH1 0x40 MSTORE CALLVALUE DUP1 ISZERO PUSH2 0x10 JUMPI PUSH1 0x0 DUP1 REVERT JUMPDEST POP PUSH1 0x4 CALLDATASIZE LT PUSH2 0x7D JUMPI PUSH1 0x0 CALLDATALOAD PUSH1 0xE0 SHR DUP1 PUSH4 0x66DA27AF GT PUSH2 0x5B JUMPI DUP1 PUSH4 0x66DA27AF EQ PUSH2 0xEF JUMPI DUP1 PUSH4 0x72A4C30F EQ PUSH2 0x120 JUMPI DUP1 PUSH4 0x8E833F0D EQ PUSH2 0x13E JUMPI DUP1 PUSH4 0x91327EC6 EQ PUSH2 0x16F JUMPI PUSH2 0x7D JUMP JUMPDEST DUP1 PUSH4 0x6C91CE3 EQ PUSH2 0x82 JUMPI DUP1 PUSH4 0x2D58C9A2 EQ PUSH2 0xA0 JUMPI DUP1 PUSH4 0x30F32349 EQ PUSH2 0xBE JUMPI JUMPDEST PUSH1 0x0 DUP1 REVERT JUMPDEST PUSH2 0x8A PUSH2 0x18D JUMP JUMPDEST PUSH1 0x40 MLOAD PUSH2 0x97 SWAP2 SWAP1 PUSH2 0xDB1 JUMP JUMPDEST PUSH1 0x40 MLOAD DUP1 SWAP2 SUB SWAP1 RETURN JUMPDEST PUSH2 0xA8 PUSH2 0x193 JUMP JUMPDEST PUSH1 0x40 MLOAD PUSH2 0xB5 SWAP2 SWAP1 PUSH2 0xDB1 JUMP JUMPDEST PUSH1 0x40 MLOAD DUP1 SWAP2 SUB SWAP1 RETURN JUMPDEST PUSH2 0xD8 PUSH1 0x4 DUP1 CALLDATASIZE SUB DUP2 ADD SWAP1 PUSH2 0xD3 SWAP2 SWAP1 PUSH2 0xDFD JUMP JUMPDEST PUSH2 0x199 JUMP JUMPDEST PUSH1 0x40 MLOAD PUSH2 0xE6 SWAP3 SWAP2 SWAP1 PUSH2 0xE64 JUMP JUMPDEST PUSH1 0x40 MLOAD DUP1 SWAP2 SUB SWAP1 RETURN JUMPDEST PUSH2 0x109 PUSH1 0x4 DUP1 CALLDATASIZE SUB DUP2 ADD SWAP1 PUSH2 0x104 SWAP2 SWAP1 PUSH2 0xE8D JUMP JUMPDEST PUSH2 0x1BD JUMP JUMPDEST PUSH1 0x40 MLOAD PUSH2 0x117 SWAP3 SWAP2 SWAP1 PUSH2 0xE64 JUMP JUMPDEST PUSH1 0x40 MLOAD DUP1 SWAP2 SUB SWAP1 RETURN JUMPDEST PUSH2 0x128 PUSH2 0x1DF JUMP JUMPDEST PUSH1 0x40 MLOAD PUSH2 0x135 SWAP2 SWAP1 PUSH2 0xDB1 JUMP JUMPDEST PUSH1 0x40 MLOAD DUP1 SWAP2 SUB SWAP1 RETURN JUMPDEST PUSH2 0x158 PUSH1 0x4 DUP1 CALLDATASIZE SUB DUP2 ADD SWAP1 PUSH2 0x153 SWAP2 SWAP1 PUSH2 0xDFD JUMP JUMPDEST PUSH2 0x1E5 JUMP JUMPDEST PUSH1 0x40 MLOAD PUSH2 0x166 SWAP3 SWAP2 SWAP1 PUSH2 0xE64 JUMP JUMPDEST PUSH1 0x40 MLOAD DUP1 SWAP2 SUB SWAP1 RETURN JUMPDEST PUSH2 0x177 PUSH2 0x209 JUMP JUMPDEST PUSH1 0x40 MLOAD PUSH2 0x184 SWAP2 SWAP1 PUSH2 0xDB1 JUMP JUMPDEST PUSH1 0x40 MLOAD DUP1 SWAP2 SUB SWAP1 RETURN JUMPDEST PUSH1 0x2 SLOAD DUP2 JUMP JUMPDEST PUSH1 0x3 SLOAD DUP2 JUMP JUMPDEST PUSH1 0x0 DUP1 PUSH2 0x1AC DUP7 DUP7 DUP7 DUP7 PUSH1 0x0 DUP1 SLOAD PUSH2 0x20F JUMP JUMPDEST DUP1 SWAP3 POP DUP2 SWAP4 POP POP POP SWAP5 POP SWAP5 SWAP3 POP POP POP JUMP JUMPDEST PUSH1 0x0 DUP1 PUSH2 0x1CF DUP6 DUP6 DUP6 PUSH1 0x0 DUP1 SLOAD PUSH2 0x243 JUMP JUMPDEST DUP1 SWAP3 POP DUP2 SWAP4 POP POP POP SWAP4 POP SWAP4 SWAP2 POP POP JUMP JUMPDEST PUSH1 0x1 SLOAD DUP2 JUMP JUMPDEST PUSH1 0x0 DUP1 PUSH2 0x1F8 DUP7 DUP7 DUP7 DUP7 PUSH1 0x0 DUP1 SLOAD PUSH2 0x27D JUMP JUMPDEST DUP1 SWAP3 POP DUP2 SWAP4 POP POP POP SWAP5 POP SWAP5 SWAP3 POP POP POP JUMP JUMPDEST PUSH1 0x0 SLOAD DUP2 JUMP JUMPDEST PUSH1 0x0 DUP1 PUSH1 0x0 DUP1 PUSH2 0x220 DUP9 DUP9 DUP8 PUSH2 0x310 JUMP JUMPDEST SWAP2 POP SWAP2 POP PUSH2 0x232 DUP11 DUP11 DUP5 DUP5 DUP11 DUP11 PUSH2 0x27D JUMP JUMPDEST SWAP4 POP SWAP4 POP POP POP SWAP7 POP SWAP7 SWAP5 POP POP POP POP POP JUMP JUMPDEST PUSH1 0x0 DUP1 PUSH1 0x0 DUP1 PUSH1 0x0 PUSH2 0x25A DUP11 DUP11 DUP11 PUSH1 0x1 DUP12 DUP12 PUSH2 0x337 JUMP JUMPDEST SWAP3 POP SWAP3 POP SWAP3 POP PUSH2 0x26C DUP4 DUP4 DUP4 DUP10 PUSH2 0x3D6 JUMP JUMPDEST SWAP5 POP SWAP5 POP POP POP POP SWAP6 POP SWAP6 SWAP4 POP POP POP POP JUMP JUMPDEST PUSH1 0x0 DUP1 PUSH1 0x0 DUP1 PUSH1 0x0 DUP9 DUP12 SUB PUSH2 0x2D3 JUMPI PUSH1 0x0 DUP7 DUP1 PUSH2 0x29D JUMPI PUSH2 0x29C PUSH2 0xEE0 JUMP JUMPDEST JUMPDEST DUP10 DUP13 ADDMOD SUB PUSH2 0x2B4 JUMPI PUSH1 0x0 DUP1 SWAP5 POP SWAP5 POP POP POP POP PUSH2 0x305 JUMP JUMPDEST PUSH2 0x2C2 DUP12 DUP12 PUSH1 0x1 DUP11 DUP11 PUSH2 0x44D JUMP JUMPDEST DUP1 SWAP4 POP DUP2 SWAP5 POP DUP3 SWAP6 POP POP POP POP PUSH2 0x2F1 JUMP JUMPDEST PUSH2 0x2E4 DUP12 DUP12 PUSH1 0x1 DUP13 DUP13 PUSH1 0x1 DUP13 PUSH2 0x60B JUMP JUMPDEST DUP1 SWAP4 POP DUP2 SWAP5 POP DUP3 SWAP6 POP POP POP POP JUMPDEST PUSH2 0x2FD DUP4 DUP4 DUP4 DUP10 PUSH2 0x3D6 JUMP JUMPDEST SWAP5 POP SWAP5 POP POP POP POP JUMPDEST SWAP7 POP SWAP7 SWAP5 POP POP POP POP POP JUMP JUMPDEST PUSH1 0x0 DUP1 DUP5 DUP4 DUP6 DUP6 PUSH2 0x321 SWAP2 SWAP1 PUSH2 0xF3E JUMP JUMPDEST PUSH2 0x32B SWAP2 SWAP1 PUSH2 0xF72 JUMP JUMPDEST SWAP2 POP SWAP2 POP SWAP4 POP SWAP4 SWAP2 POP POP JUMP JUMPDEST PUSH1 0x0 DUP1 PUSH1 0x0 DUP1 DUP10 SUB PUSH2 0x351 JUMPI DUP8 DUP8 DUP8 SWAP3 POP SWAP3 POP SWAP3 POP PUSH2 0x3CA JUMP JUMPDEST PUSH1 0x0 DUP10 SWAP1 POP PUSH1 0x0 DUP1 PUSH1 0x0 PUSH1 0x1 SWAP1 POP JUMPDEST PUSH1 0x0 DUP5 EQ PUSH2 0x3BC JUMPI PUSH1 0x0 PUSH1 0x1 DUP6 AND EQ PUSH2 0x38F JUMPI PUSH2 0x382 DUP4 DUP4 DUP4 DUP16 DUP16 DUP16 DUP15 PUSH2 0x60B JUMP JUMPDEST DUP1 SWAP4 POP DUP2 SWAP5 POP DUP3 SWAP6 POP POP POP POP JUMPDEST PUSH1 0x2 DUP5 PUSH2 0x39C SWAP2 SWAP1 PUSH2 0xFA3 JUMP JUMPDEST SWAP4 POP PUSH2 0x3AB DUP13 DUP13 DUP13 DUP13 DUP13 PUSH2 0x44D JUMP JUMPDEST DUP1 SWAP13 POP DUP2 SWAP14 POP DUP3 SWAP15 POP POP POP POP PUSH2 0x360 JUMP JUMPDEST DUP3 DUP3 DUP3 SWAP7 POP SWAP7 POP SWAP7 POP POP POP POP POP JUMPDEST SWAP7 POP SWAP7 POP SWAP7 SWAP4 POP POP POP POP JUMP JUMPDEST PUSH1 0x0 DUP1 PUSH1 0x0 PUSH2 0x3E5 DUP6 DUP6 PUSH2 0xC8A JUMP JUMPDEST SWAP1 POP PUSH1 0x0 DUP5 DUP1 PUSH2 0x3F8 JUMPI PUSH2 0x3F7 PUSH2 0xEE0 JUMP JUMPDEST JUMPDEST DUP3 DUP4 MULMOD SWAP1 POP PUSH1 0x0 DUP6 DUP1 PUSH2 0x40E JUMPI PUSH2 0x40D PUSH2 0xEE0 JUMP JUMPDEST JUMPDEST DUP3 DUP11 MULMOD SWAP1 POP PUSH1 0x0 DUP7 DUP1 PUSH2 0x424 JUMPI PUSH2 0x423 PUSH2 0xEE0 JUMP JUMPDEST JUMPDEST DUP8 DUP1 PUSH2 0x433 JUMPI PUSH2 0x432 PUSH2 0xEE0 JUMP JUMPDEST JUMPDEST DUP5 DUP7 MULMOD DUP11 MULMOD SWAP1 POP DUP2 DUP2 SWAP6 POP SWAP6 POP POP POP POP POP SWAP5 POP SWAP5 SWAP3 POP POP POP JUMP JUMPDEST PUSH1 0x0 DUP1 PUSH1 0x0 DUP1 DUP7 SUB PUSH2 0x467 JUMPI DUP8 DUP8 DUP8 SWAP3 POP SWAP3 POP SWAP3 POP PUSH2 0x600 JUMP JUMPDEST PUSH1 0x0 DUP5 DUP1 PUSH2 0x478 JUMPI PUSH2 0x477 PUSH2 0xEE0 JUMP JUMPDEST JUMPDEST DUP10 DUP11 MULMOD SWAP1 POP PUSH1 0x0 DUP6 DUP1 PUSH2 0x48E JUMPI PUSH2 0x48D PUSH2 0xEE0 JUMP JUMPDEST JUMPDEST DUP10 DUP11 MULMOD SWAP1 POP PUSH1 0x0 DUP7 DUP1 PUSH2 0x4A4 JUMPI PUSH2 0x4A3 PUSH2 0xEE0 JUMP JUMPDEST JUMPDEST DUP10 DUP11 MULMOD SWAP1 POP PUSH1 0x0 DUP8 DUP1 PUSH2 0x4BA JUMPI PUSH2 0x4B9 PUSH2 0xEE0 JUMP JUMPDEST JUMPDEST DUP9 DUP1 PUSH2 0x4C9 JUMPI PUSH2 0x4C8 PUSH2 0xEE0 JUMP JUMPDEST JUMPDEST DUP5 DUP15 MULMOD PUSH1 0x4 MULMOD SWAP1 POP PUSH1 0x0 DUP9 DUP1 PUSH2 0x4E2 JUMPI PUSH2 0x4E1 PUSH2 0xEE0 JUMP JUMPDEST JUMPDEST DUP10 DUP1 PUSH2 0x4F1 JUMPI PUSH2 0x4F0 PUSH2 0xEE0 JUMP JUMPDEST JUMPDEST DUP11 DUP1 PUSH2 0x500 JUMPI PUSH2 0x4FF PUSH2 0xEE0 JUMP JUMPDEST JUMPDEST DUP6 DUP7 MULMOD DUP13 MULMOD DUP11 DUP1 PUSH2 0x514 JUMPI PUSH2 0x513 PUSH2 0xEE0 JUMP JUMPDEST JUMPDEST DUP8 PUSH1 0x3 MULMOD ADDMOD SWAP1 POP DUP9 DUP1 PUSH2 0x52A JUMPI PUSH2 0x529 PUSH2 0xEE0 JUMP JUMPDEST JUMPDEST DUP10 DUP1 PUSH2 0x539 JUMPI PUSH2 0x538 PUSH2 0xEE0 JUMP JUMPDEST JUMPDEST DUP4 DUP5 ADDMOD DUP11 PUSH2 0x547 SWAP2 SWAP1 PUSH2 0xF3E JUMP JUMPDEST DUP11 DUP1 PUSH2 0x556 JUMPI PUSH2 0x555 PUSH2 0xEE0 JUMP JUMPDEST JUMPDEST DUP4 DUP5 MULMOD ADDMOD SWAP5 POP DUP9 DUP1 PUSH2 0x56B JUMPI PUSH2 0x56A PUSH2 0xEE0 JUMP JUMPDEST JUMPDEST DUP10 DUP1 PUSH2 0x57A JUMPI PUSH2 0x579 PUSH2 0xEE0 JUMP JUMPDEST JUMPDEST DUP11 DUP1 PUSH2 0x589 JUMPI PUSH2 0x588 PUSH2 0xEE0 JUMP JUMPDEST JUMPDEST DUP7 DUP8 MULMOD PUSH1 0x8 MULMOD DUP11 PUSH2 0x59A SWAP2 SWAP1 PUSH2 0xF3E JUMP JUMPDEST DUP11 DUP1 PUSH2 0x5A9 JUMPI PUSH2 0x5A8 PUSH2 0xEE0 JUMP JUMPDEST JUMPDEST DUP12 DUP1 PUSH2 0x5B8 JUMPI PUSH2 0x5B7 PUSH2 0xEE0 JUMP JUMPDEST JUMPDEST DUP9 DUP14 PUSH2 0x5C4 SWAP2 SWAP1 PUSH2 0xF3E JUMP JUMPDEST DUP7 ADDMOD DUP5 MULMOD ADDMOD SWAP4 POP DUP9 DUP1 PUSH2 0x5DA JUMPI PUSH2 0x5D9 PUSH2 0xEE0 JUMP JUMPDEST JUMPDEST DUP10 DUP1 PUSH2 0x5E9 JUMPI PUSH2 0x5E8 PUSH2 0xEE0 JUMP JUMPDEST JUMPDEST DUP13 DUP15 MULMOD PUSH1 0x2 MULMOD SWAP3 POP DUP5 DUP5 DUP5 SWAP8 POP SWAP8 POP SWAP8 POP POP POP POP POP POP JUMPDEST SWAP6 POP SWAP6 POP SWAP6 SWAP3 POP POP POP JUMP JUMPDEST PUSH1 0x0 DUP1 PUSH1 0x0 DUP1 DUP11 EQ DUP1 ISZERO PUSH2 0x61F JUMPI POP PUSH1 0x0 DUP10 EQ JUMPDEST ISZERO PUSH2 0x632 JUMPI DUP7 DUP7 DUP7 SWAP3 POP SWAP3 POP SWAP3 POP PUSH2 0xC7D JUMP JUMPDEST PUSH1 0x0 DUP8 EQ DUP1 ISZERO PUSH2 0x642 JUMPI POP PUSH1 0x0 DUP7 EQ JUMPDEST ISZERO PUSH2 0x655 JUMPI DUP10 DUP10 DUP10 SWAP3 POP SWAP3 POP SWAP3 POP PUSH2 0xC7D JUMP JUMPDEST PUSH2 0x65D PUSH2 0xD76 JUMP JUMPDEST DUP5 DUP1 PUSH2 0x66C JUMPI PUSH2 0x66B PUSH2 0xEE0 JUMP JUMPDEST JUMPDEST DUP10 DUP11 MULMOD DUP2 PUSH1 0x0 PUSH1 0x4 DUP2 LT PUSH2 0x683 JUMPI PUSH2 0x682 PUSH2 0xFD4 JUMP JUMPDEST JUMPDEST PUSH1 0x20 MUL ADD DUP2 DUP2 MSTORE POP POP DUP5 DUP1 PUSH2 0x69B JUMPI PUSH2 0x69A PUSH2 0xEE0 JUMP JUMPDEST JUMPDEST DUP2 PUSH1 0x0 PUSH1 0x4 DUP2 LT PUSH2 0x6AF JUMPI PUSH2 0x6AE PUSH2 0xFD4 JUMP JUMPDEST JUMPDEST PUSH1 0x20 MUL ADD MLOAD DUP11 MULMOD DUP2 PUSH1 0x1 PUSH1 0x4 DUP2 LT PUSH2 0x6CA JUMPI PUSH2 0x6C9 PUSH2 0xFD4 JUMP JUMPDEST JUMPDEST PUSH1 0x20 MUL ADD DUP2 DUP2 MSTORE POP POP DUP5 DUP1 PUSH2 0x6E2 JUMPI PUSH2 0x6E1 PUSH2 0xEE0 JUMP JUMPDEST JUMPDEST DUP7 DUP8 MULMOD DUP2 PUSH1 0x2 PUSH1 0x4 DUP2 LT PUSH2 0x6F9 JUMPI PUSH2 0x6F8 PUSH2 0xFD4 JUMP JUMPDEST JUMPDEST PUSH1 0x20 MUL ADD DUP2 DUP2 MSTORE POP POP DUP5 DUP1 PUSH2 0x711 JUMPI PUSH2 0x710 PUSH2 0xEE0 JUMP JUMPDEST JUMPDEST DUP2 PUSH1 0x2 PUSH1 0x4 DUP2 LT PUSH2 0x725 JUMPI PUSH2 0x724 PUSH2 0xFD4 JUMP JUMPDEST JUMPDEST PUSH1 0x20 MUL ADD MLOAD DUP8 MULMOD DUP2 PUSH1 0x3 PUSH1 0x4 DUP2 LT PUSH2 0x740 JUMPI PUSH2 0x73F PUSH2 0xFD4 JUMP JUMPDEST JUMPDEST PUSH1 0x20 MUL ADD DUP2 DUP2 MSTORE POP POP PUSH1 0x40 MLOAD DUP1 PUSH1 0x80 ADD PUSH1 0x40 MSTORE DUP1 DUP7 DUP1 PUSH2 0x763 JUMPI PUSH2 0x762 PUSH2 0xEE0 JUMP JUMPDEST JUMPDEST DUP4 PUSH1 0x2 PUSH1 0x4 DUP2 LT PUSH2 0x777 JUMPI PUSH2 0x776 PUSH2 0xFD4 JUMP JUMPDEST JUMPDEST PUSH1 0x20 MUL ADD MLOAD DUP15 MULMOD DUP2 MSTORE PUSH1 0x20 ADD DUP7 DUP1 PUSH2 0x792 JUMPI PUSH2 0x791 PUSH2 0xEE0 JUMP JUMPDEST JUMPDEST DUP4 PUSH1 0x3 PUSH1 0x4 DUP2 LT PUSH2 0x7A6 JUMPI PUSH2 0x7A5 PUSH2 0xFD4 JUMP JUMPDEST JUMPDEST PUSH1 0x20 MUL ADD MLOAD DUP14 MULMOD DUP2 MSTORE PUSH1 0x20 ADD DUP7 DUP1 PUSH2 0x7C1 JUMPI PUSH2 0x7C0 PUSH2 0xEE0 JUMP JUMPDEST JUMPDEST DUP4 PUSH1 0x0 PUSH1 0x4 DUP2 LT PUSH2 0x7D5 JUMPI PUSH2 0x7D4 PUSH2 0xFD4 JUMP JUMPDEST JUMPDEST PUSH1 0x20 MUL ADD MLOAD DUP12 MULMOD DUP2 MSTORE PUSH1 0x20 ADD DUP7 DUP1 PUSH2 0x7F0 JUMPI PUSH2 0x7EF PUSH2 0xEE0 JUMP JUMPDEST JUMPDEST DUP4 PUSH1 0x1 PUSH1 0x4 DUP2 LT PUSH2 0x804 JUMPI PUSH2 0x803 PUSH2 0xFD4 JUMP JUMPDEST JUMPDEST PUSH1 0x20 MUL ADD MLOAD DUP11 MULMOD DUP2 MSTORE POP SWAP1 POP DUP1 PUSH1 0x2 PUSH1 0x4 DUP2 LT PUSH2 0x824 JUMPI PUSH2 0x823 PUSH2 0xFD4 JUMP JUMPDEST JUMPDEST PUSH1 0x20 MUL ADD MLOAD DUP2 PUSH1 0x0 PUSH1 0x4 DUP2 LT PUSH2 0x83D JUMPI PUSH2 0x83C PUSH2 0xFD4 JUMP JUMPDEST JUMPDEST PUSH1 0x20 MUL ADD MLOAD EQ ISZERO DUP1 PUSH2 0x87F JUMPI POP DUP1 PUSH1 0x3 PUSH1 0x4 DUP2 LT PUSH2 0x85E JUMPI PUSH2 0x85D PUSH2 0xFD4 JUMP JUMPDEST JUMPDEST PUSH1 0x20 MUL ADD MLOAD DUP2 PUSH1 0x1 PUSH1 0x4 DUP2 LT PUSH2 0x877 JUMPI PUSH2 0x876 PUSH2 0xFD4 JUMP JUMPDEST JUMPDEST PUSH1 0x20 MUL ADD MLOAD EQ ISZERO JUMPDEST PUSH2 0x8BE JUMPI PUSH1 0x40 MLOAD PUSH32 0x8C379A000000000000000000000000000000000000000000000000000000000 DUP2 MSTORE PUSH1 0x4 ADD PUSH2 0x8B5 SWAP1 PUSH2 0x1060 JUMP JUMPDEST PUSH1 0x40 MLOAD DUP1 SWAP2 SUB SWAP1 REVERT JUMPDEST PUSH2 0x8C6 PUSH2 0xD76 JUMP JUMPDEST DUP6 DUP1 PUSH2 0x8D5 JUMPI PUSH2 0x8D4 PUSH2 0xEE0 JUMP JUMPDEST JUMPDEST DUP3 PUSH1 0x0 PUSH1 0x4 DUP2 LT PUSH2 0x8E9 JUMPI PUSH2 0x8E8 PUSH2 0xFD4 JUMP JUMPDEST JUMPDEST PUSH1 0x20 MUL ADD MLOAD DUP8 PUSH2 0x8F9 SWAP2 SWAP1 PUSH2 0xF3E JUMP JUMPDEST DUP4 PUSH1 0x2 PUSH1 0x4 DUP2 LT PUSH2 0x90D JUMPI PUSH2 0x90C PUSH2 0xFD4 JUMP JUMPDEST JUMPDEST PUSH1 0x20 MUL ADD MLOAD ADDMOD DUP2 PUSH1 0x0 PUSH1 0x4 DUP2 LT PUSH2 0x927 JUMPI PUSH2 0x926 PUSH2 0xFD4 JUMP JUMPDEST JUMPDEST PUSH1 0x20 MUL ADD DUP2 DUP2 MSTORE POP POP DUP6 DUP1 PUSH2 0x93F JUMPI PUSH2 0x93E PUSH2 0xEE0 JUMP JUMPDEST JUMPDEST DUP3 PUSH1 0x1 PUSH1 0x4 DUP2 LT PUSH2 0x953 JUMPI PUSH2 0x952 PUSH2 0xFD4 JUMP JUMPDEST JUMPDEST PUSH1 0x20 MUL ADD MLOAD DUP8 PUSH2 0x963 SWAP2 SWAP1 PUSH2 0xF3E JUMP JUMPDEST DUP4 PUSH1 0x3 PUSH1 0x4 DUP2 LT PUSH2 0x977 JUMPI PUSH2 0x976 PUSH2 0xFD4 JUMP JUMPDEST JUMPDEST PUSH1 0x20 MUL ADD MLOAD ADDMOD DUP2 PUSH1 0x1 PUSH1 0x4 DUP2 LT PUSH2 0x991 JUMPI PUSH2 0x990 PUSH2 0xFD4 JUMP JUMPDEST JUMPDEST PUSH1 0x20 MUL ADD DUP2 DUP2 MSTORE POP POP DUP6 DUP1 PUSH2 0x9A9 JUMPI PUSH2 0x9A8 PUSH2 0xEE0 JUMP JUMPDEST JUMPDEST DUP2 PUSH1 0x0 PUSH1 0x4 DUP2 LT PUSH2 0x9BD JUMPI PUSH2 0x9BC PUSH2 0xFD4 JUMP JUMPDEST JUMPDEST PUSH1 0x20 MUL ADD MLOAD DUP3 PUSH1 0x0 PUSH1 0x4 DUP2 LT PUSH2 0x9D6 JUMPI PUSH2 0x9D5 PUSH2 0xFD4 JUMP JUMPDEST JUMPDEST PUSH1 0x20 MUL ADD MLOAD MULMOD DUP2 PUSH1 0x2 PUSH1 0x4 DUP2 LT PUSH2 0x9F0 JUMPI PUSH2 0x9EF PUSH2 0xFD4 JUMP JUMPDEST JUMPDEST PUSH1 0x20 MUL ADD DUP2 DUP2 MSTORE POP POP DUP6 DUP1 PUSH2 0xA08 JUMPI PUSH2 0xA07 PUSH2 0xEE0 JUMP JUMPDEST JUMPDEST DUP2 PUSH1 0x0 PUSH1 0x4 DUP2 LT PUSH2 0xA1C JUMPI PUSH2 0xA1B PUSH2 0xFD4 JUMP JUMPDEST JUMPDEST PUSH1 0x20 MUL ADD MLOAD DUP3 PUSH1 0x2 PUSH1 0x4 DUP2 LT PUSH2 0xA35 JUMPI PUSH2 0xA34 PUSH2 0xFD4 JUMP JUMPDEST JUMPDEST PUSH1 0x20 MUL ADD MLOAD MULMOD DUP2 PUSH1 0x3 PUSH1 0x4 DUP2 LT PUSH2 0xA4F JUMPI PUSH2 0xA4E PUSH2 0xFD4 JUMP JUMPDEST JUMPDEST PUSH1 0x20 MUL ADD DUP2 DUP2 MSTORE POP POP PUSH1 0x0 DUP7 DUP1 PUSH2 0xA69 JUMPI PUSH2 0xA68 PUSH2 0xEE0 JUMP JUMPDEST JUMPDEST DUP3 PUSH1 0x3 PUSH1 0x4 DUP2 LT PUSH2 0xA7D JUMPI PUSH2 0xA7C PUSH2 0xFD4 JUMP JUMPDEST JUMPDEST PUSH1 0x20 MUL ADD MLOAD DUP9 PUSH2 0xA8D SWAP2 SWAP1 PUSH2 0xF3E JUMP JUMPDEST DUP9 DUP1 PUSH2 0xA9C JUMPI PUSH2 0xA9B PUSH2 0xEE0 JUMP JUMPDEST JUMPDEST DUP5 PUSH1 0x1 PUSH1 0x4 DUP2 LT PUSH2 0xAB0 JUMPI PUSH2 0xAAF PUSH2 0xFD4 JUMP JUMPDEST JUMPDEST PUSH1 0x20 MUL ADD MLOAD DUP6 PUSH1 0x1 PUSH1 0x4 DUP2 LT PUSH2 0xAC9 JUMPI PUSH2 0xAC8 PUSH2 0xFD4 JUMP JUMPDEST JUMPDEST PUSH1 0x20 MUL ADD MLOAD MULMOD ADDMOD SWAP1 POP DUP7 DUP1 PUSH2 0xAE1 JUMPI PUSH2 0xAE0 PUSH2 0xEE0 JUMP JUMPDEST JUMPDEST DUP8 DUP1 PUSH2 0xAF0 JUMPI PUSH2 0xAEF PUSH2 0xEE0 JUMP JUMPDEST JUMPDEST DUP9 DUP1 PUSH2 0xAFF JUMPI PUSH2 0xAFE PUSH2 0xEE0 JUMP JUMPDEST JUMPDEST DUP5 PUSH1 0x2 PUSH1 0x4 DUP2 LT PUSH2 0xB13 JUMPI PUSH2 0xB12 PUSH2 0xFD4 JUMP JUMPDEST JUMPDEST PUSH1 0x20 MUL ADD MLOAD DUP7 PUSH1 0x0 PUSH1 0x4 DUP2 LT PUSH2 0xB2C JUMPI PUSH2 0xB2B PUSH2 0xFD4 JUMP JUMPDEST JUMPDEST PUSH1 0x20 MUL ADD MLOAD MULMOD PUSH1 0x2 MULMOD DUP9 PUSH2 0xB40 SWAP2 SWAP1 PUSH2 0xF3E JUMP JUMPDEST DUP3 ADDMOD SWAP1 POP PUSH1 0x0 DUP8 DUP1 PUSH2 0xB55 JUMPI PUSH2 0xB54 PUSH2 0xEE0 JUMP JUMPDEST JUMPDEST DUP9 DUP1 PUSH2 0xB64 JUMPI PUSH2 0xB63 PUSH2 0xEE0 JUMP JUMPDEST JUMPDEST DUP4 DUP11 PUSH2 0xB70 SWAP2 SWAP1 PUSH2 0xF3E JUMP JUMPDEST DUP11 DUP1 PUSH2 0xB7F JUMPI PUSH2 0xB7E PUSH2 0xEE0 JUMP JUMPDEST JUMPDEST DUP7 PUSH1 0x2 PUSH1 0x4 DUP2 LT PUSH2 0xB93 JUMPI PUSH2 0xB92 PUSH2 0xFD4 JUMP JUMPDEST JUMPDEST PUSH1 0x20 MUL ADD MLOAD DUP9 PUSH1 0x0 PUSH1 0x4 DUP2 LT PUSH2 0xBAC JUMPI PUSH2 0xBAB PUSH2 0xFD4 JUMP JUMPDEST JUMPDEST PUSH1 0x20 MUL ADD MLOAD MULMOD ADDMOD DUP5 PUSH1 0x1 PUSH1 0x4 DUP2 LT PUSH2 0xBC7 JUMPI PUSH2 0xBC6 PUSH2 0xFD4 JUMP JUMPDEST JUMPDEST PUSH1 0x20 MUL ADD MLOAD MULMOD SWAP1 POP DUP8 DUP1 PUSH2 0xBDE JUMPI PUSH2 0xBDD PUSH2 0xEE0 JUMP JUMPDEST JUMPDEST DUP9 DUP1 PUSH2 0xBED JUMPI PUSH2 0xBEC PUSH2 0xEE0 JUMP JUMPDEST JUMPDEST DUP5 PUSH1 0x3 PUSH1 0x4 DUP2 LT PUSH2 0xC01 JUMPI PUSH2 0xC00 PUSH2 0xFD4 JUMP JUMPDEST JUMPDEST PUSH1 0x20 MUL ADD MLOAD DUP7 PUSH1 0x1 PUSH1 0x4 DUP2 LT PUSH2 0xC1A JUMPI PUSH2 0xC19 PUSH2 0xFD4 JUMP JUMPDEST JUMPDEST PUSH1 0x20 MUL ADD MLOAD MULMOD DUP10 PUSH2 0xC2B SWAP2 SWAP1 PUSH2 0xF3E JUMP JUMPDEST DUP3 ADDMOD SWAP1 POP PUSH1 0x0 DUP9 DUP1 PUSH2 0xC40 JUMPI PUSH2 0xC3F PUSH2 0xEE0 JUMP JUMPDEST JUMPDEST DUP10 DUP1 PUSH2 0xC4F JUMPI PUSH2 0xC4E PUSH2 0xEE0 JUMP JUMPDEST JUMPDEST DUP12 DUP16 MULMOD DUP6 PUSH1 0x0 PUSH1 0x4 DUP2 LT PUSH2 0xC66 JUMPI PUSH2 0xC65 PUSH2 0xFD4 JUMP JUMPDEST JUMPDEST PUSH1 0x20 MUL ADD MLOAD MULMOD SWAP1 POP DUP3 DUP3 DUP3 SWAP8 POP SWAP8 POP SWAP8 POP POP POP POP POP POP JUMPDEST SWAP8 POP SWAP8 POP SWAP8 SWAP5 POP POP POP POP POP JUMP JUMPDEST PUSH1 0x0 DUP1 DUP4 EQ ISZERO DUP1 ISZERO PUSH2 0xC9C JUMPI POP DUP2 DUP4 EQ ISZERO JUMPDEST DUP1 ISZERO PUSH2 0xCA9 JUMPI POP PUSH1 0x0 DUP3 EQ ISZERO JUMPDEST PUSH2 0xCE8 JUMPI PUSH1 0x40 MLOAD PUSH32 0x8C379A000000000000000000000000000000000000000000000000000000000 DUP2 MSTORE PUSH1 0x4 ADD PUSH2 0xCDF SWAP1 PUSH2 0x10CC JUMP JUMPDEST PUSH1 0x40 MLOAD DUP1 SWAP2 SUB SWAP1 REVERT JUMPDEST PUSH1 0x0 DUP1 PUSH1 0x1 SWAP1 POP PUSH1 0x0 DUP5 SWAP1 POP PUSH1 0x0 JUMPDEST PUSH1 0x0 DUP8 EQ PUSH2 0xD69 JUMPI DUP7 DUP3 PUSH2 0xD0B SWAP2 SWAP1 PUSH2 0xFA3 JUMP JUMPDEST SWAP1 POP DUP3 DUP7 DUP1 PUSH2 0xD1D JUMPI PUSH2 0xD1C PUSH2 0xEE0 JUMP JUMPDEST JUMPDEST DUP8 DUP1 PUSH2 0xD2C JUMPI PUSH2 0xD2B PUSH2 0xEE0 JUMP JUMPDEST JUMPDEST DUP6 DUP5 MULMOD DUP9 PUSH2 0xD3A SWAP2 SWAP1 PUSH2 0xF3E JUMP JUMPDEST DUP7 ADDMOD DUP1 SWAP5 POP DUP2 SWAP6 POP POP POP DUP7 DUP8 DUP3 PUSH2 0xD51 SWAP2 SWAP1 PUSH2 0x10EC JUMP JUMPDEST DUP4 PUSH2 0xD5C SWAP2 SWAP1 PUSH2 0xF3E JUMP JUMPDEST DUP1 SWAP9 POP DUP2 SWAP4 POP POP POP PUSH2 0xCF7 JUMP JUMPDEST DUP4 SWAP5 POP POP POP POP POP SWAP3 SWAP2 POP POP JUMP JUMPDEST PUSH1 0x40 MLOAD DUP1 PUSH1 0x80 ADD PUSH1 0x40 MSTORE DUP1 PUSH1 0x4 SWAP1 PUSH1 0x20 DUP3 MUL DUP1 CALLDATASIZE DUP4 CALLDATACOPY DUP1 DUP3 ADD SWAP2 POP POP SWAP1 POP POP SWAP1 JUMP JUMPDEST PUSH1 0x0 DUP2 SWAP1 POP SWAP2 SWAP1 POP JUMP JUMPDEST PUSH2 0xDAB DUP2 PUSH2 0xD98 JUMP JUMPDEST DUP3 MSTORE POP POP JUMP JUMPDEST PUSH1 0x0 PUSH1 0x20 DUP3 ADD SWAP1 POP PUSH2 0xDC6 PUSH1 0x0 DUP4 ADD DUP5 PUSH2 0xDA2 JUMP JUMPDEST SWAP3 SWAP2 POP POP JUMP JUMPDEST PUSH1 0x0 DUP1 REVERT JUMPDEST PUSH2 0xDDA DUP2 PUSH2 0xD98 JUMP JUMPDEST DUP2 EQ PUSH2 0xDE5 JUMPI PUSH1 0x0 DUP1 REVERT JUMPDEST POP JUMP JUMPDEST PUSH1 0x0 DUP2 CALLDATALOAD SWAP1 POP PUSH2 0xDF7 DUP2 PUSH2 0xDD1 JUMP JUMPDEST SWAP3 SWAP2 POP POP JUMP JUMPDEST PUSH1 0x0 DUP1 PUSH1 0x0 DUP1 PUSH1 0x80 DUP6 DUP8 SUB SLT ISZERO PUSH2 0xE17 JUMPI PUSH2 0xE16 PUSH2 0xDCC JUMP JUMPDEST JUMPDEST PUSH1 0x0 PUSH2 0xE25 DUP8 DUP3 DUP9 ADD PUSH2 0xDE8 JUMP JUMPDEST SWAP5 POP POP PUSH1 0x20 PUSH2 0xE36 DUP8 DUP3 DUP9 ADD PUSH2 0xDE8 JUMP JUMPDEST SWAP4 POP POP PUSH1 0x40 PUSH2 0xE47 DUP8 DUP3 DUP9 ADD PUSH2 0xDE8 JUMP JUMPDEST SWAP3 POP POP PUSH1 0x60 PUSH2 0xE58 DUP8 DUP3 DUP9 ADD PUSH2 0xDE8 JUMP JUMPDEST SWAP2 POP POP SWAP3 SWAP6 SWAP2 SWAP5 POP SWAP3 POP JUMP JUMPDEST PUSH1 0x0 PUSH1 0x40 DUP3 ADD SWAP1 POP PUSH2 0xE79 PUSH1 0x0 DUP4 ADD DUP6 PUSH2 0xDA2 JUMP JUMPDEST PUSH2 0xE86 PUSH1 0x20 DUP4 ADD DUP5 PUSH2 0xDA2 JUMP JUMPDEST SWAP4 SWAP3 POP POP POP JUMP JUMPDEST PUSH1 0x0 DUP1 PUSH1 0x0 PUSH1 0x60 DUP5 DUP7 SUB SLT ISZERO PUSH2 0xEA6 JUMPI PUSH2 0xEA5 PUSH2 0xDCC JUMP JUMPDEST JUMPDEST PUSH1 0x0 PUSH2 0xEB4 DUP7 DUP3 DUP8 ADD PUSH2 0xDE8 JUMP JUMPDEST SWAP4 POP POP PUSH1 0x20 PUSH2 0xEC5 DUP7 DUP3 DUP8 ADD PUSH2 0xDE8 JUMP JUMPDEST SWAP3 POP POP PUSH1 0x40 PUSH2 0xED6 DUP7 DUP3 DUP8 ADD PUSH2 0xDE8 JUMP JUMPDEST SWAP2 POP POP SWAP3 POP SWAP3 POP SWAP3 JUMP JUMPDEST PUSH32 0x4E487B7100000000000000000000000000000000000000000000000000000000 PUSH1 0x0 MSTORE PUSH1 0x12 PUSH1 0x4 MSTORE PUSH1 0x24 PUSH1 0x0 REVERT JUMPDEST PUSH32 0x4E487B7100000000000000000000000000000000000000000000000000000000 PUSH1 0x0 MSTORE PUSH1 0x11 PUSH1 0x4 MSTORE PUSH1 0x24 PUSH1 0x0 REVERT JUMPDEST PUSH1 0x0 PUSH2 0xF49 DUP3 PUSH2 0xD98 JUMP JUMPDEST SWAP2 POP PUSH2 0xF54 DUP4 PUSH2 0xD98 JUMP JUMPDEST SWAP3 POP DUP3 DUP3 SUB SWAP1 POP DUP2 DUP2 GT ISZERO PUSH2 0xF6C JUMPI PUSH2 0xF6B PUSH2 0xF0F JUMP JUMPDEST JUMPDEST SWAP3 SWAP2 POP POP JUMP JUMPDEST PUSH1 0x0 PUSH2 0xF7D DUP3 PUSH2 0xD98 JUMP JUMPDEST SWAP2 POP PUSH2 0xF88 DUP4 PUSH2 0xD98 JUMP JUMPDEST SWAP3 POP DUP3 PUSH2 0xF98 JUMPI PUSH2 0xF97 PUSH2 0xEE0 JUMP JUMPDEST JUMPDEST DUP3 DUP3 MOD SWAP1 POP SWAP3 SWAP2 POP POP JUMP JUMPDEST PUSH1 0x0 PUSH2 0xFAE DUP3 PUSH2 0xD98 JUMP JUMPDEST SWAP2 POP PUSH2 0xFB9 DUP4 PUSH2 0xD98 JUMP JUMPDEST SWAP3 POP DUP3 PUSH2 0xFC9 JUMPI PUSH2 0xFC8 PUSH2 0xEE0 JUMP JUMPDEST JUMPDEST DUP3 DUP3 DIV SWAP1 POP SWAP3 SWAP2 POP POP JUMP JUMPDEST PUSH32 0x4E487B7100000000000000000000000000000000000000000000000000000000 PUSH1 0x0 MSTORE PUSH1 0x32 PUSH1 0x4 MSTORE PUSH1 0x24 PUSH1 0x0 REVERT JUMPDEST PUSH1 0x0 DUP3 DUP3 MSTORE PUSH1 0x20 DUP3 ADD SWAP1 POP SWAP3 SWAP2 POP POP JUMP JUMPDEST PUSH32 0x557365206A6163446F75626C652066756E6374696F6E20696E73746561640000 PUSH1 0x0 DUP3 ADD MSTORE POP JUMP JUMPDEST PUSH1 0x0 PUSH2 0x104A PUSH1 0x1E DUP4 PUSH2 0x1003 JUMP JUMPDEST SWAP2 POP PUSH2 0x1055 DUP3 PUSH2 0x1014 JUMP JUMPDEST PUSH1 0x20 DUP3 ADD SWAP1 POP SWAP2 SWAP1 POP JUMP JUMPDEST PUSH1 0x0 PUSH1 0x20 DUP3 ADD SWAP1 POP DUP2 DUP2 SUB PUSH1 0x0 DUP4 ADD MSTORE PUSH2 0x1079 DUP2 PUSH2 0x103D JUMP JUMPDEST SWAP1 POP SWAP2 SWAP1 POP JUMP JUMPDEST PUSH32 0x496E76616C6964206E756D626572000000000000000000000000000000000000 PUSH1 0x0 DUP3 ADD MSTORE POP JUMP JUMPDEST PUSH1 0x0 PUSH2 0x10B6 PUSH1 0xE DUP4 PUSH2 0x1003 JUMP JUMPDEST SWAP2 POP PUSH2 0x10C1 DUP3 PUSH2 0x1080 JUMP JUMPDEST PUSH1 0x20 DUP3 ADD SWAP1 POP SWAP2 SWAP1 POP JUMP JUMPDEST PUSH1 0x0 PUSH1 0x20 DUP3 ADD SWAP1 POP DUP2 DUP2 SUB PUSH1 0x0 DUP4 ADD MSTORE PUSH2 0x10E5 DUP2 PUSH2 0x10A9 JUMP JUMPDEST SWAP1 POP SWAP2 SWAP1 POP JUMP JUMPDEST PUSH1 0x0 PUSH2 0x10F7 DUP3 PUSH2 0xD98 JUMP JUMPDEST SWAP2 POP PUSH2 0x1102 DUP4 PUSH2 0xD98 JUMP JUMPDEST SWAP3 POP DUP3 DUP3 MUL PUSH2 0x1110 DUP2 PUSH2 0xD98 JUMP JUMPDEST SWAP2 POP DUP3 DUP3 DIV DUP5 EQ DUP4 ISZERO OR PUSH2 0x1127 JUMPI PUSH2 0x1126 PUSH2 0xF0F JUMP JUMPDEST JUMPDEST POP SWAP3 SWAP2 POP POP JUMP INVALID LOG2 PUSH5 0x6970667358 0x22 SLT KECCAK256 SIGNEXTEND DUP1 LOG2 SLOAD 0xEF RETURNDATASIZE MSTORE8 PUSH3 0x76B877 CALLDATASIZE PC SMOD 0xEE 0xD ADDMOD PUSH9 0x924A59F13137226C59 SUB DUP16 STOP 0xBF LT PUSH5 0x736F6C6343 STOP ADDMOD EQ STOP CALLER "},"methodIdentifiers":{"eAdd(uint256,uint256,uint256,uint256)":"8e833f0d","eMul(uint256,uint256,uint256)":"66da27af","eSub(uint256,uint256,uint256,uint256)":"30f32349","gx()":"06c91ce3","gy()":"2d58c9a2","nn()":"72a4c30f","pp()":"91327ec6"}}}}}