{
  "_format": "hh-sol-artifact-1",
  "contractName": "Collateralise",
  "sourceName": "contracts/Collateralise.sol",
  "abi": [
    {
      "inputs": [],
      "stateMutability": "nonpayable",
      "type": "constructor"
    },
    {
      "inputs": [],
      "name": "InsufficientFunds",
      "type": "error"
    },
    {
      "inputs": [],
      "name": "NotRegistered",
      "type": "error"
    },
    {
      "inputs": [
        {
          "internalType": "address",
          "name": "owner",
          "type": "address"
        }
      ],
      "name": "OwnableInvalidOwner",
      "type": "error"
    },
    {
      "inputs": [
        {
          "internalType": "address",
          "name": "account",
          "type": "address"
        }
      ],
      "name": "OwnableUnauthorizedAccount",
      "type": "error"
    },
    {
      "inputs": [],
      "name": "TransactionFailed",
      "type": "error"
    },
    {
      "anonymous": false,
      "inputs": [
        {
          "indexed": false,
          "internalType": "address",
          "name": "company",
          "type": "address"
        },
        {
          "indexed": false,
          "internalType": "uint256",
          "name": "amount",
          "type": "uint256"
        }
      ],
      "name": "AssetsCollateralised",
      "type": "event"
    },
    {
      "anonymous": false,
      "inputs": [
        {
          "indexed": false,
          "internalType": "address",
          "name": "company",
          "type": "address"
        },
        {
          "indexed": false,
          "internalType": "address",
          "name": "to",
          "type": "address"
        },
        {
          "indexed": false,
          "internalType": "uint256",
          "name": "x",
          "type": "uint256"
        },
        {
          "indexed": false,
          "internalType": "uint256",
          "name": "y",
          "type": "uint256"
        }
      ],
      "name": "FundsTransfered",
      "type": "event"
    },
    {
      "anonymous": false,
      "inputs": [
        {
          "indexed": true,
          "internalType": "address",
          "name": "previousOwner",
          "type": "address"
        },
        {
          "indexed": true,
          "internalType": "address",
          "name": "newOwner",
          "type": "address"
        }
      ],
      "name": "OwnershipTransferred",
      "type": "event"
    },
    {
      "inputs": [],
      "name": "H",
      "outputs": [
        {
          "internalType": "uint256",
          "name": "",
          "type": "uint256"
        }
      ],
      "stateMutability": "view",
      "type": "function"
    },
    {
      "inputs": [
        {
          "internalType": "uint256",
          "name": "_r1",
          "type": "uint256"
        },
        {
          "internalType": "uint256",
          "name": "_x1",
          "type": "uint256"
        },
        {
          "internalType": "uint256",
          "name": "_y1",
          "type": "uint256"
        },
        {
          "internalType": "uint256",
          "name": "_r2",
          "type": "uint256"
        },
        {
          "internalType": "uint256",
          "name": "_x2",
          "type": "uint256"
        },
        {
          "internalType": "uint256",
          "name": "_y2",
          "type": "uint256"
        }
      ],
      "name": "addCommitment",
      "outputs": [
        {
          "internalType": "uint256",
          "name": "_r3",
          "type": "uint256"
        },
        {
          "internalType": "uint256",
          "name": "_x3",
          "type": "uint256"
        },
        {
          "internalType": "uint256",
          "name": "_y3",
          "type": "uint256"
        }
      ],
      "stateMutability": "view",
      "type": "function"
    },
    {
      "inputs": [
        {
          "internalType": "address",
          "name": "_to",
          "type": "address"
        },
        {
          "internalType": "uint256",
          "name": "_amount",
          "type": "uint256"
        },
        {
          "internalType": "uint256",
          "name": "_bindingFactor",
          "type": "uint256"
        }
      ],
      "name": "allocateFunds",
      "outputs": [],
      "stateMutability": "nonpayable",
      "type": "function"
    },
    {
      "inputs": [
        {
          "internalType": "address",
          "name": "",
          "type": "address"
        }
      ],
      "name": "allocations",
      "outputs": [
        {
          "internalType": "uint256",
          "name": "x",
          "type": "uint256"
        },
        {
          "internalType": "uint256",
          "name": "y",
          "type": "uint256"
        }
      ],
      "stateMutability": "view",
      "type": "function"
    },
    {
      "inputs": [
        {
          "internalType": "uint256",
          "name": "_bindingFactor",
          "type": "uint256"
        }
      ],
      "name": "collateraliseAssets",
      "outputs": [],
      "stateMutability": "payable",
      "type": "function"
    },
    {
      "inputs": [
        {
          "internalType": "uint256",
          "name": "_r",
          "type": "uint256"
        },
        {
          "internalType": "uint256",
          "name": "_v",
          "type": "uint256"
        }
      ],
      "name": "commit",
      "outputs": [
        {
          "internalType": "uint256",
          "name": "_x3",
          "type": "uint256"
        },
        {
          "internalType": "uint256",
          "name": "_y3",
          "type": "uint256"
        }
      ],
      "stateMutability": "view",
      "type": "function"
    },
    {
      "inputs": [
        {
          "internalType": "address",
          "name": "",
          "type": "address"
        }
      ],
      "name": "companyLedgers",
      "outputs": [
        {
          "internalType": "address",
          "name": "ledgerOwner",
          "type": "address"
        },
        {
          "internalType": "uint256",
          "name": "totalBalance",
          "type": "uint256"
        },
        {
          "components": [
            {
              "internalType": "uint256",
              "name": "x",
              "type": "uint256"
            },
            {
              "internalType": "uint256",
              "name": "y",
              "type": "uint256"
            }
          ],
          "internalType": "struct Collateralise.Commit",
          "name": "totalRevenue",
          "type": "tuple"
        },
        {
          "components": [
            {
              "internalType": "uint256",
              "name": "x",
              "type": "uint256"
            },
            {
              "internalType": "uint256",
              "name": "y",
              "type": "uint256"
            }
          ],
          "internalType": "struct Collateralise.Commit",
          "name": "totalBalanceCommit",
          "type": "tuple"
        }
      ],
      "stateMutability": "view",
      "type": "function"
    },
    {
      "inputs": [
        {
          "internalType": "uint256",
          "name": "_x1",
          "type": "uint256"
        },
        {
          "internalType": "uint256",
          "name": "_y1",
          "type": "uint256"
        },
        {
          "internalType": "uint256",
          "name": "_x2",
          "type": "uint256"
        },
        {
          "internalType": "uint256",
          "name": "_y2",
          "type": "uint256"
        }
      ],
      "name": "eAdd",
      "outputs": [
        {
          "internalType": "uint256",
          "name": "_x3",
          "type": "uint256"
        },
        {
          "internalType": "uint256",
          "name": "_y3",
          "type": "uint256"
        }
      ],
      "stateMutability": "view",
      "type": "function"
    },
    {
      "inputs": [
        {
          "internalType": "uint256",
          "name": "_z",
          "type": "uint256"
        },
        {
          "internalType": "uint256",
          "name": "_x1",
          "type": "uint256"
        },
        {
          "internalType": "uint256",
          "name": "_y1",
          "type": "uint256"
        }
      ],
      "name": "eMul",
      "outputs": [
        {
          "internalType": "uint256",
          "name": "_x2",
          "type": "uint256"
        },
        {
          "internalType": "uint256",
          "name": "_y2",
          "type": "uint256"
        }
      ],
      "stateMutability": "view",
      "type": "function"
    },
    {
      "inputs": [
        {
          "internalType": "uint256",
          "name": "_x1",
          "type": "uint256"
        },
        {
          "internalType": "uint256",
          "name": "_y1",
          "type": "uint256"
        },
        {
          "internalType": "uint256",
          "name": "_x2",
          "type": "uint256"
        },
        {
          "internalType": "uint256",
          "name": "_y2",
          "type": "uint256"
        }
      ],
      "name": "eSub",
      "outputs": [
        {
          "internalType": "uint256",
          "name": "_x3",
          "type": "uint256"
        },
        {
          "internalType": "uint256",
          "name": "_y3",
          "type": "uint256"
        }
      ],
      "stateMutability": "view",
      "type": "function"
    },
    {
      "inputs": [],
      "name": "gx",
      "outputs": [
        {
          "internalType": "uint256",
          "name": "",
          "type": "uint256"
        }
      ],
      "stateMutability": "view",
      "type": "function"
    },
    {
      "inputs": [],
      "name": "gy",
      "outputs": [
        {
          "internalType": "uint256",
          "name": "",
          "type": "uint256"
        }
      ],
      "stateMutability": "view",
      "type": "function"
    },
    {
      "inputs": [
        {
          "internalType": "address",
          "name": "",
          "type": "address"
        }
      ],
      "name": "isCompanyRegistered",
      "outputs": [
        {
          "internalType": "bool",
          "name": "",
          "type": "bool"
        }
      ],
      "stateMutability": "view",
      "type": "function"
    },
    {
      "inputs": [],
      "name": "nn",
      "outputs": [
        {
          "internalType": "uint256",
          "name": "",
          "type": "uint256"
        }
      ],
      "stateMutability": "view",
      "type": "function"
    },
    {
      "inputs": [],
      "name": "owner",
      "outputs": [
        {
          "internalType": "address",
          "name": "",
          "type": "address"
        }
      ],
      "stateMutability": "view",
      "type": "function"
    },
    {
      "inputs": [],
      "name": "pp",
      "outputs": [
        {
          "internalType": "uint256",
          "name": "",
          "type": "uint256"
        }
      ],
      "stateMutability": "view",
      "type": "function"
    },
    {
      "inputs": [],
      "name": "registerLedger",
      "outputs": [],
      "stateMutability": "nonpayable",
      "type": "function"
    },
    {
      "inputs": [],
      "name": "renounceOwnership",
      "outputs": [],
      "stateMutability": "nonpayable",
      "type": "function"
    },
    {
      "inputs": [
        {
          "internalType": "uint256",
          "name": "_r1",
          "type": "uint256"
        },
        {
          "internalType": "uint256",
          "name": "_x1",
          "type": "uint256"
        },
        {
          "internalType": "uint256",
          "name": "_y1",
          "type": "uint256"
        },
        {
          "internalType": "uint256",
          "name": "_r2",
          "type": "uint256"
        },
        {
          "internalType": "uint256",
          "name": "_x2",
          "type": "uint256"
        },
        {
          "internalType": "uint256",
          "name": "_y2",
          "type": "uint256"
        }
      ],
      "name": "subCommitment",
      "outputs": [
        {
          "internalType": "uint256",
          "name": "_r3",
          "type": "uint256"
        },
        {
          "internalType": "uint256",
          "name": "_x3",
          "type": "uint256"
        },
        {
          "internalType": "uint256",
          "name": "_y3",
          "type": "uint256"
        }
      ],
      "stateMutability": "view",
      "type": "function"
    },
    {
      "inputs": [
        {
          "internalType": "address",
          "name": "newOwner",
          "type": "address"
        }
      ],
      "name": "transferOwnership",
      "outputs": [],
      "stateMutability": "nonpayable",
      "type": "function"
    },
    {
      "inputs": [
        {
          "internalType": "uint256",
          "name": "_r",
          "type": "uint256"
        },
        {
          "internalType": "uint256",
          "name": "_v",
          "type": "uint256"
        },
        {
          "internalType": "uint256",
          "name": "_x1",
          "type": "uint256"
        },
        {
          "internalType": "uint256",
          "name": "_y1",
          "type": "uint256"
        }
      ],
      "name": "verify",
      "outputs": [
        {
          "internalType": "bool",
          "name": "result",
          "type": "bool"
        }
      ],
      "stateMutability": "view",
      "type": "function"
    },
    {
      "inputs": [
        {
          "internalType": "address",
          "name": "_addr",
          "type": "address"
        },
        {
          "internalType": "uint256",
          "name": "_amount",
          "type": "uint256"
        },
        {
          "internalType": "uint256",
          "name": "_bindingFactor",
          "type": "uint256"
        }
      ],
      "name": "verifyFunds",
      "outputs": [
        {
          "internalType": "bool",
          "name": "",
          "type": "bool"
        }
      ],
      "stateMutability": "view",
      "type": "function"
    },
    {
      "inputs": [
        {
          "internalType": "uint256",
          "name": "_amount",
          "type": "uint256"
        }
      ],
      "name": "withdraw",
      "outputs": [],
      "stateMutability": "nonpayable",
      "type": "function"
    }
  ],
  "bytecode": "0x60806040527ffffffffffffffffffffffffffffffffffffffffffffffffffffffffefffffc2f6001557ffffffffffffffffffffffffffffffffebaaedce6af48a03bbfd25e8cd03641416002557f79be667ef9dcbbac55a06295ce870b07029bfcdb2dce28d959f2815b16f817986003557f483ada7726a3c4655da4fbfc0e1108a8fd17b448a68554199c47d08ffb10d4b8600455348015620000a157600080fd5b5033600073ffffffffffffffffffffffffffffffffffffffff168173ffffffffffffffffffffffffffffffffffffffff1603620001185760006040517f1e4fbdf70000000000000000000000000000000000000000000000000000000081526004016200010f919062000239565b60405180910390fd5b62000129816200013060201b60201c565b5062000256565b60008060009054906101000a900473ffffffffffffffffffffffffffffffffffffffff169050816000806101000a81548173ffffffffffffffffffffffffffffffffffffffff021916908373ffffffffffffffffffffffffffffffffffffffff1602179055508173ffffffffffffffffffffffffffffffffffffffff168173ffffffffffffffffffffffffffffffffffffffff167f8be0079c531659141344cd1fd0a4f28419497f9722a3daafe3b4186f6b6457e060405160405180910390a35050565b600073ffffffffffffffffffffffffffffffffffffffff82169050919050565b60006200022182620001f4565b9050919050565b620002338162000214565b82525050565b600060208201905062000250600083018462000228565b92915050565b61277380620002666000396000f3fe6080604052600436106101405760003560e01c806370a5d861116100b657806391327ec61161006f57806391327ec6146104b4578063a74ccb9f146104df578063a9c5afbc146104fb578063b2d41a881461053a578063dafbb22514610551578063f2fde38b1461058e57610140565b806370a5d861146103b5578063715018a6146103e0578063723c8544146103f757806372a4c30f146104205780638da5cb5b1461044b5780638e833f0d1461047657610140565b80634deb1b81116101085780634deb1b811461024157806352a9039c1461027e57806356ea04a3146102bc5780635bf56bc4146102f957806366da27af146103375780636c8d90841461037557610140565b806306c91ce3146101455780632d58c9a2146101705780632e1a7d4d1461019b57806330f32349146101c4578063422ae5bb14610202575b600080fd5b34801561015157600080fd5b5061015a6105b7565b604051610167919061200f565b60405180910390f35b34801561017c57600080fd5b506101856105bd565b604051610192919061200f565b60405180910390f35b3480156101a757600080fd5b506101c260048036038101906101bd919061205b565b6105c3565b005b3480156101d057600080fd5b506101eb60048036038101906101e69190612088565b610672565b6040516101f99291906120ef565b60405180910390f35b34801561020e57600080fd5b5061022960048036038101906102249190612118565b610697565b604051610238939291906121a5565b60405180910390f35b34801561024d57600080fd5b506102686004803603810190610263919061223a565b6106c8565b60405161027591906122a8565b60405180910390f35b34801561028a57600080fd5b506102a560048036038101906102a091906122c3565b610763565b6040516102b39291906120ef565b60405180910390f35b3480156102c857600080fd5b506102e360048036038101906102de91906122c3565b610787565b6040516102f091906122a8565b60405180910390f35b34801561030557600080fd5b50610320600480360381019061031b91906122f0565b6107a7565b60405161032e9291906120ef565b60405180910390f35b34801561034357600080fd5b5061035e60048036038101906103599190612330565b61080b565b60405161036c9291906120ef565b60405180910390f35b34801561038157600080fd5b5061039c600480360381019061039791906122c3565b61082e565b6040516103ac94939291906123d0565b60405180910390f35b3480156103c157600080fd5b506103ca6108ba565b6040516103d7919061200f565b60405180910390f35b3480156103ec57600080fd5b506103f56108c0565b005b34801561040357600080fd5b5061041e6004803603810190610419919061223a565b6108d4565b005b34801561042c57600080fd5b50610435610d41565b604051610442919061200f565b60405180910390f35b34801561045757600080fd5b50610460610d47565b60405161046d9190612415565b60405180910390f35b34801561048257600080fd5b5061049d60048036038101906104989190612088565b610d70565b6040516104ab9291906120ef565b60405180910390f35b3480156104c057600080fd5b506104c9610d95565b6040516104d6919061200f565b60405180910390f35b6104f960048036038101906104f4919061205b565b610d9b565b005b34801561050757600080fd5b50610522600480360381019061051d9190612118565b61105b565b604051610531939291906121a5565b60405180910390f35b34801561054657600080fd5b5061054f61108c565b005b34801561055d57600080fd5b5061057860048036038101906105739190612088565b61121b565b60405161058591906122a8565b60405180910390f35b34801561059a57600080fd5b506105b560048036038101906105b091906122c3565b611250565b005b60035481565b60045481565b6105cb6112d6565b60003373ffffffffffffffffffffffffffffffffffffffff16826040516105f190612461565b60006040518083038185875af1925050503d806000811461062e576040519150601f19603f3d011682016040523d82523d6000602084013e610633565b606091505b505090508061066e576040517fbf961a2800000000000000000000000000000000000000000000000000000000815260040160405180910390fd5b5050565b60008061068686868686600060015461135d565b809250819350505094509492505050565b60008060006106a68987611391565b92506106b488888787610672565b809250819350505096509650969350505050565b600061075a8284600860008873ffffffffffffffffffffffffffffffffffffffff1673ffffffffffffffffffffffffffffffffffffffff16815260200190815260200160002060000154600860008973ffffffffffffffffffffffffffffffffffffffff1673ffffffffffffffffffffffffffffffffffffffff1681526020019081526020016000206001015461121b565b90509392505050565b60086020528060005260406000206000915090508060000154908060010154905082565b60066020528060005260406000206000915054906101000a900460ff1681565b6000806000806107be60055460035460045461080b565b915091506000806107d48860035460045461080b565b915091506000806107e689878761080b565b915091506107f684848484610d70565b80985081995050505050505050509250929050565b60008061081e85858560006001546113c0565b8092508193505050935093915050565b60076020528060005260406000206000915090508060000160009054906101000a900473ffffffffffffffffffffffffffffffffffffffff16908060010154908060020160405180604001604052908160008201548152602001600182015481525050908060040160405180604001604052908160008201548152602001600182015481525050905084565b60055481565b6108c86112d6565b6108d260006113fa565b565b60001515600660003373ffffffffffffffffffffffffffffffffffffffff1673ffffffffffffffffffffffffffffffffffffffff16815260200190815260200160002060009054906101000a900460ff1615150361095e576040517faba4733900000000000000000000000000000000000000000000000000000000815260040160405180910390fd5b600760003373ffffffffffffffffffffffffffffffffffffffff1673ffffffffffffffffffffffffffffffffffffffff168152602001908152602001600020600101548211156109da576040517f356680b700000000000000000000000000000000000000000000000000000000815260040160405180910390fd5b6000806109e783856107a7565b91509150600080610a84600760003373ffffffffffffffffffffffffffffffffffffffff1673ffffffffffffffffffffffffffffffffffffffff16815260200190815260200160002060020160000154600760003373ffffffffffffffffffffffffffffffffffffffff1673ffffffffffffffffffffffffffffffffffffffff168152602001908152602001600020600201600101548686610672565b91509150604051806040016040528083815260200182815250600760003373ffffffffffffffffffffffffffffffffffffffff1673ffffffffffffffffffffffffffffffffffffffff16815260200190815260200160002060020160008201518160000155602082015181600101559050506000600860008973ffffffffffffffffffffffffffffffffffffffff1673ffffffffffffffffffffffffffffffffffffffff1681526020019081526020016000206000015414610c6c57600080610bd3600860008b73ffffffffffffffffffffffffffffffffffffffff1673ffffffffffffffffffffffffffffffffffffffff16815260200190815260200160002060000154600860008c73ffffffffffffffffffffffffffffffffffffffff1673ffffffffffffffffffffffffffffffffffffffff168152602001908152602001600020600101548888610d70565b9150915081600860008b73ffffffffffffffffffffffffffffffffffffffff1673ffffffffffffffffffffffffffffffffffffffff1681526020019081526020016000206000018190555080600860008b73ffffffffffffffffffffffffffffffffffffffff1673ffffffffffffffffffffffffffffffffffffffff168152602001908152602001600020600101819055505050610cfb565b83600860008973ffffffffffffffffffffffffffffffffffffffff1673ffffffffffffffffffffffffffffffffffffffff1681526020019081526020016000206000018190555082600860008973ffffffffffffffffffffffffffffffffffffffff1673ffffffffffffffffffffffffffffffffffffffff168152602001908152602001600020600101819055505b7f653d68bacda743e5d9efa1812a7749640f55f810b3970d2cd8f7344eebc591dd33888686604051610d309493929190612476565b60405180910390a150505050505050565b60025481565b60008060009054906101000a900473ffffffffffffffffffffffffffffffffffffffff16905090565b600080610d848686868660006001546114be565b809250819350505094509492505050565b60015481565b60001515600660003373ffffffffffffffffffffffffffffffffffffffff1673ffffffffffffffffffffffffffffffffffffffff16815260200190815260200160002060009054906101000a900460ff16151503610e25576040517faba4733900000000000000000000000000000000000000000000000000000000815260040160405180910390fd5b600080610e3283346107a7565b91509150600080610ecf8484600760003373ffffffffffffffffffffffffffffffffffffffff1673ffffffffffffffffffffffffffffffffffffffff16815260200190815260200160002060040160000154600760003373ffffffffffffffffffffffffffffffffffffffff1673ffffffffffffffffffffffffffffffffffffffff16815260200190815260200160002060040160010154610d70565b9150915081600760003373ffffffffffffffffffffffffffffffffffffffff1673ffffffffffffffffffffffffffffffffffffffff1681526020019081526020016000206002016000018190555080600760003373ffffffffffffffffffffffffffffffffffffffff1673ffffffffffffffffffffffffffffffffffffffff1681526020019081526020016000206002016001018190555034600760003373ffffffffffffffffffffffffffffffffffffffff1673ffffffffffffffffffffffffffffffffffffffff1681526020019081526020016000206001016000828254610fb991906124ea565b9250508190555081600760003373ffffffffffffffffffffffffffffffffffffffff1673ffffffffffffffffffffffffffffffffffffffff1681526020019081526020016000206004016000018190555080600760003373ffffffffffffffffffffffffffffffffffffffff1673ffffffffffffffffffffffffffffffffffffffff168152602001908152602001600020600401600101819055505050505050565b600080600061106a8987611551565b925061107888888787610d70565b809250819350505096509650969350505050565b6001600660003373ffffffffffffffffffffffffffffffffffffffff1673ffffffffffffffffffffffffffffffffffffffff16815260200190815260200160002060006101000a81548160ff02191690831515021790555060405180608001604052803373ffffffffffffffffffffffffffffffffffffffff16815260200160008152602001604051806040016040528060008152602001600081525081526020016040518060400160405280600081526020016000815250815250600760003373ffffffffffffffffffffffffffffffffffffffff1673ffffffffffffffffffffffffffffffffffffffff16815260200190815260200160002060008201518160000160006101000a81548173ffffffffffffffffffffffffffffffffffffffff021916908373ffffffffffffffffffffffffffffffffffffffff160217905550602082015181600101556040820151816002016000820151816000015560208201518160010155505060608201518160040160008201518160000155602082015181600101555050905050565b600080600061122a87876107a7565b91509150818514801561123c57508084145b1561124657600192505b5050949350505050565b6112586112d6565b600073ffffffffffffffffffffffffffffffffffffffff168173ffffffffffffffffffffffffffffffffffffffff16036112ca5760006040517f1e4fbdf70000000000000000000000000000000000000000000000000000000081526004016112c19190612415565b60405180910390fd5b6112d3816113fa565b50565b6112de611566565b73ffffffffffffffffffffffffffffffffffffffff166112fc610d47565b73ffffffffffffffffffffffffffffffffffffffff161461135b5761131f611566565b6040517f118cdaa70000000000000000000000000000000000000000000000000000000081526004016113529190612415565b60405180910390fd5b565b60008060008061136e88888761156e565b915091506113808a8a84848a8a6114be565b935093505050965096945050505050565b6000806001549050828410156113a957838303810391505b828411156113b957808385030691505b5092915050565b60008060008060006113d78a8a8a60018b8b611595565b9250925092506113e983838389611634565b945094505050509550959350505050565b60008060009054906101000a900473ffffffffffffffffffffffffffffffffffffffff169050816000806101000a81548173ffffffffffffffffffffffffffffffffffffffff021916908373ffffffffffffffffffffffffffffffffffffffff1602179055508173ffffffffffffffffffffffffffffffffffffffff168173ffffffffffffffffffffffffffffffffffffffff167f8be0079c531659141344cd1fd0a4f28419497f9722a3daafe3b4186f6b6457e060405160405180910390a35050565b6000806000806000888b0361151457600086806114de576114dd61251e565b5b898c08036114f55760008094509450505050611546565b6115038b8b60018a8a6116ab565b809350819450829550505050611532565b6115258b8b60018c8c60018c611869565b8093508194508295505050505b61153e83838389611634565b945094505050505b965096945050505050565b60008060015490508083850891505092915050565b600033905090565b6000808483858561157f919061254d565b6115899190612581565b91509150935093915050565b60008060008089036115af57878787925092509250611628565b60008990506000806000600190505b6000841461161a57600060018516146115ed576115e08383838f8f8f8e611869565b8093508194508295505050505b6002846115fa91906125b2565b93506116098c8c8c8c8c6116ab565b809c50819d50829e505050506115be565b828282965096509650505050505b96509650969350505050565b60008060006116438585611ee8565b9050600084806116565761165561251e565b5b82830990506000858061166c5761166b61251e565b5b828a099050600086806116825761168161251e565b5b87806116915761169061251e565b5b8486098a0990508181955095505050505094509492505050565b60008060008086036116c55787878792509250925061185e565b600084806116d6576116d561251e565b5b898a099050600085806116ec576116eb61251e565b5b898a099050600086806117025761170161251e565b5b898a099050600087806117185761171761251e565b5b88806117275761172661251e565b5b848e096004099050600088806117405761173f61251e565b5b898061174f5761174e61251e565b5b8a8061175e5761175d61251e565b5b8586098c098a806117725761177161251e565b5b8760030908905088806117885761178761251e565b5b89806117975761179661251e565b5b8384088a6117a5919061254d565b8a806117b4576117b361251e565b5b83840908945088806117c9576117c861251e565b5b89806117d8576117d761251e565b5b8a806117e7576117e661251e565b5b8687096008098a6117f8919061254d565b8a806118075761180661251e565b5b8b806118165761181561251e565b5b888d611822919061254d565b8608840908935088806118385761183761251e565b5b89806118475761184661251e565b5b8c8e09600209925084848497509750975050505050505b955095509592505050565b6000806000808a14801561187d5750600089145b1561189057868686925092509250611edb565b6000871480156118a05750600086145b156118b357898989925092509250611edb565b6118bb611fd4565b84806118ca576118c961251e565b5b898a09816000600481106118e1576118e06125e3565b5b60200201818152505084806118f9576118f861251e565b5b8160006004811061190d5761190c6125e3565b5b60200201518a0981600160048110611928576119276125e3565b5b60200201818152505084806119405761193f61251e565b5b86870981600260048110611957576119566125e3565b5b602002018181525050848061196f5761196e61251e565b5b81600260048110611983576119826125e3565b5b602002015187098160036004811061199e5761199d6125e3565b5b602002018181525050604051806080016040528086806119c1576119c061251e565b5b836002600481106119d5576119d46125e3565b5b60200201518e09815260200186806119f0576119ef61251e565b5b83600360048110611a0457611a036125e3565b5b60200201518d0981526020018680611a1f57611a1e61251e565b5b83600060048110611a3357611a326125e3565b5b60200201518b0981526020018680611a4e57611a4d61251e565b5b83600160048110611a6257611a616125e3565b5b60200201518a09815250905080600260048110611a8257611a816125e3565b5b602002015181600060048110611a9b57611a9a6125e3565b5b6020020151141580611add575080600360048110611abc57611abb6125e3565b5b602002015181600160048110611ad557611ad46125e3565b5b602002015114155b611b1c576040517f08c379a0000000000000000000000000000000000000000000000000000000008152600401611b139061266f565b60405180910390fd5b611b24611fd4565b8580611b3357611b3261251e565b5b82600060048110611b4757611b466125e3565b5b602002015187611b57919061254d565b83600260048110611b6b57611b6a6125e3565b5b60200201510881600060048110611b8557611b846125e3565b5b6020020181815250508580611b9d57611b9c61251e565b5b82600160048110611bb157611bb06125e3565b5b602002015187611bc1919061254d565b83600360048110611bd557611bd46125e3565b5b60200201510881600160048110611bef57611bee6125e3565b5b6020020181815250508580611c0757611c0661251e565b5b81600060048110611c1b57611c1a6125e3565b5b602002015182600060048110611c3457611c336125e3565b5b60200201510981600260048110611c4e57611c4d6125e3565b5b6020020181815250508580611c6657611c6561251e565b5b81600060048110611c7a57611c796125e3565b5b602002015182600260048110611c9357611c926125e3565b5b60200201510981600360048110611cad57611cac6125e3565b5b60200201818152505060008680611cc757611cc661251e565b5b82600360048110611cdb57611cda6125e3565b5b602002015188611ceb919061254d565b8880611cfa57611cf961251e565b5b84600160048110611d0e57611d0d6125e3565b5b602002015185600160048110611d2757611d266125e3565b5b6020020151090890508680611d3f57611d3e61251e565b5b8780611d4e57611d4d61251e565b5b8880611d5d57611d5c61251e565b5b84600260048110611d7157611d706125e3565b5b602002015186600060048110611d8a57611d896125e3565b5b60200201510960020988611d9e919061254d565b8208905060008780611db357611db261251e565b5b8880611dc257611dc161251e565b5b838a611dce919061254d565b8a80611ddd57611ddc61251e565b5b86600260048110611df157611df06125e3565b5b602002015188600060048110611e0a57611e096125e3565b5b6020020151090884600160048110611e2557611e246125e3565b5b60200201510990508780611e3c57611e3b61251e565b5b8880611e4b57611e4a61251e565b5b84600360048110611e5f57611e5e6125e3565b5b602002015186600160048110611e7857611e776125e3565b5b60200201510989611e89919061254d565b8208905060008880611e9e57611e9d61251e565b5b8980611ead57611eac61251e565b5b8b8f0985600060048110611ec457611ec36125e3565b5b602002015109905082828297509750975050505050505b9750975097945050505050565b6000808314158015611efa5750818314155b8015611f07575060008214155b611f46576040517f08c379a0000000000000000000000000000000000000000000000000000000008152600401611f3d906126db565b60405180910390fd5b60008060019050600084905060005b60008714611fc7578682611f6991906125b2565b9050828680611f7b57611f7a61251e565b5b8780611f8a57611f8961251e565b5b85840988611f98919061254d565b86088094508195505050868782611faf91906126fb565b83611fba919061254d565b8098508193505050611f55565b8394505050505092915050565b6040518060800160405280600490602082028036833780820191505090505090565b6000819050919050565b61200981611ff6565b82525050565b60006020820190506120246000830184612000565b92915050565b600080fd5b61203881611ff6565b811461204357600080fd5b50565b6000813590506120558161202f565b92915050565b6000602082840312156120715761207061202a565b5b600061207f84828501612046565b91505092915050565b600080600080608085870312156120a2576120a161202a565b5b60006120b087828801612046565b94505060206120c187828801612046565b93505060406120d287828801612046565b92505060606120e387828801612046565b91505092959194509250565b60006040820190506121046000830185612000565b6121116020830184612000565b9392505050565b60008060008060008060c087890312156121355761213461202a565b5b600061214389828a01612046565b965050602061215489828a01612046565b955050604061216589828a01612046565b945050606061217689828a01612046565b935050608061218789828a01612046565b92505060a061219889828a01612046565b9150509295509295509295565b60006060820190506121ba6000830186612000565b6121c76020830185612000565b6121d46040830184612000565b949350505050565b600073ffffffffffffffffffffffffffffffffffffffff82169050919050565b6000612207826121dc565b9050919050565b612217816121fc565b811461222257600080fd5b50565b6000813590506122348161220e565b92915050565b6000806000606084860312156122535761225261202a565b5b600061226186828701612225565b935050602061227286828701612046565b925050604061228386828701612046565b9150509250925092565b60008115159050919050565b6122a28161228d565b82525050565b60006020820190506122bd6000830184612299565b92915050565b6000602082840312156122d9576122d861202a565b5b60006122e784828501612225565b91505092915050565b600080604083850312156123075761230661202a565b5b600061231585828601612046565b925050602061232685828601612046565b9150509250929050565b6000806000606084860312156123495761234861202a565b5b600061235786828701612046565b935050602061236886828701612046565b925050604061237986828701612046565b9150509250925092565b61238c816121fc565b82525050565b61239b81611ff6565b82525050565b6040820160008201516123b76000850182612392565b5060208201516123ca6020850182612392565b50505050565b600060c0820190506123e56000830187612383565b6123f26020830186612000565b6123ff60408301856123a1565b61240c60808301846123a1565b95945050505050565b600060208201905061242a6000830184612383565b92915050565b600081905092915050565b50565b600061244b600083612430565b91506124568261243b565b600082019050919050565b600061246c8261243e565b9150819050919050565b600060808201905061248b6000830187612383565b6124986020830186612383565b6124a56040830185612000565b6124b26060830184612000565b95945050505050565b7f4e487b7100000000000000000000000000000000000000000000000000000000600052601160045260246000fd5b60006124f582611ff6565b915061250083611ff6565b9250828201905080821115612518576125176124bb565b5b92915050565b7f4e487b7100000000000000000000000000000000000000000000000000000000600052601260045260246000fd5b600061255882611ff6565b915061256383611ff6565b925082820390508181111561257b5761257a6124bb565b5b92915050565b600061258c82611ff6565b915061259783611ff6565b9250826125a7576125a661251e565b5b828206905092915050565b60006125bd82611ff6565b91506125c883611ff6565b9250826125d8576125d761251e565b5b828204905092915050565b7f4e487b7100000000000000000000000000000000000000000000000000000000600052603260045260246000fd5b600082825260208201905092915050565b7f557365206a6163446f75626c652066756e6374696f6e20696e73746561640000600082015250565b6000612659601e83612612565b915061266482612623565b602082019050919050565b600060208201905081810360008301526126888161264c565b9050919050565b7f496e76616c6964206e756d626572000000000000000000000000000000000000600082015250565b60006126c5600e83612612565b91506126d08261268f565b602082019050919050565b600060208201905081810360008301526126f4816126b8565b9050919050565b600061270682611ff6565b915061271183611ff6565b925082820261271f81611ff6565b91508282048414831517612736576127356124bb565b5b509291505056fea264697066735822122076c9d735ecaa712ac94585a74af40db6652905a8a3ac0e01dec5f1d326a2352064736f6c63430008140033",
  "linkReferences": {},
  "deployedLinkReferences": {}
}