{
  "_format": "hh-sol-artifact-1",
  "contractName": "Collateralise",
  "sourceName": "contracts/Collateralise.sol",
  "abi": [
    {
      "inputs": [],
      "stateMutability": "nonpayable",
      "type": "constructor"
    },
    {
      "inputs": [],
      "name": "InsufficientFunds",
      "type": "error"
    },
    {
      "inputs": [],
      "name": "NotRegistered",
      "type": "error"
    },
    {
      "inputs": [
        {
          "internalType": "address",
          "name": "owner",
          "type": "address"
        }
      ],
      "name": "OwnableInvalidOwner",
      "type": "error"
    },
    {
      "inputs": [
        {
          "internalType": "address",
          "name": "account",
          "type": "address"
        }
      ],
      "name": "OwnableUnauthorizedAccount",
      "type": "error"
    },
    {
      "inputs": [],
      "name": "TransactionFailed",
      "type": "error"
    },
    {
      "anonymous": false,
      "inputs": [
        {
          "indexed": false,
          "internalType": "address",
          "name": "company",
          "type": "address"
        },
        {
          "indexed": false,
          "internalType": "uint256",
          "name": "amount",
          "type": "uint256"
        }
      ],
      "name": "AssetsCollateralised",
      "type": "event"
    },
    {
      "anonymous": false,
      "inputs": [
        {
          "indexed": false,
          "internalType": "address",
          "name": "company",
          "type": "address"
        },
        {
          "indexed": false,
          "internalType": "address",
          "name": "to",
          "type": "address"
        },
        {
          "indexed": false,
          "internalType": "uint256",
          "name": "x",
          "type": "uint256"
        },
        {
          "indexed": false,
          "internalType": "uint256",
          "name": "y",
          "type": "uint256"
        }
      ],
      "name": "FundsTransfered",
      "type": "event"
    },
    {
      "anonymous": false,
      "inputs": [
        {
          "indexed": true,
          "internalType": "address",
          "name": "previousOwner",
          "type": "address"
        },
        {
          "indexed": true,
          "internalType": "address",
          "name": "newOwner",
          "type": "address"
        }
      ],
      "name": "OwnershipTransferred",
      "type": "event"
    },
    {
      "inputs": [],
      "name": "H",
      "outputs": [
        {
          "internalType": "uint256",
          "name": "",
          "type": "uint256"
        }
      ],
      "stateMutability": "view",
      "type": "function"
    },
    {
      "inputs": [
        {
          "internalType": "uint256",
          "name": "_r1",
          "type": "uint256"
        },
        {
          "internalType": "uint256",
          "name": "_x1",
          "type": "uint256"
        },
        {
          "internalType": "uint256",
          "name": "_y1",
          "type": "uint256"
        },
        {
          "internalType": "uint256",
          "name": "_r2",
          "type": "uint256"
        },
        {
          "internalType": "uint256",
          "name": "_x2",
          "type": "uint256"
        },
        {
          "internalType": "uint256",
          "name": "_y2",
          "type": "uint256"
        }
      ],
      "name": "addCommitment",
      "outputs": [
        {
          "internalType": "uint256",
          "name": "_r3",
          "type": "uint256"
        },
        {
          "internalType": "uint256",
          "name": "_x3",
          "type": "uint256"
        },
        {
          "internalType": "uint256",
          "name": "_y3",
          "type": "uint256"
        }
      ],
      "stateMutability": "view",
      "type": "function"
    },
    {
      "inputs": [
        {
          "internalType": "address",
          "name": "_to",
          "type": "address"
        },
        {
          "internalType": "uint256",
          "name": "_amount",
          "type": "uint256"
        },
        {
          "internalType": "uint256",
          "name": "_bindingFactor",
          "type": "uint256"
        }
      ],
      "name": "allocateFunds",
      "outputs": [],
      "stateMutability": "nonpayable",
      "type": "function"
    },
    {
      "inputs": [
        {
          "internalType": "address",
          "name": "",
          "type": "address"
        }
      ],
      "name": "allocations",
      "outputs": [
        {
          "internalType": "uint256",
          "name": "x",
          "type": "uint256"
        },
        {
          "internalType": "uint256",
          "name": "y",
          "type": "uint256"
        }
      ],
      "stateMutability": "view",
      "type": "function"
    },
    {
      "inputs": [
        {
          "internalType": "uint256",
          "name": "_bindingFactor",
          "type": "uint256"
        }
      ],
      "name": "collateraliseAssets",
      "outputs": [],
      "stateMutability": "payable",
      "type": "function"
    },
    {
      "inputs": [
        {
          "internalType": "uint256",
          "name": "_r",
          "type": "uint256"
        },
        {
          "internalType": "uint256",
          "name": "_v",
          "type": "uint256"
        }
      ],
      "name": "commit",
      "outputs": [
        {
          "internalType": "uint256",
          "name": "_x3",
          "type": "uint256"
        },
        {
          "internalType": "uint256",
          "name": "_y3",
          "type": "uint256"
        }
      ],
      "stateMutability": "view",
      "type": "function"
    },
    {
      "inputs": [
        {
          "internalType": "address",
          "name": "",
          "type": "address"
        }
      ],
      "name": "companyLedgers",
      "outputs": [
        {
          "internalType": "address",
          "name": "ledgerOwner",
          "type": "address"
        },
        {
          "internalType": "uint256",
          "name": "totalBalance",
          "type": "uint256"
        },
        {
          "components": [
            {
              "internalType": "uint256",
              "name": "x",
              "type": "uint256"
            },
            {
              "internalType": "uint256",
              "name": "y",
              "type": "uint256"
            }
          ],
          "internalType": "struct Collateralise.Commit",
          "name": "totalRevenue",
          "type": "tuple"
        },
        {
          "components": [
            {
              "internalType": "uint256",
              "name": "x",
              "type": "uint256"
            },
            {
              "internalType": "uint256",
              "name": "y",
              "type": "uint256"
            }
          ],
          "internalType": "struct Collateralise.Commit",
          "name": "totalBalanceCommit",
          "type": "tuple"
        }
      ],
      "stateMutability": "view",
      "type": "function"
    },
    {
      "inputs": [
        {
          "internalType": "uint256",
          "name": "_x1",
          "type": "uint256"
        },
        {
          "internalType": "uint256",
          "name": "_y1",
          "type": "uint256"
        },
        {
          "internalType": "uint256",
          "name": "_x2",
          "type": "uint256"
        },
        {
          "internalType": "uint256",
          "name": "_y2",
          "type": "uint256"
        }
      ],
      "name": "eAdd",
      "outputs": [
        {
          "internalType": "uint256",
          "name": "_x3",
          "type": "uint256"
        },
        {
          "internalType": "uint256",
          "name": "_y3",
          "type": "uint256"
        }
      ],
      "stateMutability": "view",
      "type": "function"
    },
    {
      "inputs": [
        {
          "internalType": "uint256",
          "name": "_z",
          "type": "uint256"
        },
        {
          "internalType": "uint256",
          "name": "_x1",
          "type": "uint256"
        },
        {
          "internalType": "uint256",
          "name": "_y1",
          "type": "uint256"
        }
      ],
      "name": "eMul",
      "outputs": [
        {
          "internalType": "uint256",
          "name": "_x2",
          "type": "uint256"
        },
        {
          "internalType": "uint256",
          "name": "_y2",
          "type": "uint256"
        }
      ],
      "stateMutability": "view",
      "type": "function"
    },
    {
      "inputs": [
        {
          "internalType": "uint256",
          "name": "_x1",
          "type": "uint256"
        },
        {
          "internalType": "uint256",
          "name": "_y1",
          "type": "uint256"
        },
        {
          "internalType": "uint256",
          "name": "_x2",
          "type": "uint256"
        },
        {
          "internalType": "uint256",
          "name": "_y2",
          "type": "uint256"
        }
      ],
      "name": "eSub",
      "outputs": [
        {
          "internalType": "uint256",
          "name": "_x3",
          "type": "uint256"
        },
        {
          "internalType": "uint256",
          "name": "_y3",
          "type": "uint256"
        }
      ],
      "stateMutability": "view",
      "type": "function"
    },
    {
      "inputs": [],
      "name": "gx",
      "outputs": [
        {
          "internalType": "uint256",
          "name": "",
          "type": "uint256"
        }
      ],
      "stateMutability": "view",
      "type": "function"
    },
    {
      "inputs": [],
      "name": "gy",
      "outputs": [
        {
          "internalType": "uint256",
          "name": "",
          "type": "uint256"
        }
      ],
      "stateMutability": "view",
      "type": "function"
    },
    {
      "inputs": [
        {
          "internalType": "address",
          "name": "",
          "type": "address"
        }
      ],
      "name": "isCompanyRegistered",
      "outputs": [
        {
          "internalType": "bool",
          "name": "",
          "type": "bool"
        }
      ],
      "stateMutability": "view",
      "type": "function"
    },
    {
      "inputs": [],
      "name": "nn",
      "outputs": [
        {
          "internalType": "uint256",
          "name": "",
          "type": "uint256"
        }
      ],
      "stateMutability": "view",
      "type": "function"
    },
    {
      "inputs": [],
      "name": "owner",
      "outputs": [
        {
          "internalType": "address",
          "name": "",
          "type": "address"
        }
      ],
      "stateMutability": "view",
      "type": "function"
    },
    {
      "inputs": [],
      "name": "pp",
      "outputs": [
        {
          "internalType": "uint256",
          "name": "",
          "type": "uint256"
        }
      ],
      "stateMutability": "view",
      "type": "function"
    },
    {
      "inputs": [],
      "name": "registerLedger",
      "outputs": [],
      "stateMutability": "nonpayable",
      "type": "function"
    },
    {
      "inputs": [],
      "name": "renounceOwnership",
      "outputs": [],
      "stateMutability": "nonpayable",
      "type": "function"
    },
    {
      "inputs": [
        {
          "internalType": "uint256",
          "name": "_r1",
          "type": "uint256"
        },
        {
          "internalType": "uint256",
          "name": "_x1",
          "type": "uint256"
        },
        {
          "internalType": "uint256",
          "name": "_y1",
          "type": "uint256"
        },
        {
          "internalType": "uint256",
          "name": "_r2",
          "type": "uint256"
        },
        {
          "internalType": "uint256",
          "name": "_x2",
          "type": "uint256"
        },
        {
          "internalType": "uint256",
          "name": "_y2",
          "type": "uint256"
        }
      ],
      "name": "subCommitment",
      "outputs": [
        {
          "internalType": "uint256",
          "name": "_r3",
          "type": "uint256"
        },
        {
          "internalType": "uint256",
          "name": "_x3",
          "type": "uint256"
        },
        {
          "internalType": "uint256",
          "name": "_y3",
          "type": "uint256"
        }
      ],
      "stateMutability": "view",
      "type": "function"
    },
    {
      "inputs": [
        {
          "internalType": "address",
          "name": "newOwner",
          "type": "address"
        }
      ],
      "name": "transferOwnership",
      "outputs": [],
      "stateMutability": "nonpayable",
      "type": "function"
    },
    {
      "inputs": [
        {
          "internalType": "uint256",
          "name": "_r",
          "type": "uint256"
        },
        {
          "internalType": "uint256",
          "name": "_v",
          "type": "uint256"
        },
        {
          "internalType": "uint256",
          "name": "_x1",
          "type": "uint256"
        },
        {
          "internalType": "uint256",
          "name": "_y1",
          "type": "uint256"
        }
      ],
      "name": "verify",
      "outputs": [
        {
          "internalType": "bool",
          "name": "result",
          "type": "bool"
        }
      ],
      "stateMutability": "view",
      "type": "function"
    },
    {
      "inputs": [
        {
          "internalType": "address",
          "name": "_addr",
          "type": "address"
        },
        {
          "internalType": "uint256",
          "name": "_amount",
          "type": "uint256"
        },
        {
          "internalType": "uint256",
          "name": "_bindingFactor",
          "type": "uint256"
        }
      ],
      "name": "verifyFunds",
      "outputs": [
        {
          "internalType": "bool",
          "name": "",
          "type": "bool"
        }
      ],
      "stateMutability": "view",
      "type": "function"
    },
    {
      "inputs": [
        {
          "internalType": "uint256",
          "name": "_amount",
          "type": "uint256"
        }
      ],
      "name": "withdraw",
      "outputs": [],
      "stateMutability": "nonpayable",
      "type": "function"
    }
  ],
  "bytecode": "0x60806040527ffffffffffffffffffffffffffffffffffffffffffffffffffffffffefffffc2f6001557ffffffffffffffffffffffffffffffffebaaedce6af48a03bbfd25e8cd03641416002557f79be667ef9dcbbac55a06295ce870b07029bfcdb2dce28d959f2815b16f817986003557f483ada7726a3c4655da4fbfc0e1108a8fd17b448a68554199c47d08ffb10d4b8600455348015620000a157600080fd5b5033600073ffffffffffffffffffffffffffffffffffffffff168173ffffffffffffffffffffffffffffffffffffffff1603620001185760006040517f1e4fbdf70000000000000000000000000000000000000000000000000000000081526004016200010f919062000239565b60405180910390fd5b62000129816200013060201b60201c565b5062000256565b60008060009054906101000a900473ffffffffffffffffffffffffffffffffffffffff169050816000806101000a81548173ffffffffffffffffffffffffffffffffffffffff021916908373ffffffffffffffffffffffffffffffffffffffff1602179055508173ffffffffffffffffffffffffffffffffffffffff168173ffffffffffffffffffffffffffffffffffffffff167f8be0079c531659141344cd1fd0a4f28419497f9722a3daafe3b4186f6b6457e060405160405180910390a35050565b600073ffffffffffffffffffffffffffffffffffffffff82169050919050565b60006200022182620001f4565b9050919050565b620002338162000214565b82525050565b600060208201905062000250600083018462000228565b92915050565b61257480620002666000396000f3fe6080604052600436106101405760003560e01c806370a5d861116100b657806391327ec61161006f57806391327ec6146104b4578063a74ccb9f146104df578063a9c5afbc146104fb578063b2d41a881461053a578063dafbb22514610551578063f2fde38b1461058e57610140565b806370a5d861146103b5578063715018a6146103e0578063723c8544146103f757806372a4c30f146104205780638da5cb5b1461044b5780638e833f0d1461047657610140565b80634deb1b81116101085780634deb1b811461024157806352a9039c1461027e57806356ea04a3146102bc5780635bf56bc4146102f957806366da27af146103375780636c8d90841461037557610140565b806306c91ce3146101455780632d58c9a2146101705780632e1a7d4d1461019b57806330f32349146101c4578063422ae5bb14610202575b600080fd5b34801561015157600080fd5b5061015a6105b7565b6040516101679190611e44565b60405180910390f35b34801561017c57600080fd5b506101856105bd565b6040516101929190611e44565b60405180910390f35b3480156101a757600080fd5b506101c260048036038101906101bd9190611e90565b6105c3565b005b3480156101d057600080fd5b506101eb60048036038101906101e69190611ebd565b610672565b6040516101f9929190611f24565b60405180910390f35b34801561020e57600080fd5b5061022960048036038101906102249190611f4d565b610697565b60405161023893929190611fda565b60405180910390f35b34801561024d57600080fd5b506102686004803603810190610263919061206f565b6106c8565b60405161027591906120dd565b60405180910390f35b34801561028a57600080fd5b506102a560048036038101906102a091906120f8565b610763565b6040516102b3929190611f24565b60405180910390f35b3480156102c857600080fd5b506102e360048036038101906102de91906120f8565b610787565b6040516102f091906120dd565b60405180910390f35b34801561030557600080fd5b50610320600480360381019061031b9190612125565b6107a7565b60405161032e929190611f24565b60405180910390f35b34801561034357600080fd5b5061035e60048036038101906103599190612165565b61080b565b60405161036c929190611f24565b60405180910390f35b34801561038157600080fd5b5061039c600480360381019061039791906120f8565b61082e565b6040516103ac9493929190612205565b60405180910390f35b3480156103c157600080fd5b506103ca6108ba565b6040516103d79190611e44565b60405180910390f35b3480156103ec57600080fd5b506103f56108c0565b005b34801561040357600080fd5b5061041e6004803603810190610419919061206f565b6108d4565b005b34801561042c57600080fd5b50610435610c63565b6040516104429190611e44565b60405180910390f35b34801561045757600080fd5b50610460610c69565b60405161046d919061224a565b60405180910390f35b34801561048257600080fd5b5061049d60048036038101906104989190611ebd565b610c92565b6040516104ab929190611f24565b60405180910390f35b3480156104c057600080fd5b506104c9610cb7565b6040516104d69190611e44565b60405180910390f35b6104f960048036038101906104f49190611e90565b610cbd565b005b34801561050757600080fd5b50610522600480360381019061051d9190611f4d565b610e90565b60405161053193929190611fda565b60405180910390f35b34801561054657600080fd5b5061054f610ec1565b005b34801561055d57600080fd5b5061057860048036038101906105739190611ebd565b611050565b60405161058591906120dd565b60405180910390f35b34801561059a57600080fd5b506105b560048036038101906105b091906120f8565b611085565b005b60035481565b60045481565b6105cb61110b565b60003373ffffffffffffffffffffffffffffffffffffffff16826040516105f190612296565b60006040518083038185875af1925050503d806000811461062e576040519150601f19603f3d011682016040523d82523d6000602084013e610633565b606091505b505090508061066e576040517fbf961a2800000000000000000000000000000000000000000000000000000000815260040160405180910390fd5b5050565b600080610686868686866000600154611192565b809250819350505094509492505050565b60008060006106a689876111c6565b92506106b488888787610672565b809250819350505096509650969350505050565b600061075a8284600860008873ffffffffffffffffffffffffffffffffffffffff1673ffffffffffffffffffffffffffffffffffffffff16815260200190815260200160002060000154600860008973ffffffffffffffffffffffffffffffffffffffff1673ffffffffffffffffffffffffffffffffffffffff16815260200190815260200160002060010154611050565b90509392505050565b60086020528060005260406000206000915090508060000154908060010154905082565b60066020528060005260406000206000915054906101000a900460ff1681565b6000806000806107be60055460035460045461080b565b915091506000806107d48860035460045461080b565b915091506000806107e689878761080b565b915091506107f684848484610c92565b80985081995050505050505050509250929050565b60008061081e85858560006001546111f5565b8092508193505050935093915050565b60076020528060005260406000206000915090508060000160009054906101000a900473ffffffffffffffffffffffffffffffffffffffff16908060010154908060020160405180604001604052908160008201548152602001600182015481525050908060040160405180604001604052908160008201548152602001600182015481525050905084565b60055481565b6108c861110b565b6108d2600061122f565b565b60001515600660003373ffffffffffffffffffffffffffffffffffffffff1673ffffffffffffffffffffffffffffffffffffffff16815260200190815260200160002060009054906101000a900460ff1615150361095e576040517faba4733900000000000000000000000000000000000000000000000000000000815260040160405180910390fd5b600760003373ffffffffffffffffffffffffffffffffffffffff1673ffffffffffffffffffffffffffffffffffffffff168152602001908152602001600020600101548211156109da576040517f356680b700000000000000000000000000000000000000000000000000000000815260040160405180910390fd5b6000806109e783856107a7565b91509150600080610a84600760003373ffffffffffffffffffffffffffffffffffffffff1673ffffffffffffffffffffffffffffffffffffffff16815260200190815260200160002060020160000154600760003373ffffffffffffffffffffffffffffffffffffffff1673ffffffffffffffffffffffffffffffffffffffff168152602001908152602001600020600201600101548686610672565b91509150604051806040016040528083815260200182815250600760003373ffffffffffffffffffffffffffffffffffffffff1673ffffffffffffffffffffffffffffffffffffffff1681526020019081526020016000206002016000820151816000015560208201518160010155905050600080610b89600860008b73ffffffffffffffffffffffffffffffffffffffff1673ffffffffffffffffffffffffffffffffffffffff16815260200190815260200160002060000154600860008c73ffffffffffffffffffffffffffffffffffffffff1673ffffffffffffffffffffffffffffffffffffffff168152602001908152602001600020600101548888610c92565b9150915081600860008b73ffffffffffffffffffffffffffffffffffffffff1673ffffffffffffffffffffffffffffffffffffffff1681526020019081526020016000206000018190555080600860008b73ffffffffffffffffffffffffffffffffffffffff1673ffffffffffffffffffffffffffffffffffffffff168152602001908152602001600020600101819055507f653d68bacda743e5d9efa1812a7749640f55f810b3970d2cd8f7344eebc591dd338a8888604051610c5094939291906122ab565b60405180910390a1505050505050505050565b60025481565b60008060009054906101000a900473ffffffffffffffffffffffffffffffffffffffff16905090565b600080610ca68686868660006001546112f3565b809250819350505094509492505050565b60015481565b60001515600660003373ffffffffffffffffffffffffffffffffffffffff1673ffffffffffffffffffffffffffffffffffffffff16815260200190815260200160002060009054906101000a900460ff16151503610d47576040517faba4733900000000000000000000000000000000000000000000000000000000815260040160405180910390fd5b600080610d5483346107a7565b91509150600080610df18484600760003373ffffffffffffffffffffffffffffffffffffffff1673ffffffffffffffffffffffffffffffffffffffff16815260200190815260200160002060040160000154600760003373ffffffffffffffffffffffffffffffffffffffff1673ffffffffffffffffffffffffffffffffffffffff16815260200190815260200160002060040160010154610c92565b9150915081600760003373ffffffffffffffffffffffffffffffffffffffff1673ffffffffffffffffffffffffffffffffffffffff1681526020019081526020016000206004016000018190555080600760003373ffffffffffffffffffffffffffffffffffffffff1673ffffffffffffffffffffffffffffffffffffffff168152602001908152602001600020600401600101819055505050505050565b6000806000610e9f8987611386565b9250610ead88888787610c92565b809250819350505096509650969350505050565b6001600660003373ffffffffffffffffffffffffffffffffffffffff1673ffffffffffffffffffffffffffffffffffffffff16815260200190815260200160002060006101000a81548160ff02191690831515021790555060405180608001604052803373ffffffffffffffffffffffffffffffffffffffff16815260200160008152602001604051806040016040528060008152602001600081525081526020016040518060400160405280600081526020016000815250815250600760003373ffffffffffffffffffffffffffffffffffffffff1673ffffffffffffffffffffffffffffffffffffffff16815260200190815260200160002060008201518160000160006101000a81548173ffffffffffffffffffffffffffffffffffffffff021916908373ffffffffffffffffffffffffffffffffffffffff160217905550602082015181600101556040820151816002016000820151816000015560208201518160010155505060608201518160040160008201518160000155602082015181600101555050905050565b600080600061105f87876107a7565b91509150818514801561107157508084145b1561107b57600192505b5050949350505050565b61108d61110b565b600073ffffffffffffffffffffffffffffffffffffffff168173ffffffffffffffffffffffffffffffffffffffff16036110ff5760006040517f1e4fbdf70000000000000000000000000000000000000000000000000000000081526004016110f6919061224a565b60405180910390fd5b6111088161122f565b50565b61111361139b565b73ffffffffffffffffffffffffffffffffffffffff16611131610c69565b73ffffffffffffffffffffffffffffffffffffffff16146111905761115461139b565b6040517f118cdaa7000000000000000000000000000000000000000000000000000000008152600401611187919061224a565b60405180910390fd5b565b6000806000806111a38888876113a3565b915091506111b58a8a84848a8a6112f3565b935093505050965096945050505050565b6000806001549050828410156111de57838303810391505b828411156111ee57808385030691505b5092915050565b600080600080600061120c8a8a8a60018b8b6113ca565b92509250925061121e83838389611469565b945094505050509550959350505050565b60008060009054906101000a900473ffffffffffffffffffffffffffffffffffffffff169050816000806101000a81548173ffffffffffffffffffffffffffffffffffffffff021916908373ffffffffffffffffffffffffffffffffffffffff1602179055508173ffffffffffffffffffffffffffffffffffffffff168173ffffffffffffffffffffffffffffffffffffffff167f8be0079c531659141344cd1fd0a4f28419497f9722a3daafe3b4186f6b6457e060405160405180910390a35050565b6000806000806000888b036113495760008680611313576113126122f0565b5b898c080361132a576000809450945050505061137b565b6113388b8b60018a8a6114e0565b809350819450829550505050611367565b61135a8b8b60018c8c60018c61169e565b8093508194508295505050505b61137383838389611469565b945094505050505b965096945050505050565b60008060015490508083850891505092915050565b600033905090565b600080848385856113b4919061234e565b6113be9190612382565b91509150935093915050565b60008060008089036113e45787878792509250925061145d565b60008990506000806000600190505b6000841461144f5760006001851614611422576114158383838f8f8f8e61169e565b8093508194508295505050505b60028461142f91906123b3565b935061143e8c8c8c8c8c6114e0565b809c50819d50829e505050506113f3565b828282965096509650505050505b96509650969350505050565b60008060006114788585611d1d565b90506000848061148b5761148a6122f0565b5b8283099050600085806114a1576114a06122f0565b5b828a099050600086806114b7576114b66122f0565b5b87806114c6576114c56122f0565b5b8486098a0990508181955095505050505094509492505050565b60008060008086036114fa57878787925092509250611693565b6000848061150b5761150a6122f0565b5b898a09905060008580611521576115206122f0565b5b898a09905060008680611537576115366122f0565b5b898a0990506000878061154d5761154c6122f0565b5b888061155c5761155b6122f0565b5b848e09600409905060008880611575576115746122f0565b5b8980611584576115836122f0565b5b8a80611593576115926122f0565b5b8586098c098a806115a7576115a66122f0565b5b8760030908905088806115bd576115bc6122f0565b5b89806115cc576115cb6122f0565b5b8384088a6115da919061234e565b8a806115e9576115e86122f0565b5b83840908945088806115fe576115fd6122f0565b5b898061160d5761160c6122f0565b5b8a8061161c5761161b6122f0565b5b8687096008098a61162d919061234e565b8a8061163c5761163b6122f0565b5b8b8061164b5761164a6122f0565b5b888d611657919061234e565b86088409089350888061166d5761166c6122f0565b5b898061167c5761167b6122f0565b5b8c8e09600209925084848497509750975050505050505b955095509592505050565b6000806000808a1480156116b25750600089145b156116c557868686925092509250611d10565b6000871480156116d55750600086145b156116e857898989925092509250611d10565b6116f0611e09565b84806116ff576116fe6122f0565b5b898a0981600060048110611716576117156123e4565b5b602002018181525050848061172e5761172d6122f0565b5b81600060048110611742576117416123e4565b5b60200201518a098160016004811061175d5761175c6123e4565b5b6020020181815250508480611775576117746122f0565b5b8687098160026004811061178c5761178b6123e4565b5b60200201818152505084806117a4576117a36122f0565b5b816002600481106117b8576117b76123e4565b5b60200201518709816003600481106117d3576117d26123e4565b5b602002018181525050604051806080016040528086806117f6576117f56122f0565b5b8360026004811061180a576118096123e4565b5b60200201518e0981526020018680611825576118246122f0565b5b83600360048110611839576118386123e4565b5b60200201518d0981526020018680611854576118536122f0565b5b83600060048110611868576118676123e4565b5b60200201518b0981526020018680611883576118826122f0565b5b83600160048110611897576118966123e4565b5b60200201518a098152509050806002600481106118b7576118b66123e4565b5b6020020151816000600481106118d0576118cf6123e4565b5b60200201511415806119125750806003600481106118f1576118f06123e4565b5b60200201518160016004811061190a576119096123e4565b5b602002015114155b611951576040517f08c379a000000000000000000000000000000000000000000000000000000000815260040161194890612470565b60405180910390fd5b611959611e09565b8580611968576119676122f0565b5b8260006004811061197c5761197b6123e4565b5b60200201518761198c919061234e565b836002600481106119a05761199f6123e4565b5b602002015108816000600481106119ba576119b96123e4565b5b60200201818152505085806119d2576119d16122f0565b5b826001600481106119e6576119e56123e4565b5b6020020151876119f6919061234e565b83600360048110611a0a57611a096123e4565b5b60200201510881600160048110611a2457611a236123e4565b5b6020020181815250508580611a3c57611a3b6122f0565b5b81600060048110611a5057611a4f6123e4565b5b602002015182600060048110611a6957611a686123e4565b5b60200201510981600260048110611a8357611a826123e4565b5b6020020181815250508580611a9b57611a9a6122f0565b5b81600060048110611aaf57611aae6123e4565b5b602002015182600260048110611ac857611ac76123e4565b5b60200201510981600360048110611ae257611ae16123e4565b5b60200201818152505060008680611afc57611afb6122f0565b5b82600360048110611b1057611b0f6123e4565b5b602002015188611b20919061234e565b8880611b2f57611b2e6122f0565b5b84600160048110611b4357611b426123e4565b5b602002015185600160048110611b5c57611b5b6123e4565b5b6020020151090890508680611b7457611b736122f0565b5b8780611b8357611b826122f0565b5b8880611b9257611b916122f0565b5b84600260048110611ba657611ba56123e4565b5b602002015186600060048110611bbf57611bbe6123e4565b5b60200201510960020988611bd3919061234e565b8208905060008780611be857611be76122f0565b5b8880611bf757611bf66122f0565b5b838a611c03919061234e565b8a80611c1257611c116122f0565b5b86600260048110611c2657611c256123e4565b5b602002015188600060048110611c3f57611c3e6123e4565b5b6020020151090884600160048110611c5a57611c596123e4565b5b60200201510990508780611c7157611c706122f0565b5b8880611c8057611c7f6122f0565b5b84600360048110611c9457611c936123e4565b5b602002015186600160048110611cad57611cac6123e4565b5b60200201510989611cbe919061234e565b8208905060008880611cd357611cd26122f0565b5b8980611ce257611ce16122f0565b5b8b8f0985600060048110611cf957611cf86123e4565b5b602002015109905082828297509750975050505050505b9750975097945050505050565b6000808314158015611d2f5750818314155b8015611d3c575060008214155b611d7b576040517f08c379a0000000000000000000000000000000000000000000000000000000008152600401611d72906124dc565b60405180910390fd5b60008060019050600084905060005b60008714611dfc578682611d9e91906123b3565b9050828680611db057611daf6122f0565b5b8780611dbf57611dbe6122f0565b5b85840988611dcd919061234e565b86088094508195505050868782611de491906124fc565b83611def919061234e565b8098508193505050611d8a565b8394505050505092915050565b6040518060800160405280600490602082028036833780820191505090505090565b6000819050919050565b611e3e81611e2b565b82525050565b6000602082019050611e596000830184611e35565b92915050565b600080fd5b611e6d81611e2b565b8114611e7857600080fd5b50565b600081359050611e8a81611e64565b92915050565b600060208284031215611ea657611ea5611e5f565b5b6000611eb484828501611e7b565b91505092915050565b60008060008060808587031215611ed757611ed6611e5f565b5b6000611ee587828801611e7b565b9450506020611ef687828801611e7b565b9350506040611f0787828801611e7b565b9250506060611f1887828801611e7b565b91505092959194509250565b6000604082019050611f396000830185611e35565b611f466020830184611e35565b9392505050565b60008060008060008060c08789031215611f6a57611f69611e5f565b5b6000611f7889828a01611e7b565b9650506020611f8989828a01611e7b565b9550506040611f9a89828a01611e7b565b9450506060611fab89828a01611e7b565b9350506080611fbc89828a01611e7b565b92505060a0611fcd89828a01611e7b565b9150509295509295509295565b6000606082019050611fef6000830186611e35565b611ffc6020830185611e35565b6120096040830184611e35565b949350505050565b600073ffffffffffffffffffffffffffffffffffffffff82169050919050565b600061203c82612011565b9050919050565b61204c81612031565b811461205757600080fd5b50565b60008135905061206981612043565b92915050565b60008060006060848603121561208857612087611e5f565b5b60006120968682870161205a565b93505060206120a786828701611e7b565b92505060406120b886828701611e7b565b9150509250925092565b60008115159050919050565b6120d7816120c2565b82525050565b60006020820190506120f260008301846120ce565b92915050565b60006020828403121561210e5761210d611e5f565b5b600061211c8482850161205a565b91505092915050565b6000806040838503121561213c5761213b611e5f565b5b600061214a85828601611e7b565b925050602061215b85828601611e7b565b9150509250929050565b60008060006060848603121561217e5761217d611e5f565b5b600061218c86828701611e7b565b935050602061219d86828701611e7b565b92505060406121ae86828701611e7b565b9150509250925092565b6121c181612031565b82525050565b6121d081611e2b565b82525050565b6040820160008201516121ec60008501826121c7565b5060208201516121ff60208501826121c7565b50505050565b600060c08201905061221a60008301876121b8565b6122276020830186611e35565b61223460408301856121d6565b61224160808301846121d6565b95945050505050565b600060208201905061225f60008301846121b8565b92915050565b600081905092915050565b50565b6000612280600083612265565b915061228b82612270565b600082019050919050565b60006122a182612273565b9150819050919050565b60006080820190506122c060008301876121b8565b6122cd60208301866121b8565b6122da6040830185611e35565b6122e76060830184611e35565b95945050505050565b7f4e487b7100000000000000000000000000000000000000000000000000000000600052601260045260246000fd5b7f4e487b7100000000000000000000000000000000000000000000000000000000600052601160045260246000fd5b600061235982611e2b565b915061236483611e2b565b925082820390508181111561237c5761237b61231f565b5b92915050565b600061238d82611e2b565b915061239883611e2b565b9250826123a8576123a76122f0565b5b828206905092915050565b60006123be82611e2b565b91506123c983611e2b565b9250826123d9576123d86122f0565b5b828204905092915050565b7f4e487b7100000000000000000000000000000000000000000000000000000000600052603260045260246000fd5b600082825260208201905092915050565b7f557365206a6163446f75626c652066756e6374696f6e20696e73746561640000600082015250565b600061245a601e83612413565b915061246582612424565b602082019050919050565b600060208201905081810360008301526124898161244d565b9050919050565b7f496e76616c6964206e756d626572000000000000000000000000000000000000600082015250565b60006124c6600e83612413565b91506124d182612490565b602082019050919050565b600060208201905081810360008301526124f5816124b9565b9050919050565b600061250782611e2b565b915061251283611e2b565b925082820261252081611e2b565b915082820484148315176125375761253661231f565b5b509291505056fea26469706673582212208ece3692206b9b7b77aaf5e9ce3bf36d63580d12a091975015959b213ef9b78064736f6c63430008140033",
  "linkReferences": {},
  "deployedLinkReferences": {}
}