{
  "_format": "hh-sol-artifact-1",
  "contractName": "EllipticCurveParameters",
  "sourceName": "contracts/EllipticCurveParameters.sol",
  "abi": [
    {
      "inputs": [
        {
          "internalType": "uint256",
          "name": "_x1",
          "type": "uint256"
        },
        {
          "internalType": "uint256",
          "name": "_y1",
          "type": "uint256"
        },
        {
          "internalType": "uint256",
          "name": "_x2",
          "type": "uint256"
        },
        {
          "internalType": "uint256",
          "name": "_y2",
          "type": "uint256"
        }
      ],
      "name": "eAdd",
      "outputs": [
        {
          "internalType": "uint256",
          "name": "_x3",
          "type": "uint256"
        },
        {
          "internalType": "uint256",
          "name": "_y3",
          "type": "uint256"
        }
      ],
      "stateMutability": "view",
      "type": "function"
    },
    {
      "inputs": [
        {
          "internalType": "uint256",
          "name": "_z",
          "type": "uint256"
        },
        {
          "internalType": "uint256",
          "name": "_x1",
          "type": "uint256"
        },
        {
          "internalType": "uint256",
          "name": "_y1",
          "type": "uint256"
        }
      ],
      "name": "eMul",
      "outputs": [
        {
          "internalType": "uint256",
          "name": "_x2",
          "type": "uint256"
        },
        {
          "internalType": "uint256",
          "name": "_y2",
          "type": "uint256"
        }
      ],
      "stateMutability": "view",
      "type": "function"
    },
    {
      "inputs": [
        {
          "internalType": "uint256",
          "name": "_x1",
          "type": "uint256"
        },
        {
          "internalType": "uint256",
          "name": "_y1",
          "type": "uint256"
        },
        {
          "internalType": "uint256",
          "name": "_x2",
          "type": "uint256"
        },
        {
          "internalType": "uint256",
          "name": "_y2",
          "type": "uint256"
        }
      ],
      "name": "eSub",
      "outputs": [
        {
          "internalType": "uint256",
          "name": "_x3",
          "type": "uint256"
        },
        {
          "internalType": "uint256",
          "name": "_y3",
          "type": "uint256"
        }
      ],
      "stateMutability": "view",
      "type": "function"
    },
    {
      "inputs": [],
      "name": "gx",
      "outputs": [
        {
          "internalType": "uint256",
          "name": "",
          "type": "uint256"
        }
      ],
      "stateMutability": "view",
      "type": "function"
    },
    {
      "inputs": [],
      "name": "gy",
      "outputs": [
        {
          "internalType": "uint256",
          "name": "",
          "type": "uint256"
        }
      ],
      "stateMutability": "view",
      "type": "function"
    },
    {
      "inputs": [],
      "name": "nn",
      "outputs": [
        {
          "internalType": "uint256",
          "name": "",
          "type": "uint256"
        }
      ],
      "stateMutability": "view",
      "type": "function"
    },
    {
      "inputs": [],
      "name": "pp",
      "outputs": [
        {
          "internalType": "uint256",
          "name": "",
          "type": "uint256"
        }
      ],
      "stateMutability": "view",
      "type": "function"
    }
  ],
  "bytecode": "0x60806040527ffffffffffffffffffffffffffffffffffffffffffffffffffffffffefffffc2f6000557ffffffffffffffffffffffffffffffffebaaedce6af48a03bbfd25e8cd03641416001557f79be667ef9dcbbac55a06295ce870b07029bfcdb2dce28d959f2815b16f817986002557f483ada7726a3c4655da4fbfc0e1108a8fd17b448a68554199c47d08ffb10d4b86003553480156100a057600080fd5b50611164806100b06000396000f3fe608060405234801561001057600080fd5b506004361061007d5760003560e01c806366da27af1161005b57806366da27af146100ef57806372a4c30f146101205780638e833f0d1461013e57806391327ec61461016f5761007d565b806306c91ce3146100825780632d58c9a2146100a057806330f32349146100be575b600080fd5b61008a61018d565b6040516100979190610db1565b60405180910390f35b6100a8610193565b6040516100b59190610db1565b60405180910390f35b6100d860048036038101906100d39190610dfd565b610199565b6040516100e6929190610e64565b60405180910390f35b61010960048036038101906101049190610e8d565b6101bd565b604051610117929190610e64565b60405180910390f35b6101286101df565b6040516101359190610db1565b60405180910390f35b61015860048036038101906101539190610dfd565b6101e5565b604051610166929190610e64565b60405180910390f35b610177610209565b6040516101849190610db1565b60405180910390f35b60025481565b60035481565b6000806101ac868686866000805461020f565b809250819350505094509492505050565b6000806101cf85858560008054610243565b8092508193505050935093915050565b60015481565b6000806101f8868686866000805461027d565b809250819350505094509492505050565b60005481565b600080600080610220888887610310565b915091506102328a8a84848a8a61027d565b935093505050965096945050505050565b600080600080600061025a8a8a8a60018b8b610337565b92509250925061026c838383896103d6565b945094505050509550959350505050565b6000806000806000888b036102d3576000868061029d5761029c610ee0565b5b898c08036102b45760008094509450505050610305565b6102c28b8b60018a8a61044d565b8093508194508295505050506102f1565b6102e48b8b60018c8c60018c61060b565b8093508194508295505050505b6102fd838383896103d6565b945094505050505b965096945050505050565b600080848385856103219190610f3e565b61032b9190610f72565b91509150935093915050565b6000806000808903610351578787879250925092506103ca565b60008990506000806000600190505b600084146103bc576000600185161461038f576103828383838f8f8f8e61060b565b8093508194508295505050505b60028461039c9190610fa3565b93506103ab8c8c8c8c8c61044d565b809c50819d50829e50505050610360565b828282965096509650505050505b96509650969350505050565b60008060006103e58585610c8a565b9050600084806103f8576103f7610ee0565b5b82830990506000858061040e5761040d610ee0565b5b828a0990506000868061042457610423610ee0565b5b878061043357610432610ee0565b5b8486098a0990508181955095505050505094509492505050565b600080600080860361046757878787925092509250610600565b6000848061047857610477610ee0565b5b898a0990506000858061048e5761048d610ee0565b5b898a099050600086806104a4576104a3610ee0565b5b898a099050600087806104ba576104b9610ee0565b5b88806104c9576104c8610ee0565b5b848e096004099050600088806104e2576104e1610ee0565b5b89806104f1576104f0610ee0565b5b8a80610500576104ff610ee0565b5b8586098c098a8061051457610513610ee0565b5b87600309089050888061052a57610529610ee0565b5b898061053957610538610ee0565b5b8384088a6105479190610f3e565b8a8061055657610555610ee0565b5b838409089450888061056b5761056a610ee0565b5b898061057a57610579610ee0565b5b8a8061058957610588610ee0565b5b8687096008098a61059a9190610f3e565b8a806105a9576105a8610ee0565b5b8b806105b8576105b7610ee0565b5b888d6105c49190610f3e565b8608840908935088806105da576105d9610ee0565b5b89806105e9576105e8610ee0565b5b8c8e09600209925084848497509750975050505050505b955095509592505050565b6000806000808a14801561061f5750600089145b1561063257868686925092509250610c7d565b6000871480156106425750600086145b1561065557898989925092509250610c7d565b61065d610d76565b848061066c5761066b610ee0565b5b898a098160006004811061068357610682610fd4565b5b602002018181525050848061069b5761069a610ee0565b5b816000600481106106af576106ae610fd4565b5b60200201518a09816001600481106106ca576106c9610fd4565b5b60200201818152505084806106e2576106e1610ee0565b5b868709816002600481106106f9576106f8610fd4565b5b602002018181525050848061071157610710610ee0565b5b8160026004811061072557610724610fd4565b5b60200201518709816003600481106107405761073f610fd4565b5b6020020181815250506040518060800160405280868061076357610762610ee0565b5b8360026004811061077757610776610fd4565b5b60200201518e098152602001868061079257610791610ee0565b5b836003600481106107a6576107a5610fd4565b5b60200201518d09815260200186806107c1576107c0610ee0565b5b836000600481106107d5576107d4610fd4565b5b60200201518b09815260200186806107f0576107ef610ee0565b5b8360016004811061080457610803610fd4565b5b60200201518a0981525090508060026004811061082457610823610fd4565b5b60200201518160006004811061083d5761083c610fd4565b5b602002015114158061087f57508060036004811061085e5761085d610fd4565b5b60200201518160016004811061087757610876610fd4565b5b602002015114155b6108be576040517f08c379a00000000000000000000000000000000000000000000000000000000081526004016108b590611060565b60405180910390fd5b6108c6610d76565b85806108d5576108d4610ee0565b5b826000600481106108e9576108e8610fd4565b5b6020020151876108f99190610f3e565b8360026004811061090d5761090c610fd4565b5b6020020151088160006004811061092757610926610fd4565b5b602002018181525050858061093f5761093e610ee0565b5b8260016004811061095357610952610fd4565b5b6020020151876109639190610f3e565b8360036004811061097757610976610fd4565b5b6020020151088160016004811061099157610990610fd4565b5b60200201818152505085806109a9576109a8610ee0565b5b816000600481106109bd576109bc610fd4565b5b6020020151826000600481106109d6576109d5610fd4565b5b602002015109816002600481106109f0576109ef610fd4565b5b6020020181815250508580610a0857610a07610ee0565b5b81600060048110610a1c57610a1b610fd4565b5b602002015182600260048110610a3557610a34610fd4565b5b60200201510981600360048110610a4f57610a4e610fd4565b5b60200201818152505060008680610a6957610a68610ee0565b5b82600360048110610a7d57610a7c610fd4565b5b602002015188610a8d9190610f3e565b8880610a9c57610a9b610ee0565b5b84600160048110610ab057610aaf610fd4565b5b602002015185600160048110610ac957610ac8610fd4565b5b6020020151090890508680610ae157610ae0610ee0565b5b8780610af057610aef610ee0565b5b8880610aff57610afe610ee0565b5b84600260048110610b1357610b12610fd4565b5b602002015186600060048110610b2c57610b2b610fd4565b5b60200201510960020988610b409190610f3e565b8208905060008780610b5557610b54610ee0565b5b8880610b6457610b63610ee0565b5b838a610b709190610f3e565b8a80610b7f57610b7e610ee0565b5b86600260048110610b9357610b92610fd4565b5b602002015188600060048110610bac57610bab610fd4565b5b6020020151090884600160048110610bc757610bc6610fd4565b5b60200201510990508780610bde57610bdd610ee0565b5b8880610bed57610bec610ee0565b5b84600360048110610c0157610c00610fd4565b5b602002015186600160048110610c1a57610c19610fd4565b5b60200201510989610c2b9190610f3e565b8208905060008880610c4057610c3f610ee0565b5b8980610c4f57610c4e610ee0565b5b8b8f0985600060048110610c6657610c65610fd4565b5b602002015109905082828297509750975050505050505b9750975097945050505050565b6000808314158015610c9c5750818314155b8015610ca9575060008214155b610ce8576040517f08c379a0000000000000000000000000000000000000000000000000000000008152600401610cdf906110cc565b60405180910390fd5b60008060019050600084905060005b60008714610d69578682610d0b9190610fa3565b9050828680610d1d57610d1c610ee0565b5b8780610d2c57610d2b610ee0565b5b85840988610d3a9190610f3e565b86088094508195505050868782610d5191906110ec565b83610d5c9190610f3e565b8098508193505050610cf7565b8394505050505092915050565b6040518060800160405280600490602082028036833780820191505090505090565b6000819050919050565b610dab81610d98565b82525050565b6000602082019050610dc66000830184610da2565b92915050565b600080fd5b610dda81610d98565b8114610de557600080fd5b50565b600081359050610df781610dd1565b92915050565b60008060008060808587031215610e1757610e16610dcc565b5b6000610e2587828801610de8565b9450506020610e3687828801610de8565b9350506040610e4787828801610de8565b9250506060610e5887828801610de8565b91505092959194509250565b6000604082019050610e796000830185610da2565b610e866020830184610da2565b9392505050565b600080600060608486031215610ea657610ea5610dcc565b5b6000610eb486828701610de8565b9350506020610ec586828701610de8565b9250506040610ed686828701610de8565b9150509250925092565b7f4e487b7100000000000000000000000000000000000000000000000000000000600052601260045260246000fd5b7f4e487b7100000000000000000000000000000000000000000000000000000000600052601160045260246000fd5b6000610f4982610d98565b9150610f5483610d98565b9250828203905081811115610f6c57610f6b610f0f565b5b92915050565b6000610f7d82610d98565b9150610f8883610d98565b925082610f9857610f97610ee0565b5b828206905092915050565b6000610fae82610d98565b9150610fb983610d98565b925082610fc957610fc8610ee0565b5b828204905092915050565b7f4e487b7100000000000000000000000000000000000000000000000000000000600052603260045260246000fd5b600082825260208201905092915050565b7f557365206a6163446f75626c652066756e6374696f6e20696e73746561640000600082015250565b600061104a601e83611003565b915061105582611014565b602082019050919050565b600060208201905081810360008301526110798161103d565b9050919050565b7f496e76616c6964206e756d626572000000000000000000000000000000000000600082015250565b60006110b6600e83611003565b91506110c182611080565b602082019050919050565b600060208201905081810360008301526110e5816110a9565b9050919050565b60006110f782610d98565b915061110283610d98565b925082820261111081610d98565b9150828204841483151761112757611126610f0f565b5b509291505056fea2646970667358221220627cc5875e9d3768c13a7ae1785cbc4d55952df79b9c9ba7736ef51048831eb664736f6c63430008140033",
  "linkReferences": {},
  "deployedLinkReferences": {}
}