{
  "_format": "hh-sol-artifact-1",
  "contractName": "PedersenCommitment",
  "sourceName": "contracts/PedersenCommitment.sol",
  "abi": [
    {
      "inputs": [],
      "name": "H",
      "outputs": [
        {
          "internalType": "uint256",
          "name": "",
          "type": "uint256"
        }
      ],
      "stateMutability": "view",
      "type": "function"
    },
    {
      "inputs": [
        {
          "internalType": "uint256",
          "name": "_r1",
          "type": "uint256"
        },
        {
          "internalType": "uint256",
          "name": "_x1",
          "type": "uint256"
        },
        {
          "internalType": "uint256",
          "name": "_y1",
          "type": "uint256"
        },
        {
          "internalType": "uint256",
          "name": "_r2",
          "type": "uint256"
        },
        {
          "internalType": "uint256",
          "name": "_x2",
          "type": "uint256"
        },
        {
          "internalType": "uint256",
          "name": "_y2",
          "type": "uint256"
        }
      ],
      "name": "addCommitment",
      "outputs": [
        {
          "internalType": "uint256",
          "name": "_r3",
          "type": "uint256"
        },
        {
          "internalType": "uint256",
          "name": "_x3",
          "type": "uint256"
        },
        {
          "internalType": "uint256",
          "name": "_y3",
          "type": "uint256"
        }
      ],
      "stateMutability": "view",
      "type": "function"
    },
    {
      "inputs": [
        {
          "internalType": "uint256",
          "name": "_r",
          "type": "uint256"
        },
        {
          "internalType": "uint256",
          "name": "_v",
          "type": "uint256"
        }
      ],
      "name": "commit",
      "outputs": [
        {
          "internalType": "uint256",
          "name": "_x3",
          "type": "uint256"
        },
        {
          "internalType": "uint256",
          "name": "_y3",
          "type": "uint256"
        }
      ],
      "stateMutability": "view",
      "type": "function"
    },
    {
      "inputs": [
        {
          "internalType": "uint256",
          "name": "_x1",
          "type": "uint256"
        },
        {
          "internalType": "uint256",
          "name": "_y1",
          "type": "uint256"
        },
        {
          "internalType": "uint256",
          "name": "_x2",
          "type": "uint256"
        },
        {
          "internalType": "uint256",
          "name": "_y2",
          "type": "uint256"
        }
      ],
      "name": "eAdd",
      "outputs": [
        {
          "internalType": "uint256",
          "name": "_x3",
          "type": "uint256"
        },
        {
          "internalType": "uint256",
          "name": "_y3",
          "type": "uint256"
        }
      ],
      "stateMutability": "view",
      "type": "function"
    },
    {
      "inputs": [
        {
          "internalType": "uint256",
          "name": "_z",
          "type": "uint256"
        },
        {
          "internalType": "uint256",
          "name": "_x1",
          "type": "uint256"
        },
        {
          "internalType": "uint256",
          "name": "_y1",
          "type": "uint256"
        }
      ],
      "name": "eMul",
      "outputs": [
        {
          "internalType": "uint256",
          "name": "_x2",
          "type": "uint256"
        },
        {
          "internalType": "uint256",
          "name": "_y2",
          "type": "uint256"
        }
      ],
      "stateMutability": "view",
      "type": "function"
    },
    {
      "inputs": [
        {
          "internalType": "uint256",
          "name": "_x1",
          "type": "uint256"
        },
        {
          "internalType": "uint256",
          "name": "_y1",
          "type": "uint256"
        },
        {
          "internalType": "uint256",
          "name": "_x2",
          "type": "uint256"
        },
        {
          "internalType": "uint256",
          "name": "_y2",
          "type": "uint256"
        }
      ],
      "name": "eSub",
      "outputs": [
        {
          "internalType": "uint256",
          "name": "_x3",
          "type": "uint256"
        },
        {
          "internalType": "uint256",
          "name": "_y3",
          "type": "uint256"
        }
      ],
      "stateMutability": "view",
      "type": "function"
    },
    {
      "inputs": [],
      "name": "gx",
      "outputs": [
        {
          "internalType": "uint256",
          "name": "",
          "type": "uint256"
        }
      ],
      "stateMutability": "view",
      "type": "function"
    },
    {
      "inputs": [],
      "name": "gy",
      "outputs": [
        {
          "internalType": "uint256",
          "name": "",
          "type": "uint256"
        }
      ],
      "stateMutability": "view",
      "type": "function"
    },
    {
      "inputs": [],
      "name": "nn",
      "outputs": [
        {
          "internalType": "uint256",
          "name": "",
          "type": "uint256"
        }
      ],
      "stateMutability": "view",
      "type": "function"
    },
    {
      "inputs": [],
      "name": "pp",
      "outputs": [
        {
          "internalType": "uint256",
          "name": "",
          "type": "uint256"
        }
      ],
      "stateMutability": "view",
      "type": "function"
    },
    {
      "inputs": [
        {
          "internalType": "uint256",
          "name": "_r1",
          "type": "uint256"
        },
        {
          "internalType": "uint256",
          "name": "_x1",
          "type": "uint256"
        },
        {
          "internalType": "uint256",
          "name": "_y1",
          "type": "uint256"
        },
        {
          "internalType": "uint256",
          "name": "_r2",
          "type": "uint256"
        },
        {
          "internalType": "uint256",
          "name": "_x2",
          "type": "uint256"
        },
        {
          "internalType": "uint256",
          "name": "_y2",
          "type": "uint256"
        }
      ],
      "name": "subCommitment",
      "outputs": [
        {
          "internalType": "uint256",
          "name": "_r3",
          "type": "uint256"
        },
        {
          "internalType": "uint256",
          "name": "_x3",
          "type": "uint256"
        },
        {
          "internalType": "uint256",
          "name": "_y3",
          "type": "uint256"
        }
      ],
      "stateMutability": "view",
      "type": "function"
    },
    {
      "inputs": [
        {
          "internalType": "uint256",
          "name": "_r",
          "type": "uint256"
        },
        {
          "internalType": "uint256",
          "name": "_v",
          "type": "uint256"
        },
        {
          "internalType": "uint256",
          "name": "_x1",
          "type": "uint256"
        },
        {
          "internalType": "uint256",
          "name": "_y1",
          "type": "uint256"
        }
      ],
      "name": "verify",
      "outputs": [
        {
          "internalType": "bool",
          "name": "result",
          "type": "bool"
        }
      ],
      "stateMutability": "view",
      "type": "function"
    }
  ],
  "bytecode": "0x60806040527ffffffffffffffffffffffffffffffffffffffffffffffffffffffffefffffc2f6000557ffffffffffffffffffffffffffffffffebaaedce6af48a03bbfd25e8cd03641416001557f79be667ef9dcbbac55a06295ce870b07029bfcdb2dce28d959f2815b16f817986002557f483ada7726a3c4655da4fbfc0e1108a8fd17b448a68554199c47d08ffb10d4b86003553480156100a057600080fd5b506114fd806100b06000396000f3fe608060405234801561001057600080fd5b50600436106100b45760003560e01c806370a5d8611161007157806370a5d861146101ba57806372a4c30f146101d85780638e833f0d146101f657806391327ec614610227578063a9c5afbc14610245578063dafbb22514610277576100b4565b806306c91ce3146100b95780632d58c9a2146100d757806330f32349146100f5578063422ae5bb146101265780635bf56bc41461015857806366da27af14610189575b600080fd5b6100c16102a7565b6040516100ce9190611010565b60405180910390f35b6100df6102ad565b6040516100ec9190611010565b60405180910390f35b61010f600480360381019061010a919061105c565b6102b3565b60405161011d9291906110c3565b60405180910390f35b610140600480360381019061013b91906110ec565b6102d7565b60405161014f93929190611179565b60405180910390f35b610172600480360381019061016d91906111b0565b610308565b6040516101809291906110c3565b60405180910390f35b6101a3600480360381019061019e91906111f0565b61036c565b6040516101b19291906110c3565b60405180910390f35b6101c261038e565b6040516101cf9190611010565b60405180910390f35b6101e0610394565b6040516101ed9190611010565b60405180910390f35b610210600480360381019061020b919061105c565b61039a565b60405161021e9291906110c3565b60405180910390f35b61022f6103be565b60405161023c9190611010565b60405180910390f35b61025f600480360381019061025a91906110ec565b6103c4565b60405161026e93929190611179565b60405180910390f35b610291600480360381019061028c919061105c565b6103f5565b60405161029e919061125e565b60405180910390f35b60025481565b60035481565b6000806102c6868686866000805461042a565b809250819350505094509492505050565b60008060006102e6898761045e565b92506102f4888887876102b3565b809250819350505096509650969350505050565b60008060008061031f60045460025460035461036c565b915091506000806103358860025460035461036c565b9150915060008061034789878761036c565b915091506103578484848461039a565b80985081995050505050505050509250929050565b60008061037e8585856000805461048d565b8092508193505050935093915050565b60045481565b60015481565b6000806103ad86868686600080546104c7565b809250819350505094509492505050565b60005481565b60008060006103d3898761055a565b92506103e18888878761039a565b809250819350505096509650969350505050565b60008060006104048787610308565b91509150818514801561041657508084145b1561042057600192505b5050949350505050565b60008060008061043b88888761056f565b9150915061044d8a8a84848a8a6104c7565b935093505050965096945050505050565b60008060005490508284101561047657838303810391505b8284111561048657808385030691505b5092915050565b60008060008060006104a48a8a8a60018b8b610596565b9250925092506104b683838389610635565b945094505050509550959350505050565b6000806000806000888b0361051d57600086806104e7576104e6611279565b5b898c08036104fe576000809450945050505061054f565b61050c8b8b60018a8a6106ac565b80935081945082955050505061053b565b61052e8b8b60018c8c60018c61086a565b8093508194508295505050505b61054783838389610635565b945094505050505b965096945050505050565b60008060005490508083850891505092915050565b6000808483858561058091906112d7565b61058a919061130b565b91509150935093915050565b60008060008089036105b057878787925092509250610629565b60008990506000806000600190505b6000841461061b57600060018516146105ee576105e18383838f8f8f8e61086a565b8093508194508295505050505b6002846105fb919061133c565b935061060a8c8c8c8c8c6106ac565b809c50819d50829e505050506105bf565b828282965096509650505050505b96509650969350505050565b60008060006106448585610ee9565b90506000848061065757610656611279565b5b82830990506000858061066d5761066c611279565b5b828a0990506000868061068357610682611279565b5b878061069257610691611279565b5b8486098a0990508181955095505050505094509492505050565b60008060008086036106c65787878792509250925061085f565b600084806106d7576106d6611279565b5b898a099050600085806106ed576106ec611279565b5b898a0990506000868061070357610702611279565b5b898a0990506000878061071957610718611279565b5b888061072857610727611279565b5b848e0960040990506000888061074157610740611279565b5b89806107505761074f611279565b5b8a8061075f5761075e611279565b5b8586098c098a8061077357610772611279565b5b87600309089050888061078957610788611279565b5b898061079857610797611279565b5b8384088a6107a691906112d7565b8a806107b5576107b4611279565b5b83840908945088806107ca576107c9611279565b5b89806107d9576107d8611279565b5b8a806107e8576107e7611279565b5b8687096008098a6107f991906112d7565b8a8061080857610807611279565b5b8b8061081757610816611279565b5b888d61082391906112d7565b86088409089350888061083957610838611279565b5b898061084857610847611279565b5b8c8e09600209925084848497509750975050505050505b955095509592505050565b6000806000808a14801561087e5750600089145b1561089157868686925092509250610edc565b6000871480156108a15750600086145b156108b457898989925092509250610edc565b6108bc610fd5565b84806108cb576108ca611279565b5b898a09816000600481106108e2576108e161136d565b5b60200201818152505084806108fa576108f9611279565b5b8160006004811061090e5761090d61136d565b5b60200201518a09816001600481106109295761092861136d565b5b602002018181525050848061094157610940611279565b5b868709816002600481106109585761095761136d565b5b60200201818152505084806109705761096f611279565b5b816002600481106109845761098361136d565b5b602002015187098160036004811061099f5761099e61136d565b5b602002018181525050604051806080016040528086806109c2576109c1611279565b5b836002600481106109d6576109d561136d565b5b60200201518e09815260200186806109f1576109f0611279565b5b83600360048110610a0557610a0461136d565b5b60200201518d0981526020018680610a2057610a1f611279565b5b83600060048110610a3457610a3361136d565b5b60200201518b0981526020018680610a4f57610a4e611279565b5b83600160048110610a6357610a6261136d565b5b60200201518a09815250905080600260048110610a8357610a8261136d565b5b602002015181600060048110610a9c57610a9b61136d565b5b6020020151141580610ade575080600360048110610abd57610abc61136d565b5b602002015181600160048110610ad657610ad561136d565b5b602002015114155b610b1d576040517f08c379a0000000000000000000000000000000000000000000000000000000008152600401610b14906113f9565b60405180910390fd5b610b25610fd5565b8580610b3457610b33611279565b5b82600060048110610b4857610b4761136d565b5b602002015187610b5891906112d7565b83600260048110610b6c57610b6b61136d565b5b60200201510881600060048110610b8657610b8561136d565b5b6020020181815250508580610b9e57610b9d611279565b5b82600160048110610bb257610bb161136d565b5b602002015187610bc291906112d7565b83600360048110610bd657610bd561136d565b5b60200201510881600160048110610bf057610bef61136d565b5b6020020181815250508580610c0857610c07611279565b5b81600060048110610c1c57610c1b61136d565b5b602002015182600060048110610c3557610c3461136d565b5b60200201510981600260048110610c4f57610c4e61136d565b5b6020020181815250508580610c6757610c66611279565b5b81600060048110610c7b57610c7a61136d565b5b602002015182600260048110610c9457610c9361136d565b5b60200201510981600360048110610cae57610cad61136d565b5b60200201818152505060008680610cc857610cc7611279565b5b82600360048110610cdc57610cdb61136d565b5b602002015188610cec91906112d7565b8880610cfb57610cfa611279565b5b84600160048110610d0f57610d0e61136d565b5b602002015185600160048110610d2857610d2761136d565b5b6020020151090890508680610d4057610d3f611279565b5b8780610d4f57610d4e611279565b5b8880610d5e57610d5d611279565b5b84600260048110610d7257610d7161136d565b5b602002015186600060048110610d8b57610d8a61136d565b5b60200201510960020988610d9f91906112d7565b8208905060008780610db457610db3611279565b5b8880610dc357610dc2611279565b5b838a610dcf91906112d7565b8a80610dde57610ddd611279565b5b86600260048110610df257610df161136d565b5b602002015188600060048110610e0b57610e0a61136d565b5b6020020151090884600160048110610e2657610e2561136d565b5b60200201510990508780610e3d57610e3c611279565b5b8880610e4c57610e4b611279565b5b84600360048110610e6057610e5f61136d565b5b602002015186600160048110610e7957610e7861136d565b5b60200201510989610e8a91906112d7565b8208905060008880610e9f57610e9e611279565b5b8980610eae57610ead611279565b5b8b8f0985600060048110610ec557610ec461136d565b5b602002015109905082828297509750975050505050505b9750975097945050505050565b6000808314158015610efb5750818314155b8015610f08575060008214155b610f47576040517f08c379a0000000000000000000000000000000000000000000000000000000008152600401610f3e90611465565b60405180910390fd5b60008060019050600084905060005b60008714610fc8578682610f6a919061133c565b9050828680610f7c57610f7b611279565b5b8780610f8b57610f8a611279565b5b85840988610f9991906112d7565b86088094508195505050868782610fb09190611485565b83610fbb91906112d7565b8098508193505050610f56565b8394505050505092915050565b6040518060800160405280600490602082028036833780820191505090505090565b6000819050919050565b61100a81610ff7565b82525050565b60006020820190506110256000830184611001565b92915050565b600080fd5b61103981610ff7565b811461104457600080fd5b50565b60008135905061105681611030565b92915050565b600080600080608085870312156110765761107561102b565b5b600061108487828801611047565b945050602061109587828801611047565b93505060406110a687828801611047565b92505060606110b787828801611047565b91505092959194509250565b60006040820190506110d86000830185611001565b6110e56020830184611001565b9392505050565b60008060008060008060c087890312156111095761110861102b565b5b600061111789828a01611047565b965050602061112889828a01611047565b955050604061113989828a01611047565b945050606061114a89828a01611047565b935050608061115b89828a01611047565b92505060a061116c89828a01611047565b9150509295509295509295565b600060608201905061118e6000830186611001565b61119b6020830185611001565b6111a86040830184611001565b949350505050565b600080604083850312156111c7576111c661102b565b5b60006111d585828601611047565b92505060206111e685828601611047565b9150509250929050565b6000806000606084860312156112095761120861102b565b5b600061121786828701611047565b935050602061122886828701611047565b925050604061123986828701611047565b9150509250925092565b60008115159050919050565b61125881611243565b82525050565b6000602082019050611273600083018461124f565b92915050565b7f4e487b7100000000000000000000000000000000000000000000000000000000600052601260045260246000fd5b7f4e487b7100000000000000000000000000000000000000000000000000000000600052601160045260246000fd5b60006112e282610ff7565b91506112ed83610ff7565b9250828203905081811115611305576113046112a8565b5b92915050565b600061131682610ff7565b915061132183610ff7565b92508261133157611330611279565b5b828206905092915050565b600061134782610ff7565b915061135283610ff7565b92508261136257611361611279565b5b828204905092915050565b7f4e487b7100000000000000000000000000000000000000000000000000000000600052603260045260246000fd5b600082825260208201905092915050565b7f557365206a6163446f75626c652066756e6374696f6e20696e73746561640000600082015250565b60006113e3601e8361139c565b91506113ee826113ad565b602082019050919050565b60006020820190508181036000830152611412816113d6565b9050919050565b7f496e76616c6964206e756d626572000000000000000000000000000000000000600082015250565b600061144f600e8361139c565b915061145a82611419565b602082019050919050565b6000602082019050818103600083015261147e81611442565b9050919050565b600061149082610ff7565b915061149b83610ff7565b92508282026114a981610ff7565b915082820484148315176114c0576114bf6112a8565b5b509291505056fea26469706673582212205dd55f5f235ad30af4e25fd10237578eaf0ab96fbe0aa3f94f1cdef92e11052a64736f6c63430008140033",
  "linkReferences": {},
  "deployedLinkReferences": {}
}